{
	"contracts/NolanCoin.sol": {
		"NolanCoin": {
			"abi": [
				{
					"inputs": [],
					"stateMutability": "nonpayable",
					"type": "constructor"
				},
				{
					"anonymous": false,
					"inputs": [
						{
							"indexed": true,
							"internalType": "address",
							"name": "owner",
							"type": "address"
						},
						{
							"indexed": true,
							"internalType": "address",
							"name": "spender",
							"type": "address"
						},
						{
							"indexed": false,
							"internalType": "uint256",
							"name": "value",
							"type": "uint256"
						}
					],
					"name": "Approval",
					"type": "event"
				},
				{
					"anonymous": false,
					"inputs": [
						{
							"indexed": true,
							"internalType": "address",
							"name": "from",
							"type": "address"
						},
						{
							"indexed": true,
							"internalType": "address",
							"name": "to",
							"type": "address"
						},
						{
							"indexed": false,
							"internalType": "uint256",
							"name": "value",
							"type": "uint256"
						}
					],
					"name": "Transfer",
					"type": "event"
				},
				{
					"inputs": [
						{
							"internalType": "address",
							"name": "owner",
							"type": "address"
						},
						{
							"internalType": "address",
							"name": "spender",
							"type": "address"
						}
					],
					"name": "allowance",
					"outputs": [
						{
							"internalType": "uint256",
							"name": "",
							"type": "uint256"
						}
					],
					"stateMutability": "view",
					"type": "function"
				},
				{
					"inputs": [
						{
							"internalType": "address",
							"name": "spender",
							"type": "address"
						},
						{
							"internalType": "uint256",
							"name": "amount",
							"type": "uint256"
						}
					],
					"name": "approve",
					"outputs": [
						{
							"internalType": "bool",
							"name": "",
							"type": "bool"
						}
					],
					"stateMutability": "nonpayable",
					"type": "function"
				},
				{
					"inputs": [
						{
							"internalType": "address",
							"name": "account",
							"type": "address"
						}
					],
					"name": "balanceOf",
					"outputs": [
						{
							"internalType": "uint256",
							"name": "",
							"type": "uint256"
						}
					],
					"stateMutability": "view",
					"type": "function"
				},
				{
					"inputs": [],
					"name": "decimals",
					"outputs": [
						{
							"internalType": "uint8",
							"name": "",
							"type": "uint8"
						}
					],
					"stateMutability": "view",
					"type": "function"
				},
				{
					"inputs": [
						{
							"internalType": "address",
							"name": "spender",
							"type": "address"
						},
						{
							"internalType": "uint256",
							"name": "subtractedValue",
							"type": "uint256"
						}
					],
					"name": "decreaseAllowance",
					"outputs": [
						{
							"internalType": "bool",
							"name": "",
							"type": "bool"
						}
					],
					"stateMutability": "nonpayable",
					"type": "function"
				},
				{
					"inputs": [],
					"name": "ico",
					"outputs": [
						{
							"internalType": "address",
							"name": "",
							"type": "address"
						}
					],
					"stateMutability": "view",
					"type": "function"
				},
				{
					"inputs": [
						{
							"internalType": "address",
							"name": "spender",
							"type": "address"
						},
						{
							"internalType": "uint256",
							"name": "addedValue",
							"type": "uint256"
						}
					],
					"name": "increaseAllowance",
					"outputs": [
						{
							"internalType": "bool",
							"name": "",
							"type": "bool"
						}
					],
					"stateMutability": "nonpayable",
					"type": "function"
				},
				{
					"inputs": [],
					"name": "name",
					"outputs": [
						{
							"internalType": "string",
							"name": "",
							"type": "string"
						}
					],
					"stateMutability": "view",
					"type": "function"
				},
				{
					"inputs": [],
					"name": "owner",
					"outputs": [
						{
							"internalType": "address",
							"name": "",
							"type": "address"
						}
					],
					"stateMutability": "view",
					"type": "function"
				},
				{
					"inputs": [],
					"name": "symbol",
					"outputs": [
						{
							"internalType": "string",
							"name": "",
							"type": "string"
						}
					],
					"stateMutability": "view",
					"type": "function"
				},
				{
					"inputs": [],
					"name": "totalSupply",
					"outputs": [
						{
							"internalType": "uint256",
							"name": "",
							"type": "uint256"
						}
					],
					"stateMutability": "view",
					"type": "function"
				},
				{
					"inputs": [
						{
							"internalType": "address",
							"name": "to",
							"type": "address"
						},
						{
							"internalType": "uint256",
							"name": "amount",
							"type": "uint256"
						}
					],
					"name": "transfer",
					"outputs": [
						{
							"internalType": "bool",
							"name": "",
							"type": "bool"
						}
					],
					"stateMutability": "nonpayable",
					"type": "function"
				},
				{
					"inputs": [
						{
							"internalType": "address",
							"name": "from",
							"type": "address"
						},
						{
							"internalType": "address",
							"name": "to",
							"type": "address"
						},
						{
							"internalType": "uint256",
							"name": "amount",
							"type": "uint256"
						}
					],
					"name": "transferFrom",
					"outputs": [
						{
							"internalType": "bool",
							"name": "",
							"type": "bool"
						}
					],
					"stateMutability": "nonpayable",
					"type": "function"
				}
			],
			"devdoc": {
				"kind": "dev",
				"methods": {
					"allowance(address,address)": {
						"details": "See {IERC20-allowance}."
					},
					"approve(address,uint256)": {
						"details": "See {IERC20-approve}. NOTE: If `amount` is the maximum `uint256`, the allowance is not updated on `transferFrom`. This is semantically equivalent to an infinite approval. Requirements: - `spender` cannot be the zero address."
					},
					"balanceOf(address)": {
						"details": "See {IERC20-balanceOf}."
					},
					"decimals()": {
						"details": "Returns the number of decimals used to get its user representation. For example, if `decimals` equals `2`, a balance of `505` tokens should be displayed to a user as `5.05` (`505 / 10 ** 2`). Tokens usually opt for a value of 18, imitating the relationship between Ether and Wei. This is the default value returned by this function, unless it's overridden. NOTE: This information is only used for _display_ purposes: it in no way affects any of the arithmetic of the contract, including {IERC20-balanceOf} and {IERC20-transfer}."
					},
					"decreaseAllowance(address,uint256)": {
						"details": "Atomically decreases the allowance granted to `spender` by the caller. This is an alternative to {approve} that can be used as a mitigation for problems described in {IERC20-approve}. Emits an {Approval} event indicating the updated allowance. Requirements: - `spender` cannot be the zero address. - `spender` must have allowance for the caller of at least `subtractedValue`."
					},
					"increaseAllowance(address,uint256)": {
						"details": "Atomically increases the allowance granted to `spender` by the caller. This is an alternative to {approve} that can be used as a mitigation for problems described in {IERC20-approve}. Emits an {Approval} event indicating the updated allowance. Requirements: - `spender` cannot be the zero address."
					},
					"name()": {
						"details": "Returns the name of the token."
					},
					"symbol()": {
						"details": "Returns the symbol of the token, usually a shorter version of the name."
					},
					"totalSupply()": {
						"details": "See {IERC20-totalSupply}."
					},
					"transfer(address,uint256)": {
						"details": "See {IERC20-transfer}. Requirements: - `to` cannot be the zero address. - the caller must have a balance of at least `amount`."
					},
					"transferFrom(address,address,uint256)": {
						"details": "See {IERC20-transferFrom}. Emits an {Approval} event indicating the updated allowance. This is not required by the EIP. See the note at the beginning of {ERC20}. NOTE: Does not update the allowance if the current allowance is the maximum `uint256`. Requirements: - `from` and `to` cannot be the zero address. - `from` must have a balance of at least `amount`. - the caller must have allowance for ``from``'s tokens of at least `amount`."
					}
				},
				"version": 1
			},
			"evm": {
				"assembly": "    /* \"contracts/NolanCoin.sol\":140:407  contract NolanCoin  is ERC20 {... */\n  mstore(0x40, 0x80)\n    /* \"contracts/NolanCoin.sol\":232:394  constructor() ERC20(\"Nolan Coin\",\"Nl\"){... */\n  callvalue\n  dup1\n  iszero\n  tag_1\n  jumpi\n  0x00\n  dup1\n  revert\ntag_1:\n  pop\n    /* \"@openzeppelin/contracts/token/ERC20/ERC20.sol\":1980:2093  constructor(string memory name_, string memory symbol_) {... */\n  mload(0x40)\n  dup1\n  0x40\n  add\n  0x40\n  mstore\n  dup1\n  0x0a\n  dup2\n  mstore\n  0x20\n  add\n  0x4e6f6c616e20436f696e00000000000000000000000000000000000000000000\n  dup2\n  mstore\n  pop\n  mload(0x40)\n  dup1\n  0x40\n  add\n  0x40\n  mstore\n  dup1\n  0x02\n  dup2\n  mstore\n  0x20\n  add\n  0x4e6c000000000000000000000000000000000000000000000000000000000000\n  dup2\n  mstore\n  pop\n    /* \"@openzeppelin/contracts/token/ERC20/ERC20.sol\":2054:2059  name_ */\n  dup2\n    /* \"@openzeppelin/contracts/token/ERC20/ERC20.sol\":2046:2051  _name */\n  0x03\n    /* \"@openzeppelin/contracts/token/ERC20/ERC20.sol\":2046:2059  _name = name_ */\n  swap1\n  dup1\n  mload\n  swap1\n  0x20\n  add\n  swap1\n  tag_5\n  swap3\n  swap2\n  swap1\n  tag_6\n  jump\t// in\ntag_5:\n  pop\n    /* \"@openzeppelin/contracts/token/ERC20/ERC20.sol\":2079:2086  symbol_ */\n  dup1\n    /* \"@openzeppelin/contracts/token/ERC20/ERC20.sol\":2069:2076  _symbol */\n  0x04\n    /* \"@openzeppelin/contracts/token/ERC20/ERC20.sol\":2069:2086  _symbol = symbol_ */\n  swap1\n  dup1\n  mload\n  swap1\n  0x20\n  add\n  swap1\n  tag_7\n  swap3\n  swap2\n  swap1\n  tag_6\n  jump\t// in\ntag_7:\n  pop\n    /* \"@openzeppelin/contracts/token/ERC20/ERC20.sol\":1980:2093  constructor(string memory name_, string memory symbol_) {... */\n  pop\n  pop\n    /* \"contracts/NolanCoin.sol\":289:299  msg.sender */\n  caller\n    /* \"contracts/NolanCoin.sol\":281:286  owner */\n  0x05\n  0x00\n    /* \"contracts/NolanCoin.sol\":281:299  owner = msg.sender */\n  0x0100\n  exp\n  dup2\n  sload\n  dup2\n  0xffffffffffffffffffffffffffffffffffffffff\n  mul\n  not\n  and\n  swap1\n  dup4\n  0xffffffffffffffffffffffffffffffffffffffff\n  and\n  mul\n  or\n  swap1\n  sstore\n  pop\n    /* \"contracts/NolanCoin.sol\":332:337  owner */\n  0x05\n  0x00\n  swap1\n  sload\n  swap1\n  0x0100\n  exp\n  swap1\n  div\n  0xffffffffffffffffffffffffffffffffffffffff\n  and\n    /* \"contracts/NolanCoin.sol\":339:343  this */\n  address\n    /* \"contracts/NolanCoin.sol\":324:344  new Ico(owner, this) */\n  mload(0x40)\n  tag_9\n  swap1\n  tag_10\n  jump\t// in\ntag_9:\n  tag_11\n  swap3\n  swap2\n  swap1\n  tag_12\n  jump\t// in\ntag_11:\n  mload(0x40)\n  dup1\n  swap2\n  sub\n  swap1\n  0x00\n  create\n  dup1\n  iszero\n  dup1\n  iszero\n  tag_13\n  jumpi\n  returndatasize\n  0x00\n  dup1\n  returndatacopy\n  revert(0x00, returndatasize)\ntag_13:\n  pop\n    /* \"contracts/NolanCoin.sol\":310:313  ico */\n  0x06\n  0x00\n    /* \"contracts/NolanCoin.sol\":310:345  ico = address(new Ico(owner, this)) */\n  0x0100\n  exp\n  dup2\n  sload\n  dup2\n  0xffffffffffffffffffffffffffffffffffffffff\n  mul\n  not\n  and\n  swap1\n  dup4\n  0xffffffffffffffffffffffffffffffffffffffff\n  and\n  mul\n  or\n  swap1\n  sstore\n  pop\n    /* \"contracts/NolanCoin.sol\":358:382  _mint(ico,100000*10**18) */\n  tag_14\n    /* \"contracts/NolanCoin.sol\":364:367  ico */\n  0x06\n  0x00\n  swap1\n  sload\n  swap1\n  0x0100\n  exp\n  swap1\n  div\n  0xffffffffffffffffffffffffffffffffffffffff\n  and\n    /* \"contracts/NolanCoin.sol\":368:381  100000*10**18 */\n  0x152d02c7e14af6800000\n    /* \"contracts/NolanCoin.sol\":358:363  _mint */\n  shl(0x20, tag_15)\n    /* \"contracts/NolanCoin.sol\":358:382  _mint(ico,100000*10**18) */\n  0x20\n  shr\n  jump\t// in\ntag_14:\n    /* \"contracts/NolanCoin.sol\":140:407  contract NolanCoin  is ERC20 {... */\n  jump(tag_16)\n    /* \"@openzeppelin/contracts/token/ERC20/ERC20.sol\":8520:9055  function _mint(address account, uint256 amount) internal virtual {... */\ntag_15:\n    /* \"@openzeppelin/contracts/token/ERC20/ERC20.sol\":8622:8623  0 */\n  0x00\n    /* \"@openzeppelin/contracts/token/ERC20/ERC20.sol\":8603:8624  account != address(0) */\n  0xffffffffffffffffffffffffffffffffffffffff\n  and\n    /* \"@openzeppelin/contracts/token/ERC20/ERC20.sol\":8603:8610  account */\n  dup3\n    /* \"@openzeppelin/contracts/token/ERC20/ERC20.sol\":8603:8624  account != address(0) */\n  0xffffffffffffffffffffffffffffffffffffffff\n  and\n  sub\n    /* \"@openzeppelin/contracts/token/ERC20/ERC20.sol\":8595:8660  require(account != address(0), \"ERC20: mint to the zero address\") */\n  tag_18\n  jumpi\n  mload(0x40)\n  0x08c379a000000000000000000000000000000000000000000000000000000000\n  dup2\n  mstore\n  0x04\n  add\n  tag_19\n  swap1\n  tag_20\n  jump\t// in\ntag_19:\n  mload(0x40)\n  dup1\n  swap2\n  sub\n  swap1\n  revert\ntag_18:\n    /* \"@openzeppelin/contracts/token/ERC20/ERC20.sol\":8671:8720  _beforeTokenTransfer(address(0), account, amount) */\n  tag_21\n    /* \"@openzeppelin/contracts/token/ERC20/ERC20.sol\":8700:8701  0 */\n  0x00\n    /* \"@openzeppelin/contracts/token/ERC20/ERC20.sol\":8704:8711  account */\n  dup4\n    /* \"@openzeppelin/contracts/token/ERC20/ERC20.sol\":8713:8719  amount */\n  dup4\n    /* \"@openzeppelin/contracts/token/ERC20/ERC20.sol\":8671:8691  _beforeTokenTransfer */\n  shl(0x20, tag_22)\n    /* \"@openzeppelin/contracts/token/ERC20/ERC20.sol\":8671:8720  _beforeTokenTransfer(address(0), account, amount) */\n  0x20\n  shr\n  jump\t// in\ntag_21:\n    /* \"@openzeppelin/contracts/token/ERC20/ERC20.sol\":8747:8753  amount */\n  dup1\n    /* \"@openzeppelin/contracts/token/ERC20/ERC20.sol\":8731:8743  _totalSupply */\n  0x02\n  0x00\n    /* \"@openzeppelin/contracts/token/ERC20/ERC20.sol\":8731:8753  _totalSupply += amount */\n  dup3\n  dup3\n  sload\n  tag_23\n  swap2\n  swap1\n  tag_24\n  jump\t// in\ntag_23:\n  swap3\n  pop\n  pop\n  dup2\n  swap1\n  sstore\n  pop\n    /* \"@openzeppelin/contracts/token/ERC20/ERC20.sol\":8921:8927  amount */\n  dup1\n    /* \"@openzeppelin/contracts/token/ERC20/ERC20.sol\":8899:8908  _balances */\n  0x00\n    /* \"@openzeppelin/contracts/token/ERC20/ERC20.sol\":8899:8917  _balances[account] */\n  dup1\n    /* \"@openzeppelin/contracts/token/ERC20/ERC20.sol\":8909:8916  account */\n  dup5\n    /* \"@openzeppelin/contracts/token/ERC20/ERC20.sol\":8899:8917  _balances[account] */\n  0xffffffffffffffffffffffffffffffffffffffff\n  and\n  0xffffffffffffffffffffffffffffffffffffffff\n  and\n  dup2\n  mstore\n  0x20\n  add\n  swap1\n  dup2\n  mstore\n  0x20\n  add\n  0x00\n  keccak256\n  0x00\n    /* \"@openzeppelin/contracts/token/ERC20/ERC20.sol\":8899:8927  _balances[account] += amount */\n  dup3\n  dup3\n  sload\n  add\n  swap3\n  pop\n  pop\n  dup2\n  swap1\n  sstore\n  pop\n    /* \"@openzeppelin/contracts/token/ERC20/ERC20.sol\":8973:8980  account */\n  dup2\n    /* \"@openzeppelin/contracts/token/ERC20/ERC20.sol\":8952:8989  Transfer(address(0), account, amount) */\n  0xffffffffffffffffffffffffffffffffffffffff\n  and\n    /* \"@openzeppelin/contracts/token/ERC20/ERC20.sol\":8969:8970  0 */\n  0x00\n    /* \"@openzeppelin/contracts/token/ERC20/ERC20.sol\":8952:8989  Transfer(address(0), account, amount) */\n  0xffffffffffffffffffffffffffffffffffffffff\n  and\n  0xddf252ad1be2c89b69c2b068fc378daa952ba7f163c4a11628f55a4df523b3ef\n    /* \"@openzeppelin/contracts/token/ERC20/ERC20.sol\":8982:8988  amount */\n  dup4\n    /* \"@openzeppelin/contracts/token/ERC20/ERC20.sol\":8952:8989  Transfer(address(0), account, amount) */\n  mload(0x40)\n  tag_25\n  swap2\n  swap1\n  tag_26\n  jump\t// in\ntag_25:\n  mload(0x40)\n  dup1\n  swap2\n  sub\n  swap1\n  log3\n    /* \"@openzeppelin/contracts/token/ERC20/ERC20.sol\":9000:9048  _afterTokenTransfer(address(0), account, amount) */\n  tag_27\n    /* \"@openzeppelin/contracts/token/ERC20/ERC20.sol\":9028:9029  0 */\n  0x00\n    /* \"@openzeppelin/contracts/token/ERC20/ERC20.sol\":9032:9039  account */\n  dup4\n    /* \"@openzeppelin/contracts/token/ERC20/ERC20.sol\":9041:9047  amount */\n  dup4\n    /* \"@openzeppelin/contracts/token/ERC20/ERC20.sol\":9000:9019  _afterTokenTransfer */\n  shl(0x20, tag_28)\n    /* \"@openzeppelin/contracts/token/ERC20/ERC20.sol\":9000:9048  _afterTokenTransfer(address(0), account, amount) */\n  0x20\n  shr\n  jump\t// in\ntag_27:\n    /* \"@openzeppelin/contracts/token/ERC20/ERC20.sol\":8520:9055  function _mint(address account, uint256 amount) internal virtual {... */\n  pop\n  pop\n  jump\t// out\n    /* \"@openzeppelin/contracts/token/ERC20/ERC20.sol\":12073:12164  function _beforeTokenTransfer(address from, address to, uint256 amount) internal virtual {} */\ntag_22:\n  pop\n  pop\n  pop\n  jump\t// out\n    /* \"@openzeppelin/contracts/token/ERC20/ERC20.sol\":12752:12842  function _afterTokenTransfer(address from, address to, uint256 amount) internal virtual {} */\ntag_28:\n  pop\n  pop\n  pop\n  jump\t// out\n    /* \"contracts/NolanCoin.sol\":140:407  contract NolanCoin  is ERC20 {... */\ntag_6:\n  dup3\n  dup1\n  sload\n  tag_31\n  swap1\n  tag_32\n  jump\t// in\ntag_31:\n  swap1\n  0x00\n  mstore\n  keccak256(0x00, 0x20)\n  swap1\n  0x1f\n  add\n  0x20\n  swap1\n  div\n  dup2\n  add\n  swap3\n  dup3\n  tag_34\n  jumpi\n  0x00\n  dup6\n  sstore\n  jump(tag_33)\ntag_34:\n  dup3\n  0x1f\n  lt\n  tag_35\n  jumpi\n  dup1\n  mload\n  not(0xff)\n  and\n  dup4\n  dup1\n  add\n  or\n  dup6\n  sstore\n  jump(tag_33)\ntag_35:\n  dup3\n  dup1\n  add\n  0x01\n  add\n  dup6\n  sstore\n  dup3\n  iszero\n  tag_33\n  jumpi\n  swap2\n  dup3\n  add\ntag_36:\n  dup3\n  dup2\n  gt\n  iszero\n  tag_37\n  jumpi\n  dup3\n  mload\n  dup3\n  sstore\n  swap2\n  0x20\n  add\n  swap2\n  swap1\n  0x01\n  add\n  swap1\n  jump(tag_36)\ntag_37:\ntag_33:\n  pop\n  swap1\n  pop\n  tag_38\n  swap2\n  swap1\n  tag_39\n  jump\t// in\ntag_38:\n  pop\n  swap1\n  jump\t// out\ntag_10:\n  dataSize(sub_1)\n  dup1\n  dataOffset(sub_1)\n  dup4\n  codecopy\n  add\n  swap1\n  jump\t// out\ntag_39:\ntag_40:\n  dup1\n  dup3\n  gt\n  iszero\n  tag_41\n  jumpi\n  0x00\n  dup2\n  0x00\n  swap1\n  sstore\n  pop\n  0x01\n  add\n  jump(tag_40)\ntag_41:\n  pop\n  swap1\n  jump\t// out\n    /* \"#utility.yul\":7:133   */\ntag_42:\n    /* \"#utility.yul\":44:51   */\n  0x00\n    /* \"#utility.yul\":84:126   */\n  0xffffffffffffffffffffffffffffffffffffffff\n    /* \"#utility.yul\":77:82   */\n  dup3\n    /* \"#utility.yul\":73:127   */\n  and\n    /* \"#utility.yul\":62:127   */\n  swap1\n  pop\n    /* \"#utility.yul\":7:133   */\n  swap2\n  swap1\n  pop\n  jump\t// out\n    /* \"#utility.yul\":139:235   */\ntag_43:\n    /* \"#utility.yul\":176:183   */\n  0x00\n    /* \"#utility.yul\":205:229   */\n  tag_60\n    /* \"#utility.yul\":223:228   */\n  dup3\n    /* \"#utility.yul\":205:229   */\n  tag_42\n  jump\t// in\ntag_60:\n    /* \"#utility.yul\":194:229   */\n  swap1\n  pop\n    /* \"#utility.yul\":139:235   */\n  swap2\n  swap1\n  pop\n  jump\t// out\n    /* \"#utility.yul\":241:359   */\ntag_44:\n    /* \"#utility.yul\":328:352   */\n  tag_62\n    /* \"#utility.yul\":346:351   */\n  dup2\n    /* \"#utility.yul\":328:352   */\n  tag_43\n  jump\t// in\ntag_62:\n    /* \"#utility.yul\":323:326   */\n  dup3\n    /* \"#utility.yul\":316:353   */\n  mstore\n    /* \"#utility.yul\":241:359   */\n  pop\n  pop\n  jump\t// out\n    /* \"#utility.yul\":365:425   */\ntag_45:\n    /* \"#utility.yul\":393:396   */\n  0x00\n    /* \"#utility.yul\":414:419   */\n  dup2\n    /* \"#utility.yul\":407:419   */\n  swap1\n  pop\n    /* \"#utility.yul\":365:425   */\n  swap2\n  swap1\n  pop\n  jump\t// out\n    /* \"#utility.yul\":431:573   */\ntag_46:\n    /* \"#utility.yul\":481:490   */\n  0x00\n    /* \"#utility.yul\":514:567   */\n  tag_65\n    /* \"#utility.yul\":532:566   */\n  tag_66\n    /* \"#utility.yul\":541:565   */\n  tag_67\n    /* \"#utility.yul\":559:564   */\n  dup5\n    /* \"#utility.yul\":541:565   */\n  tag_42\n  jump\t// in\ntag_67:\n    /* \"#utility.yul\":532:566   */\n  tag_45\n  jump\t// in\ntag_66:\n    /* \"#utility.yul\":514:567   */\n  tag_42\n  jump\t// in\ntag_65:\n    /* \"#utility.yul\":501:567   */\n  swap1\n  pop\n    /* \"#utility.yul\":431:573   */\n  swap2\n  swap1\n  pop\n  jump\t// out\n    /* \"#utility.yul\":579:705   */\ntag_47:\n    /* \"#utility.yul\":629:638   */\n  0x00\n    /* \"#utility.yul\":662:699   */\n  tag_69\n    /* \"#utility.yul\":693:698   */\n  dup3\n    /* \"#utility.yul\":662:699   */\n  tag_46\n  jump\t// in\ntag_69:\n    /* \"#utility.yul\":649:699   */\n  swap1\n  pop\n    /* \"#utility.yul\":579:705   */\n  swap2\n  swap1\n  pop\n  jump\t// out\n    /* \"#utility.yul\":711:854   */\ntag_48:\n    /* \"#utility.yul\":778:787   */\n  0x00\n    /* \"#utility.yul\":811:848   */\n  tag_71\n    /* \"#utility.yul\":842:847   */\n  dup3\n    /* \"#utility.yul\":811:848   */\n  tag_47\n  jump\t// in\ntag_71:\n    /* \"#utility.yul\":798:848   */\n  swap1\n  pop\n    /* \"#utility.yul\":711:854   */\n  swap2\n  swap1\n  pop\n  jump\t// out\n    /* \"#utility.yul\":860:1025   */\ntag_49:\n    /* \"#utility.yul\":964:1018   */\n  tag_73\n    /* \"#utility.yul\":1012:1017   */\n  dup2\n    /* \"#utility.yul\":964:1018   */\n  tag_48\n  jump\t// in\ntag_73:\n    /* \"#utility.yul\":959:962   */\n  dup3\n    /* \"#utility.yul\":952:1019   */\n  mstore\n    /* \"#utility.yul\":860:1025   */\n  pop\n  pop\n  jump\t// out\n    /* \"#utility.yul\":1031:1397   */\ntag_12:\n    /* \"#utility.yul\":1169:1173   */\n  0x00\n    /* \"#utility.yul\":1207:1209   */\n  0x40\n    /* \"#utility.yul\":1196:1205   */\n  dup3\n    /* \"#utility.yul\":1192:1210   */\n  add\n    /* \"#utility.yul\":1184:1210   */\n  swap1\n  pop\n    /* \"#utility.yul\":1220:1291   */\n  tag_75\n    /* \"#utility.yul\":1288:1289   */\n  0x00\n    /* \"#utility.yul\":1277:1286   */\n  dup4\n    /* \"#utility.yul\":1273:1290   */\n  add\n    /* \"#utility.yul\":1264:1270   */\n  dup6\n    /* \"#utility.yul\":1220:1291   */\n  tag_44\n  jump\t// in\ntag_75:\n    /* \"#utility.yul\":1301:1390   */\n  tag_76\n    /* \"#utility.yul\":1386:1388   */\n  0x20\n    /* \"#utility.yul\":1375:1384   */\n  dup4\n    /* \"#utility.yul\":1371:1389   */\n  add\n    /* \"#utility.yul\":1362:1368   */\n  dup5\n    /* \"#utility.yul\":1301:1390   */\n  tag_49\n  jump\t// in\ntag_76:\n    /* \"#utility.yul\":1031:1397   */\n  swap4\n  swap3\n  pop\n  pop\n  pop\n  jump\t// out\n    /* \"#utility.yul\":1403:1572   */\ntag_50:\n    /* \"#utility.yul\":1487:1498   */\n  0x00\n    /* \"#utility.yul\":1521:1527   */\n  dup3\n    /* \"#utility.yul\":1516:1519   */\n  dup3\n    /* \"#utility.yul\":1509:1528   */\n  mstore\n    /* \"#utility.yul\":1561:1565   */\n  0x20\n    /* \"#utility.yul\":1556:1559   */\n  dup3\n    /* \"#utility.yul\":1552:1566   */\n  add\n    /* \"#utility.yul\":1537:1566   */\n  swap1\n  pop\n    /* \"#utility.yul\":1403:1572   */\n  swap3\n  swap2\n  pop\n  pop\n  jump\t// out\n    /* \"#utility.yul\":1578:1759   */\ntag_51:\n    /* \"#utility.yul\":1718:1751   */\n  0x45524332303a206d696e7420746f20746865207a65726f206164647265737300\n    /* \"#utility.yul\":1714:1715   */\n  0x00\n    /* \"#utility.yul\":1706:1712   */\n  dup3\n    /* \"#utility.yul\":1702:1716   */\n  add\n    /* \"#utility.yul\":1695:1752   */\n  mstore\n    /* \"#utility.yul\":1578:1759   */\n  pop\n  jump\t// out\n    /* \"#utility.yul\":1765:2131   */\ntag_52:\n    /* \"#utility.yul\":1907:1910   */\n  0x00\n    /* \"#utility.yul\":1928:1995   */\n  tag_80\n    /* \"#utility.yul\":1992:1994   */\n  0x1f\n    /* \"#utility.yul\":1987:1990   */\n  dup4\n    /* \"#utility.yul\":1928:1995   */\n  tag_50\n  jump\t// in\ntag_80:\n    /* \"#utility.yul\":1921:1995   */\n  swap2\n  pop\n    /* \"#utility.yul\":2004:2097   */\n  tag_81\n    /* \"#utility.yul\":2093:2096   */\n  dup3\n    /* \"#utility.yul\":2004:2097   */\n  tag_51\n  jump\t// in\ntag_81:\n    /* \"#utility.yul\":2122:2124   */\n  0x20\n    /* \"#utility.yul\":2117:2120   */\n  dup3\n    /* \"#utility.yul\":2113:2125   */\n  add\n    /* \"#utility.yul\":2106:2125   */\n  swap1\n  pop\n    /* \"#utility.yul\":1765:2131   */\n  swap2\n  swap1\n  pop\n  jump\t// out\n    /* \"#utility.yul\":2137:2556   */\ntag_20:\n    /* \"#utility.yul\":2303:2307   */\n  0x00\n    /* \"#utility.yul\":2341:2343   */\n  0x20\n    /* \"#utility.yul\":2330:2339   */\n  dup3\n    /* \"#utility.yul\":2326:2344   */\n  add\n    /* \"#utility.yul\":2318:2344   */\n  swap1\n  pop\n    /* \"#utility.yul\":2390:2399   */\n  dup2\n    /* \"#utility.yul\":2384:2388   */\n  dup2\n    /* \"#utility.yul\":2380:2400   */\n  sub\n    /* \"#utility.yul\":2376:2377   */\n  0x00\n    /* \"#utility.yul\":2365:2374   */\n  dup4\n    /* \"#utility.yul\":2361:2378   */\n  add\n    /* \"#utility.yul\":2354:2401   */\n  mstore\n    /* \"#utility.yul\":2418:2549   */\n  tag_83\n    /* \"#utility.yul\":2544:2548   */\n  dup2\n    /* \"#utility.yul\":2418:2549   */\n  tag_52\n  jump\t// in\ntag_83:\n    /* \"#utility.yul\":2410:2549   */\n  swap1\n  pop\n    /* \"#utility.yul\":2137:2556   */\n  swap2\n  swap1\n  pop\n  jump\t// out\n    /* \"#utility.yul\":2562:2639   */\ntag_53:\n    /* \"#utility.yul\":2599:2606   */\n  0x00\n    /* \"#utility.yul\":2628:2633   */\n  dup2\n    /* \"#utility.yul\":2617:2633   */\n  swap1\n  pop\n    /* \"#utility.yul\":2562:2639   */\n  swap2\n  swap1\n  pop\n  jump\t// out\n    /* \"#utility.yul\":2645:2825   */\ntag_54:\n    /* \"#utility.yul\":2693:2770   */\n  0x4e487b7100000000000000000000000000000000000000000000000000000000\n    /* \"#utility.yul\":2690:2691   */\n  0x00\n    /* \"#utility.yul\":2683:2771   */\n  mstore\n    /* \"#utility.yul\":2790:2794   */\n  0x11\n    /* \"#utility.yul\":2787:2788   */\n  0x04\n    /* \"#utility.yul\":2780:2795   */\n  mstore\n    /* \"#utility.yul\":2814:2818   */\n  0x24\n    /* \"#utility.yul\":2811:2812   */\n  0x00\n    /* \"#utility.yul\":2804:2819   */\n  revert\n    /* \"#utility.yul\":2831:3136   */\ntag_24:\n    /* \"#utility.yul\":2871:2874   */\n  0x00\n    /* \"#utility.yul\":2890:2910   */\n  tag_87\n    /* \"#utility.yul\":2908:2909   */\n  dup3\n    /* \"#utility.yul\":2890:2910   */\n  tag_53\n  jump\t// in\ntag_87:\n    /* \"#utility.yul\":2885:2910   */\n  swap2\n  pop\n    /* \"#utility.yul\":2924:2944   */\n  tag_88\n    /* \"#utility.yul\":2942:2943   */\n  dup4\n    /* \"#utility.yul\":2924:2944   */\n  tag_53\n  jump\t// in\ntag_88:\n    /* \"#utility.yul\":2919:2944   */\n  swap3\n  pop\n    /* \"#utility.yul\":3078:3079   */\n  dup3\n    /* \"#utility.yul\":3010:3076   */\n  0xffffffffffffffffffffffffffffffffffffffffffffffffffffffffffffffff\n    /* \"#utility.yul\":3006:3080   */\n  sub\n    /* \"#utility.yul\":3003:3004   */\n  dup3\n    /* \"#utility.yul\":3000:3081   */\n  gt\n    /* \"#utility.yul\":2997:3104   */\n  iszero\n  tag_89\n  jumpi\n    /* \"#utility.yul\":3084:3102   */\n  tag_90\n  tag_54\n  jump\t// in\ntag_90:\n    /* \"#utility.yul\":2997:3104   */\ntag_89:\n    /* \"#utility.yul\":3128:3129   */\n  dup3\n    /* \"#utility.yul\":3125:3126   */\n  dup3\n    /* \"#utility.yul\":3121:3130   */\n  add\n    /* \"#utility.yul\":3114:3130   */\n  swap1\n  pop\n    /* \"#utility.yul\":2831:3136   */\n  swap3\n  swap2\n  pop\n  pop\n  jump\t// out\n    /* \"#utility.yul\":3142:3260   */\ntag_55:\n    /* \"#utility.yul\":3229:3253   */\n  tag_92\n    /* \"#utility.yul\":3247:3252   */\n  dup2\n    /* \"#utility.yul\":3229:3253   */\n  tag_53\n  jump\t// in\ntag_92:\n    /* \"#utility.yul\":3224:3227   */\n  dup3\n    /* \"#utility.yul\":3217:3254   */\n  mstore\n    /* \"#utility.yul\":3142:3260   */\n  pop\n  pop\n  jump\t// out\n    /* \"#utility.yul\":3266:3488   */\ntag_26:\n    /* \"#utility.yul\":3359:3363   */\n  0x00\n    /* \"#utility.yul\":3397:3399   */\n  0x20\n    /* \"#utility.yul\":3386:3395   */\n  dup3\n    /* \"#utility.yul\":3382:3400   */\n  add\n    /* \"#utility.yul\":3374:3400   */\n  swap1\n  pop\n    /* \"#utility.yul\":3410:3481   */\n  tag_94\n    /* \"#utility.yul\":3478:3479   */\n  0x00\n    /* \"#utility.yul\":3467:3476   */\n  dup4\n    /* \"#utility.yul\":3463:3480   */\n  add\n    /* \"#utility.yul\":3454:3460   */\n  dup5\n    /* \"#utility.yul\":3410:3481   */\n  tag_55\n  jump\t// in\ntag_94:\n    /* \"#utility.yul\":3266:3488   */\n  swap3\n  swap2\n  pop\n  pop\n  jump\t// out\n    /* \"#utility.yul\":3494:3674   */\ntag_56:\n    /* \"#utility.yul\":3542:3619   */\n  0x4e487b7100000000000000000000000000000000000000000000000000000000\n    /* \"#utility.yul\":3539:3540   */\n  0x00\n    /* \"#utility.yul\":3532:3620   */\n  mstore\n    /* \"#utility.yul\":3639:3643   */\n  0x22\n    /* \"#utility.yul\":3636:3637   */\n  0x04\n    /* \"#utility.yul\":3629:3644   */\n  mstore\n    /* \"#utility.yul\":3663:3667   */\n  0x24\n    /* \"#utility.yul\":3660:3661   */\n  0x00\n    /* \"#utility.yul\":3653:3668   */\n  revert\n    /* \"#utility.yul\":3680:4000   */\ntag_32:\n    /* \"#utility.yul\":3724:3730   */\n  0x00\n    /* \"#utility.yul\":3761:3762   */\n  0x02\n    /* \"#utility.yul\":3755:3759   */\n  dup3\n    /* \"#utility.yul\":3751:3763   */\n  div\n    /* \"#utility.yul\":3741:3763   */\n  swap1\n  pop\n    /* \"#utility.yul\":3808:3809   */\n  0x01\n    /* \"#utility.yul\":3802:3806   */\n  dup3\n    /* \"#utility.yul\":3798:3810   */\n  and\n    /* \"#utility.yul\":3829:3847   */\n  dup1\n    /* \"#utility.yul\":3819:3900   */\n  tag_97\n  jumpi\n    /* \"#utility.yul\":3885:3889   */\n  0x7f\n    /* \"#utility.yul\":3877:3883   */\n  dup3\n    /* \"#utility.yul\":3873:3890   */\n  and\n    /* \"#utility.yul\":3863:3890   */\n  swap2\n  pop\n    /* \"#utility.yul\":3819:3900   */\ntag_97:\n    /* \"#utility.yul\":3947:3949   */\n  0x20\n    /* \"#utility.yul\":3939:3945   */\n  dup3\n    /* \"#utility.yul\":3936:3950   */\n  lt\n    /* \"#utility.yul\":3916:3934   */\n  dup2\n    /* \"#utility.yul\":3913:3951   */\n  sub\n    /* \"#utility.yul\":3910:3994   */\n  tag_98\n  jumpi\n    /* \"#utility.yul\":3966:3984   */\n  tag_99\n  tag_56\n  jump\t// in\ntag_99:\n    /* \"#utility.yul\":3910:3994   */\ntag_98:\n    /* \"#utility.yul\":3731:4000   */\n  pop\n    /* \"#utility.yul\":3680:4000   */\n  swap2\n  swap1\n  pop\n  jump\t// out\n    /* \"contracts/NolanCoin.sol\":140:407  contract NolanCoin  is ERC20 {... */\ntag_16:\n  dataSize(sub_0)\n  dup1\n  dataOffset(sub_0)\n  0x00\n  codecopy\n  0x00\n  return\nstop\n\nsub_0: assembly {\n        /* \"contracts/NolanCoin.sol\":140:407  contract NolanCoin  is ERC20 {... */\n      mstore(0x40, 0x80)\n      callvalue\n      dup1\n      iszero\n      tag_1\n      jumpi\n      0x00\n      dup1\n      revert\n    tag_1:\n      pop\n      jumpi(tag_2, lt(calldatasize, 0x04))\n      shr(0xe0, calldataload(0x00))\n      dup1\n      0x5d452201\n      gt\n      tag_16\n      jumpi\n      dup1\n      0x95d89b41\n      gt\n      tag_17\n      jumpi\n      dup1\n      0x95d89b41\n      eq\n      tag_12\n      jumpi\n      dup1\n      0xa457c2d7\n      eq\n      tag_13\n      jumpi\n      dup1\n      0xa9059cbb\n      eq\n      tag_14\n      jumpi\n      dup1\n      0xdd62ed3e\n      eq\n      tag_15\n      jumpi\n      jump(tag_2)\n    tag_17:\n      dup1\n      0x5d452201\n      eq\n      tag_9\n      jumpi\n      dup1\n      0x70a08231\n      eq\n      tag_10\n      jumpi\n      dup1\n      0x8da5cb5b\n      eq\n      tag_11\n      jumpi\n      jump(tag_2)\n    tag_16:\n      dup1\n      0x06fdde03\n      eq\n      tag_3\n      jumpi\n      dup1\n      0x095ea7b3\n      eq\n      tag_4\n      jumpi\n      dup1\n      0x18160ddd\n      eq\n      tag_5\n      jumpi\n      dup1\n      0x23b872dd\n      eq\n      tag_6\n      jumpi\n      dup1\n      0x313ce567\n      eq\n      tag_7\n      jumpi\n      dup1\n      0x39509351\n      eq\n      tag_8\n      jumpi\n    tag_2:\n      0x00\n      dup1\n      revert\n        /* \"@openzeppelin/contracts/token/ERC20/ERC20.sol\":2158:2256  function name() public view virtual override returns (string memory) {... */\n    tag_3:\n      tag_18\n      tag_19\n      jump\t// in\n    tag_18:\n      mload(0x40)\n      tag_20\n      swap2\n      swap1\n      tag_21\n      jump\t// in\n    tag_20:\n      mload(0x40)\n      dup1\n      swap2\n      sub\n      swap1\n      return\n        /* \"@openzeppelin/contracts/token/ERC20/ERC20.sol\":4444:4641  function approve(address spender, uint256 amount) public virtual override returns (bool) {... */\n    tag_4:\n      tag_22\n      0x04\n      dup1\n      calldatasize\n      sub\n      dup2\n      add\n      swap1\n      tag_23\n      swap2\n      swap1\n      tag_24\n      jump\t// in\n    tag_23:\n      tag_25\n      jump\t// in\n    tag_22:\n      mload(0x40)\n      tag_26\n      swap2\n      swap1\n      tag_27\n      jump\t// in\n    tag_26:\n      mload(0x40)\n      dup1\n      swap2\n      sub\n      swap1\n      return\n        /* \"@openzeppelin/contracts/token/ERC20/ERC20.sol\":3255:3361  function totalSupply() public view virtual override returns (uint256) {... */\n    tag_5:\n      tag_28\n      tag_29\n      jump\t// in\n    tag_28:\n      mload(0x40)\n      tag_30\n      swap2\n      swap1\n      tag_31\n      jump\t// in\n    tag_30:\n      mload(0x40)\n      dup1\n      swap2\n      sub\n      swap1\n      return\n        /* \"@openzeppelin/contracts/token/ERC20/ERC20.sol\":5203:5459  function transferFrom(address from, address to, uint256 amount) public virtual override returns (bool) {... */\n    tag_6:\n      tag_32\n      0x04\n      dup1\n      calldatasize\n      sub\n      dup2\n      add\n      swap1\n      tag_33\n      swap2\n      swap1\n      tag_34\n      jump\t// in\n    tag_33:\n      tag_35\n      jump\t// in\n    tag_32:\n      mload(0x40)\n      tag_36\n      swap2\n      swap1\n      tag_27\n      jump\t// in\n    tag_36:\n      mload(0x40)\n      dup1\n      swap2\n      sub\n      swap1\n      return\n        /* \"@openzeppelin/contracts/token/ERC20/ERC20.sol\":3104:3195  function decimals() public view virtual override returns (uint8) {... */\n    tag_7:\n      tag_37\n      tag_38\n      jump\t// in\n    tag_37:\n      mload(0x40)\n      tag_39\n      swap2\n      swap1\n      tag_40\n      jump\t// in\n    tag_39:\n      mload(0x40)\n      dup1\n      swap2\n      sub\n      swap1\n      return\n        /* \"@openzeppelin/contracts/token/ERC20/ERC20.sol\":5854:6088  function increaseAllowance(address spender, uint256 addedValue) public virtual returns (bool) {... */\n    tag_8:\n      tag_41\n      0x04\n      dup1\n      calldatasize\n      sub\n      dup2\n      add\n      swap1\n      tag_42\n      swap2\n      swap1\n      tag_24\n      jump\t// in\n    tag_42:\n      tag_43\n      jump\t// in\n    tag_41:\n      mload(0x40)\n      tag_44\n      swap2\n      swap1\n      tag_27\n      jump\t// in\n    tag_44:\n      mload(0x40)\n      dup1\n      swap2\n      sub\n      swap1\n      return\n        /* \"contracts/NolanCoin.sol\":205:223  address public ico */\n    tag_9:\n      tag_45\n      tag_46\n      jump\t// in\n    tag_45:\n      mload(0x40)\n      tag_47\n      swap2\n      swap1\n      tag_48\n      jump\t// in\n    tag_47:\n      mload(0x40)\n      dup1\n      swap2\n      sub\n      swap1\n      return\n        /* \"@openzeppelin/contracts/token/ERC20/ERC20.sol\":3419:3544  function balanceOf(address account) public view virtual override returns (uint256) {... */\n    tag_10:\n      tag_49\n      0x04\n      dup1\n      calldatasize\n      sub\n      dup2\n      add\n      swap1\n      tag_50\n      swap2\n      swap1\n      tag_51\n      jump\t// in\n    tag_50:\n      tag_52\n      jump\t// in\n    tag_49:\n      mload(0x40)\n      tag_53\n      swap2\n      swap1\n      tag_31\n      jump\t// in\n    tag_53:\n      mload(0x40)\n      dup1\n      swap2\n      sub\n      swap1\n      return\n        /* \"contracts/NolanCoin.sol\":178:198  address public owner */\n    tag_11:\n      tag_54\n      tag_55\n      jump\t// in\n    tag_54:\n      mload(0x40)\n      tag_56\n      swap2\n      swap1\n      tag_48\n      jump\t// in\n    tag_56:\n      mload(0x40)\n      dup1\n      swap2\n      sub\n      swap1\n      return\n        /* \"@openzeppelin/contracts/token/ERC20/ERC20.sol\":2369:2471  function symbol() public view virtual override returns (string memory) {... */\n    tag_12:\n      tag_57\n      tag_58\n      jump\t// in\n    tag_57:\n      mload(0x40)\n      tag_59\n      swap2\n      swap1\n      tag_21\n      jump\t// in\n    tag_59:\n      mload(0x40)\n      dup1\n      swap2\n      sub\n      swap1\n      return\n        /* \"@openzeppelin/contracts/token/ERC20/ERC20.sol\":6575:7002  function decreaseAllowance(address spender, uint256 subtractedValue) public virtual returns (bool) {... */\n    tag_13:\n      tag_60\n      0x04\n      dup1\n      calldatasize\n      sub\n      dup2\n      add\n      swap1\n      tag_61\n      swap2\n      swap1\n      tag_24\n      jump\t// in\n    tag_61:\n      tag_62\n      jump\t// in\n    tag_60:\n      mload(0x40)\n      tag_63\n      swap2\n      swap1\n      tag_27\n      jump\t// in\n    tag_63:\n      mload(0x40)\n      dup1\n      swap2\n      sub\n      swap1\n      return\n        /* \"@openzeppelin/contracts/token/ERC20/ERC20.sol\":3740:3929  function transfer(address to, uint256 amount) public virtual override returns (bool) {... */\n    tag_14:\n      tag_64\n      0x04\n      dup1\n      calldatasize\n      sub\n      dup2\n      add\n      swap1\n      tag_65\n      swap2\n      swap1\n      tag_24\n      jump\t// in\n    tag_65:\n      tag_66\n      jump\t// in\n    tag_64:\n      mload(0x40)\n      tag_67\n      swap2\n      swap1\n      tag_27\n      jump\t// in\n    tag_67:\n      mload(0x40)\n      dup1\n      swap2\n      sub\n      swap1\n      return\n        /* \"@openzeppelin/contracts/token/ERC20/ERC20.sol\":3987:4136  function allowance(address owner, address spender) public view virtual override returns (uint256) {... */\n    tag_15:\n      tag_68\n      0x04\n      dup1\n      calldatasize\n      sub\n      dup2\n      add\n      swap1\n      tag_69\n      swap2\n      swap1\n      tag_70\n      jump\t// in\n    tag_69:\n      tag_71\n      jump\t// in\n    tag_68:\n      mload(0x40)\n      tag_72\n      swap2\n      swap1\n      tag_31\n      jump\t// in\n    tag_72:\n      mload(0x40)\n      dup1\n      swap2\n      sub\n      swap1\n      return\n        /* \"@openzeppelin/contracts/token/ERC20/ERC20.sol\":2158:2256  function name() public view virtual override returns (string memory) {... */\n    tag_19:\n        /* \"@openzeppelin/contracts/token/ERC20/ERC20.sol\":2212:2225  string memory */\n      0x60\n        /* \"@openzeppelin/contracts/token/ERC20/ERC20.sol\":2244:2249  _name */\n      0x03\n        /* \"@openzeppelin/contracts/token/ERC20/ERC20.sol\":2237:2249  return _name */\n      dup1\n      sload\n      tag_74\n      swap1\n      tag_75\n      jump\t// in\n    tag_74:\n      dup1\n      0x1f\n      add\n      0x20\n      dup1\n      swap2\n      div\n      mul\n      0x20\n      add\n      mload(0x40)\n      swap1\n      dup2\n      add\n      0x40\n      mstore\n      dup1\n      swap3\n      swap2\n      swap1\n      dup2\n      dup2\n      mstore\n      0x20\n      add\n      dup3\n      dup1\n      sload\n      tag_76\n      swap1\n      tag_75\n      jump\t// in\n    tag_76:\n      dup1\n      iszero\n      tag_77\n      jumpi\n      dup1\n      0x1f\n      lt\n      tag_78\n      jumpi\n      0x0100\n      dup1\n      dup4\n      sload\n      div\n      mul\n      dup4\n      mstore\n      swap2\n      0x20\n      add\n      swap2\n      jump(tag_77)\n    tag_78:\n      dup3\n      add\n      swap2\n      swap1\n      0x00\n      mstore\n      keccak256(0x00, 0x20)\n      swap1\n    tag_79:\n      dup2\n      sload\n      dup2\n      mstore\n      swap1\n      0x01\n      add\n      swap1\n      0x20\n      add\n      dup1\n      dup4\n      gt\n      tag_79\n      jumpi\n      dup3\n      swap1\n      sub\n      0x1f\n      and\n      dup3\n      add\n      swap2\n    tag_77:\n      pop\n      pop\n      pop\n      pop\n      pop\n      swap1\n      pop\n        /* \"@openzeppelin/contracts/token/ERC20/ERC20.sol\":2158:2256  function name() public view virtual override returns (string memory) {... */\n      swap1\n      jump\t// out\n        /* \"@openzeppelin/contracts/token/ERC20/ERC20.sol\":4444:4641  function approve(address spender, uint256 amount) public virtual override returns (bool) {... */\n    tag_25:\n        /* \"@openzeppelin/contracts/token/ERC20/ERC20.sol\":4527:4531  bool */\n      0x00\n        /* \"@openzeppelin/contracts/token/ERC20/ERC20.sol\":4543:4556  address owner */\n      dup1\n        /* \"@openzeppelin/contracts/token/ERC20/ERC20.sol\":4559:4571  _msgSender() */\n      tag_81\n        /* \"@openzeppelin/contracts/token/ERC20/ERC20.sol\":4559:4569  _msgSender */\n      tag_82\n        /* \"@openzeppelin/contracts/token/ERC20/ERC20.sol\":4559:4571  _msgSender() */\n      jump\t// in\n    tag_81:\n        /* \"@openzeppelin/contracts/token/ERC20/ERC20.sol\":4543:4571  address owner = _msgSender() */\n      swap1\n      pop\n        /* \"@openzeppelin/contracts/token/ERC20/ERC20.sol\":4581:4613  _approve(owner, spender, amount) */\n      tag_83\n        /* \"@openzeppelin/contracts/token/ERC20/ERC20.sol\":4590:4595  owner */\n      dup2\n        /* \"@openzeppelin/contracts/token/ERC20/ERC20.sol\":4597:4604  spender */\n      dup6\n        /* \"@openzeppelin/contracts/token/ERC20/ERC20.sol\":4606:4612  amount */\n      dup6\n        /* \"@openzeppelin/contracts/token/ERC20/ERC20.sol\":4581:4589  _approve */\n      tag_84\n        /* \"@openzeppelin/contracts/token/ERC20/ERC20.sol\":4581:4613  _approve(owner, spender, amount) */\n      jump\t// in\n    tag_83:\n        /* \"@openzeppelin/contracts/token/ERC20/ERC20.sol\":4630:4634  true */\n      0x01\n        /* \"@openzeppelin/contracts/token/ERC20/ERC20.sol\":4623:4634  return true */\n      swap2\n      pop\n      pop\n        /* \"@openzeppelin/contracts/token/ERC20/ERC20.sol\":4444:4641  function approve(address spender, uint256 amount) public virtual override returns (bool) {... */\n      swap3\n      swap2\n      pop\n      pop\n      jump\t// out\n        /* \"@openzeppelin/contracts/token/ERC20/ERC20.sol\":3255:3361  function totalSupply() public view virtual override returns (uint256) {... */\n    tag_29:\n        /* \"@openzeppelin/contracts/token/ERC20/ERC20.sol\":3316:3323  uint256 */\n      0x00\n        /* \"@openzeppelin/contracts/token/ERC20/ERC20.sol\":3342:3354  _totalSupply */\n      sload(0x02)\n        /* \"@openzeppelin/contracts/token/ERC20/ERC20.sol\":3335:3354  return _totalSupply */\n      swap1\n      pop\n        /* \"@openzeppelin/contracts/token/ERC20/ERC20.sol\":3255:3361  function totalSupply() public view virtual override returns (uint256) {... */\n      swap1\n      jump\t// out\n        /* \"@openzeppelin/contracts/token/ERC20/ERC20.sol\":5203:5459  function transferFrom(address from, address to, uint256 amount) public virtual override returns (bool) {... */\n    tag_35:\n        /* \"@openzeppelin/contracts/token/ERC20/ERC20.sol\":5300:5304  bool */\n      0x00\n        /* \"@openzeppelin/contracts/token/ERC20/ERC20.sol\":5316:5331  address spender */\n      dup1\n        /* \"@openzeppelin/contracts/token/ERC20/ERC20.sol\":5334:5346  _msgSender() */\n      tag_87\n        /* \"@openzeppelin/contracts/token/ERC20/ERC20.sol\":5334:5344  _msgSender */\n      tag_82\n        /* \"@openzeppelin/contracts/token/ERC20/ERC20.sol\":5334:5346  _msgSender() */\n      jump\t// in\n    tag_87:\n        /* \"@openzeppelin/contracts/token/ERC20/ERC20.sol\":5316:5346  address spender = _msgSender() */\n      swap1\n      pop\n        /* \"@openzeppelin/contracts/token/ERC20/ERC20.sol\":5356:5394  _spendAllowance(from, spender, amount) */\n      tag_88\n        /* \"@openzeppelin/contracts/token/ERC20/ERC20.sol\":5372:5376  from */\n      dup6\n        /* \"@openzeppelin/contracts/token/ERC20/ERC20.sol\":5378:5385  spender */\n      dup3\n        /* \"@openzeppelin/contracts/token/ERC20/ERC20.sol\":5387:5393  amount */\n      dup6\n        /* \"@openzeppelin/contracts/token/ERC20/ERC20.sol\":5356:5371  _spendAllowance */\n      tag_89\n        /* \"@openzeppelin/contracts/token/ERC20/ERC20.sol\":5356:5394  _spendAllowance(from, spender, amount) */\n      jump\t// in\n    tag_88:\n        /* \"@openzeppelin/contracts/token/ERC20/ERC20.sol\":5404:5431  _transfer(from, to, amount) */\n      tag_90\n        /* \"@openzeppelin/contracts/token/ERC20/ERC20.sol\":5414:5418  from */\n      dup6\n        /* \"@openzeppelin/contracts/token/ERC20/ERC20.sol\":5420:5422  to */\n      dup6\n        /* \"@openzeppelin/contracts/token/ERC20/ERC20.sol\":5424:5430  amount */\n      dup6\n        /* \"@openzeppelin/contracts/token/ERC20/ERC20.sol\":5404:5413  _transfer */\n      tag_91\n        /* \"@openzeppelin/contracts/token/ERC20/ERC20.sol\":5404:5431  _transfer(from, to, amount) */\n      jump\t// in\n    tag_90:\n        /* \"@openzeppelin/contracts/token/ERC20/ERC20.sol\":5448:5452  true */\n      0x01\n        /* \"@openzeppelin/contracts/token/ERC20/ERC20.sol\":5441:5452  return true */\n      swap2\n      pop\n      pop\n        /* \"@openzeppelin/contracts/token/ERC20/ERC20.sol\":5203:5459  function transferFrom(address from, address to, uint256 amount) public virtual override returns (bool) {... */\n      swap4\n      swap3\n      pop\n      pop\n      pop\n      jump\t// out\n        /* \"@openzeppelin/contracts/token/ERC20/ERC20.sol\":3104:3195  function decimals() public view virtual override returns (uint8) {... */\n    tag_38:\n        /* \"@openzeppelin/contracts/token/ERC20/ERC20.sol\":3162:3167  uint8 */\n      0x00\n        /* \"@openzeppelin/contracts/token/ERC20/ERC20.sol\":3186:3188  18 */\n      0x12\n        /* \"@openzeppelin/contracts/token/ERC20/ERC20.sol\":3179:3188  return 18 */\n      swap1\n      pop\n        /* \"@openzeppelin/contracts/token/ERC20/ERC20.sol\":3104:3195  function decimals() public view virtual override returns (uint8) {... */\n      swap1\n      jump\t// out\n        /* \"@openzeppelin/contracts/token/ERC20/ERC20.sol\":5854:6088  function increaseAllowance(address spender, uint256 addedValue) public virtual returns (bool) {... */\n    tag_43:\n        /* \"@openzeppelin/contracts/token/ERC20/ERC20.sol\":5942:5946  bool */\n      0x00\n        /* \"@openzeppelin/contracts/token/ERC20/ERC20.sol\":5958:5971  address owner */\n      dup1\n        /* \"@openzeppelin/contracts/token/ERC20/ERC20.sol\":5974:5986  _msgSender() */\n      tag_94\n        /* \"@openzeppelin/contracts/token/ERC20/ERC20.sol\":5974:5984  _msgSender */\n      tag_82\n        /* \"@openzeppelin/contracts/token/ERC20/ERC20.sol\":5974:5986  _msgSender() */\n      jump\t// in\n    tag_94:\n        /* \"@openzeppelin/contracts/token/ERC20/ERC20.sol\":5958:5986  address owner = _msgSender() */\n      swap1\n      pop\n        /* \"@openzeppelin/contracts/token/ERC20/ERC20.sol\":5996:6060  _approve(owner, spender, allowance(owner, spender) + addedValue) */\n      tag_95\n        /* \"@openzeppelin/contracts/token/ERC20/ERC20.sol\":6005:6010  owner */\n      dup2\n        /* \"@openzeppelin/contracts/token/ERC20/ERC20.sol\":6012:6019  spender */\n      dup6\n        /* \"@openzeppelin/contracts/token/ERC20/ERC20.sol\":6049:6059  addedValue */\n      dup6\n        /* \"@openzeppelin/contracts/token/ERC20/ERC20.sol\":6021:6046  allowance(owner, spender) */\n      tag_96\n        /* \"@openzeppelin/contracts/token/ERC20/ERC20.sol\":6031:6036  owner */\n      dup6\n        /* \"@openzeppelin/contracts/token/ERC20/ERC20.sol\":6038:6045  spender */\n      dup10\n        /* \"@openzeppelin/contracts/token/ERC20/ERC20.sol\":6021:6030  allowance */\n      tag_71\n        /* \"@openzeppelin/contracts/token/ERC20/ERC20.sol\":6021:6046  allowance(owner, spender) */\n      jump\t// in\n    tag_96:\n        /* \"@openzeppelin/contracts/token/ERC20/ERC20.sol\":6021:6059  allowance(owner, spender) + addedValue */\n      tag_97\n      swap2\n      swap1\n      tag_98\n      jump\t// in\n    tag_97:\n        /* \"@openzeppelin/contracts/token/ERC20/ERC20.sol\":5996:6004  _approve */\n      tag_84\n        /* \"@openzeppelin/contracts/token/ERC20/ERC20.sol\":5996:6060  _approve(owner, spender, allowance(owner, spender) + addedValue) */\n      jump\t// in\n    tag_95:\n        /* \"@openzeppelin/contracts/token/ERC20/ERC20.sol\":6077:6081  true */\n      0x01\n        /* \"@openzeppelin/contracts/token/ERC20/ERC20.sol\":6070:6081  return true */\n      swap2\n      pop\n      pop\n        /* \"@openzeppelin/contracts/token/ERC20/ERC20.sol\":5854:6088  function increaseAllowance(address spender, uint256 addedValue) public virtual returns (bool) {... */\n      swap3\n      swap2\n      pop\n      pop\n      jump\t// out\n        /* \"contracts/NolanCoin.sol\":205:223  address public ico */\n    tag_46:\n      0x06\n      0x00\n      swap1\n      sload\n      swap1\n      0x0100\n      exp\n      swap1\n      div\n      0xffffffffffffffffffffffffffffffffffffffff\n      and\n      dup2\n      jump\t// out\n        /* \"@openzeppelin/contracts/token/ERC20/ERC20.sol\":3419:3544  function balanceOf(address account) public view virtual override returns (uint256) {... */\n    tag_52:\n        /* \"@openzeppelin/contracts/token/ERC20/ERC20.sol\":3493:3500  uint256 */\n      0x00\n        /* \"@openzeppelin/contracts/token/ERC20/ERC20.sol\":3519:3528  _balances */\n      dup1\n        /* \"@openzeppelin/contracts/token/ERC20/ERC20.sol\":3519:3537  _balances[account] */\n      0x00\n        /* \"@openzeppelin/contracts/token/ERC20/ERC20.sol\":3529:3536  account */\n      dup4\n        /* \"@openzeppelin/contracts/token/ERC20/ERC20.sol\":3519:3537  _balances[account] */\n      0xffffffffffffffffffffffffffffffffffffffff\n      and\n      0xffffffffffffffffffffffffffffffffffffffff\n      and\n      dup2\n      mstore\n      0x20\n      add\n      swap1\n      dup2\n      mstore\n      0x20\n      add\n      0x00\n      keccak256\n      sload\n        /* \"@openzeppelin/contracts/token/ERC20/ERC20.sol\":3512:3537  return _balances[account] */\n      swap1\n      pop\n        /* \"@openzeppelin/contracts/token/ERC20/ERC20.sol\":3419:3544  function balanceOf(address account) public view virtual override returns (uint256) {... */\n      swap2\n      swap1\n      pop\n      jump\t// out\n        /* \"contracts/NolanCoin.sol\":178:198  address public owner */\n    tag_55:\n      0x05\n      0x00\n      swap1\n      sload\n      swap1\n      0x0100\n      exp\n      swap1\n      div\n      0xffffffffffffffffffffffffffffffffffffffff\n      and\n      dup2\n      jump\t// out\n        /* \"@openzeppelin/contracts/token/ERC20/ERC20.sol\":2369:2471  function symbol() public view virtual override returns (string memory) {... */\n    tag_58:\n        /* \"@openzeppelin/contracts/token/ERC20/ERC20.sol\":2425:2438  string memory */\n      0x60\n        /* \"@openzeppelin/contracts/token/ERC20/ERC20.sol\":2457:2464  _symbol */\n      0x04\n        /* \"@openzeppelin/contracts/token/ERC20/ERC20.sol\":2450:2464  return _symbol */\n      dup1\n      sload\n      tag_101\n      swap1\n      tag_75\n      jump\t// in\n    tag_101:\n      dup1\n      0x1f\n      add\n      0x20\n      dup1\n      swap2\n      div\n      mul\n      0x20\n      add\n      mload(0x40)\n      swap1\n      dup2\n      add\n      0x40\n      mstore\n      dup1\n      swap3\n      swap2\n      swap1\n      dup2\n      dup2\n      mstore\n      0x20\n      add\n      dup3\n      dup1\n      sload\n      tag_102\n      swap1\n      tag_75\n      jump\t// in\n    tag_102:\n      dup1\n      iszero\n      tag_103\n      jumpi\n      dup1\n      0x1f\n      lt\n      tag_104\n      jumpi\n      0x0100\n      dup1\n      dup4\n      sload\n      div\n      mul\n      dup4\n      mstore\n      swap2\n      0x20\n      add\n      swap2\n      jump(tag_103)\n    tag_104:\n      dup3\n      add\n      swap2\n      swap1\n      0x00\n      mstore\n      keccak256(0x00, 0x20)\n      swap1\n    tag_105:\n      dup2\n      sload\n      dup2\n      mstore\n      swap1\n      0x01\n      add\n      swap1\n      0x20\n      add\n      dup1\n      dup4\n      gt\n      tag_105\n      jumpi\n      dup3\n      swap1\n      sub\n      0x1f\n      and\n      dup3\n      add\n      swap2\n    tag_103:\n      pop\n      pop\n      pop\n      pop\n      pop\n      swap1\n      pop\n        /* \"@openzeppelin/contracts/token/ERC20/ERC20.sol\":2369:2471  function symbol() public view virtual override returns (string memory) {... */\n      swap1\n      jump\t// out\n        /* \"@openzeppelin/contracts/token/ERC20/ERC20.sol\":6575:7002  function decreaseAllowance(address spender, uint256 subtractedValue) public virtual returns (bool) {... */\n    tag_62:\n        /* \"@openzeppelin/contracts/token/ERC20/ERC20.sol\":6668:6672  bool */\n      0x00\n        /* \"@openzeppelin/contracts/token/ERC20/ERC20.sol\":6684:6697  address owner */\n      dup1\n        /* \"@openzeppelin/contracts/token/ERC20/ERC20.sol\":6700:6712  _msgSender() */\n      tag_107\n        /* \"@openzeppelin/contracts/token/ERC20/ERC20.sol\":6700:6710  _msgSender */\n      tag_82\n        /* \"@openzeppelin/contracts/token/ERC20/ERC20.sol\":6700:6712  _msgSender() */\n      jump\t// in\n    tag_107:\n        /* \"@openzeppelin/contracts/token/ERC20/ERC20.sol\":6684:6712  address owner = _msgSender() */\n      swap1\n      pop\n        /* \"@openzeppelin/contracts/token/ERC20/ERC20.sol\":6722:6746  uint256 currentAllowance */\n      0x00\n        /* \"@openzeppelin/contracts/token/ERC20/ERC20.sol\":6749:6774  allowance(owner, spender) */\n      tag_108\n        /* \"@openzeppelin/contracts/token/ERC20/ERC20.sol\":6759:6764  owner */\n      dup3\n        /* \"@openzeppelin/contracts/token/ERC20/ERC20.sol\":6766:6773  spender */\n      dup7\n        /* \"@openzeppelin/contracts/token/ERC20/ERC20.sol\":6749:6758  allowance */\n      tag_71\n        /* \"@openzeppelin/contracts/token/ERC20/ERC20.sol\":6749:6774  allowance(owner, spender) */\n      jump\t// in\n    tag_108:\n        /* \"@openzeppelin/contracts/token/ERC20/ERC20.sol\":6722:6774  uint256 currentAllowance = allowance(owner, spender) */\n      swap1\n      pop\n        /* \"@openzeppelin/contracts/token/ERC20/ERC20.sol\":6812:6827  subtractedValue */\n      dup4\n        /* \"@openzeppelin/contracts/token/ERC20/ERC20.sol\":6792:6808  currentAllowance */\n      dup2\n        /* \"@openzeppelin/contracts/token/ERC20/ERC20.sol\":6792:6827  currentAllowance >= subtractedValue */\n      lt\n      iszero\n        /* \"@openzeppelin/contracts/token/ERC20/ERC20.sol\":6784:6869  require(currentAllowance >= subtractedValue, \"ERC20: decreased allowance below zero\") */\n      tag_109\n      jumpi\n      mload(0x40)\n      0x08c379a000000000000000000000000000000000000000000000000000000000\n      dup2\n      mstore\n      0x04\n      add\n      tag_110\n      swap1\n      tag_111\n      jump\t// in\n    tag_110:\n      mload(0x40)\n      dup1\n      swap2\n      sub\n      swap1\n      revert\n    tag_109:\n        /* \"@openzeppelin/contracts/token/ERC20/ERC20.sol\":6903:6963  _approve(owner, spender, currentAllowance - subtractedValue) */\n      tag_112\n        /* \"@openzeppelin/contracts/token/ERC20/ERC20.sol\":6912:6917  owner */\n      dup3\n        /* \"@openzeppelin/contracts/token/ERC20/ERC20.sol\":6919:6926  spender */\n      dup7\n        /* \"@openzeppelin/contracts/token/ERC20/ERC20.sol\":6947:6962  subtractedValue */\n      dup7\n        /* \"@openzeppelin/contracts/token/ERC20/ERC20.sol\":6928:6944  currentAllowance */\n      dup5\n        /* \"@openzeppelin/contracts/token/ERC20/ERC20.sol\":6928:6962  currentAllowance - subtractedValue */\n      sub\n        /* \"@openzeppelin/contracts/token/ERC20/ERC20.sol\":6903:6911  _approve */\n      tag_84\n        /* \"@openzeppelin/contracts/token/ERC20/ERC20.sol\":6903:6963  _approve(owner, spender, currentAllowance - subtractedValue) */\n      jump\t// in\n    tag_112:\n        /* \"@openzeppelin/contracts/token/ERC20/ERC20.sol\":6991:6995  true */\n      0x01\n        /* \"@openzeppelin/contracts/token/ERC20/ERC20.sol\":6984:6995  return true */\n      swap3\n      pop\n      pop\n      pop\n        /* \"@openzeppelin/contracts/token/ERC20/ERC20.sol\":6575:7002  function decreaseAllowance(address spender, uint256 subtractedValue) public virtual returns (bool) {... */\n      swap3\n      swap2\n      pop\n      pop\n      jump\t// out\n        /* \"@openzeppelin/contracts/token/ERC20/ERC20.sol\":3740:3929  function transfer(address to, uint256 amount) public virtual override returns (bool) {... */\n    tag_66:\n        /* \"@openzeppelin/contracts/token/ERC20/ERC20.sol\":3819:3823  bool */\n      0x00\n        /* \"@openzeppelin/contracts/token/ERC20/ERC20.sol\":3835:3848  address owner */\n      dup1\n        /* \"@openzeppelin/contracts/token/ERC20/ERC20.sol\":3851:3863  _msgSender() */\n      tag_114\n        /* \"@openzeppelin/contracts/token/ERC20/ERC20.sol\":3851:3861  _msgSender */\n      tag_82\n        /* \"@openzeppelin/contracts/token/ERC20/ERC20.sol\":3851:3863  _msgSender() */\n      jump\t// in\n    tag_114:\n        /* \"@openzeppelin/contracts/token/ERC20/ERC20.sol\":3835:3863  address owner = _msgSender() */\n      swap1\n      pop\n        /* \"@openzeppelin/contracts/token/ERC20/ERC20.sol\":3873:3901  _transfer(owner, to, amount) */\n      tag_115\n        /* \"@openzeppelin/contracts/token/ERC20/ERC20.sol\":3883:3888  owner */\n      dup2\n        /* \"@openzeppelin/contracts/token/ERC20/ERC20.sol\":3890:3892  to */\n      dup6\n        /* \"@openzeppelin/contracts/token/ERC20/ERC20.sol\":3894:3900  amount */\n      dup6\n        /* \"@openzeppelin/contracts/token/ERC20/ERC20.sol\":3873:3882  _transfer */\n      tag_91\n        /* \"@openzeppelin/contracts/token/ERC20/ERC20.sol\":3873:3901  _transfer(owner, to, amount) */\n      jump\t// in\n    tag_115:\n        /* \"@openzeppelin/contracts/token/ERC20/ERC20.sol\":3918:3922  true */\n      0x01\n        /* \"@openzeppelin/contracts/token/ERC20/ERC20.sol\":3911:3922  return true */\n      swap2\n      pop\n      pop\n        /* \"@openzeppelin/contracts/token/ERC20/ERC20.sol\":3740:3929  function transfer(address to, uint256 amount) public virtual override returns (bool) {... */\n      swap3\n      swap2\n      pop\n      pop\n      jump\t// out\n        /* \"@openzeppelin/contracts/token/ERC20/ERC20.sol\":3987:4136  function allowance(address owner, address spender) public view virtual override returns (uint256) {... */\n    tag_71:\n        /* \"@openzeppelin/contracts/token/ERC20/ERC20.sol\":4076:4083  uint256 */\n      0x00\n        /* \"@openzeppelin/contracts/token/ERC20/ERC20.sol\":4102:4113  _allowances */\n      0x01\n        /* \"@openzeppelin/contracts/token/ERC20/ERC20.sol\":4102:4120  _allowances[owner] */\n      0x00\n        /* \"@openzeppelin/contracts/token/ERC20/ERC20.sol\":4114:4119  owner */\n      dup5\n        /* \"@openzeppelin/contracts/token/ERC20/ERC20.sol\":4102:4120  _allowances[owner] */\n      0xffffffffffffffffffffffffffffffffffffffff\n      and\n      0xffffffffffffffffffffffffffffffffffffffff\n      and\n      dup2\n      mstore\n      0x20\n      add\n      swap1\n      dup2\n      mstore\n      0x20\n      add\n      0x00\n      keccak256\n        /* \"@openzeppelin/contracts/token/ERC20/ERC20.sol\":4102:4129  _allowances[owner][spender] */\n      0x00\n        /* \"@openzeppelin/contracts/token/ERC20/ERC20.sol\":4121:4128  spender */\n      dup4\n        /* \"@openzeppelin/contracts/token/ERC20/ERC20.sol\":4102:4129  _allowances[owner][spender] */\n      0xffffffffffffffffffffffffffffffffffffffff\n      and\n      0xffffffffffffffffffffffffffffffffffffffff\n      and\n      dup2\n      mstore\n      0x20\n      add\n      swap1\n      dup2\n      mstore\n      0x20\n      add\n      0x00\n      keccak256\n      sload\n        /* \"@openzeppelin/contracts/token/ERC20/ERC20.sol\":4095:4129  return _allowances[owner][spender] */\n      swap1\n      pop\n        /* \"@openzeppelin/contracts/token/ERC20/ERC20.sol\":3987:4136  function allowance(address owner, address spender) public view virtual override returns (uint256) {... */\n      swap3\n      swap2\n      pop\n      pop\n      jump\t// out\n        /* \"@openzeppelin/contracts/utils/Context.sol\":640:736  function _msgSender() internal view virtual returns (address) {... */\n    tag_82:\n        /* \"@openzeppelin/contracts/utils/Context.sol\":693:700  address */\n      0x00\n        /* \"@openzeppelin/contracts/utils/Context.sol\":719:729  msg.sender */\n      caller\n        /* \"@openzeppelin/contracts/utils/Context.sol\":712:729  return msg.sender */\n      swap1\n      pop\n        /* \"@openzeppelin/contracts/utils/Context.sol\":640:736  function _msgSender() internal view virtual returns (address) {... */\n      swap1\n      jump\t// out\n        /* \"@openzeppelin/contracts/token/ERC20/ERC20.sol\":10457:10797  function _approve(address owner, address spender, uint256 amount) internal virtual {... */\n    tag_84:\n        /* \"@openzeppelin/contracts/token/ERC20/ERC20.sol\":10575:10576  0 */\n      0x00\n        /* \"@openzeppelin/contracts/token/ERC20/ERC20.sol\":10558:10577  owner != address(0) */\n      0xffffffffffffffffffffffffffffffffffffffff\n      and\n        /* \"@openzeppelin/contracts/token/ERC20/ERC20.sol\":10558:10563  owner */\n      dup4\n        /* \"@openzeppelin/contracts/token/ERC20/ERC20.sol\":10558:10577  owner != address(0) */\n      0xffffffffffffffffffffffffffffffffffffffff\n      and\n      sub\n        /* \"@openzeppelin/contracts/token/ERC20/ERC20.sol\":10550:10618  require(owner != address(0), \"ERC20: approve from the zero address\") */\n      tag_119\n      jumpi\n      mload(0x40)\n      0x08c379a000000000000000000000000000000000000000000000000000000000\n      dup2\n      mstore\n      0x04\n      add\n      tag_120\n      swap1\n      tag_121\n      jump\t// in\n    tag_120:\n      mload(0x40)\n      dup1\n      swap2\n      sub\n      swap1\n      revert\n    tag_119:\n        /* \"@openzeppelin/contracts/token/ERC20/ERC20.sol\":10655:10656  0 */\n      0x00\n        /* \"@openzeppelin/contracts/token/ERC20/ERC20.sol\":10636:10657  spender != address(0) */\n      0xffffffffffffffffffffffffffffffffffffffff\n      and\n        /* \"@openzeppelin/contracts/token/ERC20/ERC20.sol\":10636:10643  spender */\n      dup3\n        /* \"@openzeppelin/contracts/token/ERC20/ERC20.sol\":10636:10657  spender != address(0) */\n      0xffffffffffffffffffffffffffffffffffffffff\n      and\n      sub\n        /* \"@openzeppelin/contracts/token/ERC20/ERC20.sol\":10628:10696  require(spender != address(0), \"ERC20: approve to the zero address\") */\n      tag_122\n      jumpi\n      mload(0x40)\n      0x08c379a000000000000000000000000000000000000000000000000000000000\n      dup2\n      mstore\n      0x04\n      add\n      tag_123\n      swap1\n      tag_124\n      jump\t// in\n    tag_123:\n      mload(0x40)\n      dup1\n      swap2\n      sub\n      swap1\n      revert\n    tag_122:\n        /* \"@openzeppelin/contracts/token/ERC20/ERC20.sol\":10737:10743  amount */\n      dup1\n        /* \"@openzeppelin/contracts/token/ERC20/ERC20.sol\":10707:10718  _allowances */\n      0x01\n        /* \"@openzeppelin/contracts/token/ERC20/ERC20.sol\":10707:10725  _allowances[owner] */\n      0x00\n        /* \"@openzeppelin/contracts/token/ERC20/ERC20.sol\":10719:10724  owner */\n      dup6\n        /* \"@openzeppelin/contracts/token/ERC20/ERC20.sol\":10707:10725  _allowances[owner] */\n      0xffffffffffffffffffffffffffffffffffffffff\n      and\n      0xffffffffffffffffffffffffffffffffffffffff\n      and\n      dup2\n      mstore\n      0x20\n      add\n      swap1\n      dup2\n      mstore\n      0x20\n      add\n      0x00\n      keccak256\n        /* \"@openzeppelin/contracts/token/ERC20/ERC20.sol\":10707:10734  _allowances[owner][spender] */\n      0x00\n        /* \"@openzeppelin/contracts/token/ERC20/ERC20.sol\":10726:10733  spender */\n      dup5\n        /* \"@openzeppelin/contracts/token/ERC20/ERC20.sol\":10707:10734  _allowances[owner][spender] */\n      0xffffffffffffffffffffffffffffffffffffffff\n      and\n      0xffffffffffffffffffffffffffffffffffffffff\n      and\n      dup2\n      mstore\n      0x20\n      add\n      swap1\n      dup2\n      mstore\n      0x20\n      add\n      0x00\n      keccak256\n        /* \"@openzeppelin/contracts/token/ERC20/ERC20.sol\":10707:10743  _allowances[owner][spender] = amount */\n      dup2\n      swap1\n      sstore\n      pop\n        /* \"@openzeppelin/contracts/token/ERC20/ERC20.sol\":10774:10781  spender */\n      dup2\n        /* \"@openzeppelin/contracts/token/ERC20/ERC20.sol\":10758:10790  Approval(owner, spender, amount) */\n      0xffffffffffffffffffffffffffffffffffffffff\n      and\n        /* \"@openzeppelin/contracts/token/ERC20/ERC20.sol\":10767:10772  owner */\n      dup4\n        /* \"@openzeppelin/contracts/token/ERC20/ERC20.sol\":10758:10790  Approval(owner, spender, amount) */\n      0xffffffffffffffffffffffffffffffffffffffff\n      and\n      0x8c5be1e5ebec7d5bd14f71427d1e84f3dd0314c0f7b2291e5b200ac8c7c3b925\n        /* \"@openzeppelin/contracts/token/ERC20/ERC20.sol\":10783:10789  amount */\n      dup4\n        /* \"@openzeppelin/contracts/token/ERC20/ERC20.sol\":10758:10790  Approval(owner, spender, amount) */\n      mload(0x40)\n      tag_125\n      swap2\n      swap1\n      tag_31\n      jump\t// in\n    tag_125:\n      mload(0x40)\n      dup1\n      swap2\n      sub\n      swap1\n      log3\n        /* \"@openzeppelin/contracts/token/ERC20/ERC20.sol\":10457:10797  function _approve(address owner, address spender, uint256 amount) internal virtual {... */\n      pop\n      pop\n      pop\n      jump\t// out\n        /* \"@openzeppelin/contracts/token/ERC20/ERC20.sol\":11078:11489  function _spendAllowance(address owner, address spender, uint256 amount) internal virtual {... */\n    tag_89:\n        /* \"@openzeppelin/contracts/token/ERC20/ERC20.sol\":11178:11202  uint256 currentAllowance */\n      0x00\n        /* \"@openzeppelin/contracts/token/ERC20/ERC20.sol\":11205:11230  allowance(owner, spender) */\n      tag_127\n        /* \"@openzeppelin/contracts/token/ERC20/ERC20.sol\":11215:11220  owner */\n      dup5\n        /* \"@openzeppelin/contracts/token/ERC20/ERC20.sol\":11222:11229  spender */\n      dup5\n        /* \"@openzeppelin/contracts/token/ERC20/ERC20.sol\":11205:11214  allowance */\n      tag_71\n        /* \"@openzeppelin/contracts/token/ERC20/ERC20.sol\":11205:11230  allowance(owner, spender) */\n      jump\t// in\n    tag_127:\n        /* \"@openzeppelin/contracts/token/ERC20/ERC20.sol\":11178:11230  uint256 currentAllowance = allowance(owner, spender) */\n      swap1\n      pop\n        /* \"@openzeppelin/contracts/token/ERC20/ERC20.sol\":11264:11281  type(uint256).max */\n      0xffffffffffffffffffffffffffffffffffffffffffffffffffffffffffffffff\n        /* \"@openzeppelin/contracts/token/ERC20/ERC20.sol\":11244:11260  currentAllowance */\n      dup2\n        /* \"@openzeppelin/contracts/token/ERC20/ERC20.sol\":11244:11281  currentAllowance != type(uint256).max */\n      eq\n        /* \"@openzeppelin/contracts/token/ERC20/ERC20.sol\":11240:11483  if (currentAllowance != type(uint256).max) {... */\n      tag_128\n      jumpi\n        /* \"@openzeppelin/contracts/token/ERC20/ERC20.sol\":11325:11331  amount */\n      dup2\n        /* \"@openzeppelin/contracts/token/ERC20/ERC20.sol\":11305:11321  currentAllowance */\n      dup2\n        /* \"@openzeppelin/contracts/token/ERC20/ERC20.sol\":11305:11331  currentAllowance >= amount */\n      lt\n      iszero\n        /* \"@openzeppelin/contracts/token/ERC20/ERC20.sol\":11297:11365  require(currentAllowance >= amount, \"ERC20: insufficient allowance\") */\n      tag_129\n      jumpi\n      mload(0x40)\n      0x08c379a000000000000000000000000000000000000000000000000000000000\n      dup2\n      mstore\n      0x04\n      add\n      tag_130\n      swap1\n      tag_131\n      jump\t// in\n    tag_130:\n      mload(0x40)\n      dup1\n      swap2\n      sub\n      swap1\n      revert\n    tag_129:\n        /* \"@openzeppelin/contracts/token/ERC20/ERC20.sol\":11407:11458  _approve(owner, spender, currentAllowance - amount) */\n      tag_132\n        /* \"@openzeppelin/contracts/token/ERC20/ERC20.sol\":11416:11421  owner */\n      dup5\n        /* \"@openzeppelin/contracts/token/ERC20/ERC20.sol\":11423:11430  spender */\n      dup5\n        /* \"@openzeppelin/contracts/token/ERC20/ERC20.sol\":11451:11457  amount */\n      dup5\n        /* \"@openzeppelin/contracts/token/ERC20/ERC20.sol\":11432:11448  currentAllowance */\n      dup5\n        /* \"@openzeppelin/contracts/token/ERC20/ERC20.sol\":11432:11457  currentAllowance - amount */\n      sub\n        /* \"@openzeppelin/contracts/token/ERC20/ERC20.sol\":11407:11415  _approve */\n      tag_84\n        /* \"@openzeppelin/contracts/token/ERC20/ERC20.sol\":11407:11458  _approve(owner, spender, currentAllowance - amount) */\n      jump\t// in\n    tag_132:\n        /* \"@openzeppelin/contracts/token/ERC20/ERC20.sol\":11240:11483  if (currentAllowance != type(uint256).max) {... */\n    tag_128:\n        /* \"@openzeppelin/contracts/token/ERC20/ERC20.sol\":11168:11489  {... */\n      pop\n        /* \"@openzeppelin/contracts/token/ERC20/ERC20.sol\":11078:11489  function _spendAllowance(address owner, address spender, uint256 amount) internal virtual {... */\n      pop\n      pop\n      pop\n      jump\t// out\n        /* \"@openzeppelin/contracts/token/ERC20/ERC20.sol\":7456:8244  function _transfer(address from, address to, uint256 amount) internal virtual {... */\n    tag_91:\n        /* \"@openzeppelin/contracts/token/ERC20/ERC20.sol\":7568:7569  0 */\n      0x00\n        /* \"@openzeppelin/contracts/token/ERC20/ERC20.sol\":7552:7570  from != address(0) */\n      0xffffffffffffffffffffffffffffffffffffffff\n      and\n        /* \"@openzeppelin/contracts/token/ERC20/ERC20.sol\":7552:7556  from */\n      dup4\n        /* \"@openzeppelin/contracts/token/ERC20/ERC20.sol\":7552:7570  from != address(0) */\n      0xffffffffffffffffffffffffffffffffffffffff\n      and\n      sub\n        /* \"@openzeppelin/contracts/token/ERC20/ERC20.sol\":7544:7612  require(from != address(0), \"ERC20: transfer from the zero address\") */\n      tag_134\n      jumpi\n      mload(0x40)\n      0x08c379a000000000000000000000000000000000000000000000000000000000\n      dup2\n      mstore\n      0x04\n      add\n      tag_135\n      swap1\n      tag_136\n      jump\t// in\n    tag_135:\n      mload(0x40)\n      dup1\n      swap2\n      sub\n      swap1\n      revert\n    tag_134:\n        /* \"@openzeppelin/contracts/token/ERC20/ERC20.sol\":7644:7645  0 */\n      0x00\n        /* \"@openzeppelin/contracts/token/ERC20/ERC20.sol\":7630:7646  to != address(0) */\n      0xffffffffffffffffffffffffffffffffffffffff\n      and\n        /* \"@openzeppelin/contracts/token/ERC20/ERC20.sol\":7630:7632  to */\n      dup3\n        /* \"@openzeppelin/contracts/token/ERC20/ERC20.sol\":7630:7646  to != address(0) */\n      0xffffffffffffffffffffffffffffffffffffffff\n      and\n      sub\n        /* \"@openzeppelin/contracts/token/ERC20/ERC20.sol\":7622:7686  require(to != address(0), \"ERC20: transfer to the zero address\") */\n      tag_137\n      jumpi\n      mload(0x40)\n      0x08c379a000000000000000000000000000000000000000000000000000000000\n      dup2\n      mstore\n      0x04\n      add\n      tag_138\n      swap1\n      tag_139\n      jump\t// in\n    tag_138:\n      mload(0x40)\n      dup1\n      swap2\n      sub\n      swap1\n      revert\n    tag_137:\n        /* \"@openzeppelin/contracts/token/ERC20/ERC20.sol\":7697:7735  _beforeTokenTransfer(from, to, amount) */\n      tag_140\n        /* \"@openzeppelin/contracts/token/ERC20/ERC20.sol\":7718:7722  from */\n      dup4\n        /* \"@openzeppelin/contracts/token/ERC20/ERC20.sol\":7724:7726  to */\n      dup4\n        /* \"@openzeppelin/contracts/token/ERC20/ERC20.sol\":7728:7734  amount */\n      dup4\n        /* \"@openzeppelin/contracts/token/ERC20/ERC20.sol\":7697:7717  _beforeTokenTransfer */\n      tag_141\n        /* \"@openzeppelin/contracts/token/ERC20/ERC20.sol\":7697:7735  _beforeTokenTransfer(from, to, amount) */\n      jump\t// in\n    tag_140:\n        /* \"@openzeppelin/contracts/token/ERC20/ERC20.sol\":7746:7765  uint256 fromBalance */\n      0x00\n        /* \"@openzeppelin/contracts/token/ERC20/ERC20.sol\":7768:7777  _balances */\n      dup1\n        /* \"@openzeppelin/contracts/token/ERC20/ERC20.sol\":7768:7783  _balances[from] */\n      0x00\n        /* \"@openzeppelin/contracts/token/ERC20/ERC20.sol\":7778:7782  from */\n      dup6\n        /* \"@openzeppelin/contracts/token/ERC20/ERC20.sol\":7768:7783  _balances[from] */\n      0xffffffffffffffffffffffffffffffffffffffff\n      and\n      0xffffffffffffffffffffffffffffffffffffffff\n      and\n      dup2\n      mstore\n      0x20\n      add\n      swap1\n      dup2\n      mstore\n      0x20\n      add\n      0x00\n      keccak256\n      sload\n        /* \"@openzeppelin/contracts/token/ERC20/ERC20.sol\":7746:7783  uint256 fromBalance = _balances[from] */\n      swap1\n      pop\n        /* \"@openzeppelin/contracts/token/ERC20/ERC20.sol\":7816:7822  amount */\n      dup2\n        /* \"@openzeppelin/contracts/token/ERC20/ERC20.sol\":7801:7812  fromBalance */\n      dup2\n        /* \"@openzeppelin/contracts/token/ERC20/ERC20.sol\":7801:7822  fromBalance >= amount */\n      lt\n      iszero\n        /* \"@openzeppelin/contracts/token/ERC20/ERC20.sol\":7793:7865  require(fromBalance >= amount, \"ERC20: transfer amount exceeds balance\") */\n      tag_142\n      jumpi\n      mload(0x40)\n      0x08c379a000000000000000000000000000000000000000000000000000000000\n      dup2\n      mstore\n      0x04\n      add\n      tag_143\n      swap1\n      tag_144\n      jump\t// in\n    tag_143:\n      mload(0x40)\n      dup1\n      swap2\n      sub\n      swap1\n      revert\n    tag_142:\n        /* \"@openzeppelin/contracts/token/ERC20/ERC20.sol\":7931:7937  amount */\n      dup2\n        /* \"@openzeppelin/contracts/token/ERC20/ERC20.sol\":7917:7928  fromBalance */\n      dup2\n        /* \"@openzeppelin/contracts/token/ERC20/ERC20.sol\":7917:7937  fromBalance - amount */\n      sub\n        /* \"@openzeppelin/contracts/token/ERC20/ERC20.sol\":7899:7908  _balances */\n      0x00\n        /* \"@openzeppelin/contracts/token/ERC20/ERC20.sol\":7899:7914  _balances[from] */\n      dup1\n        /* \"@openzeppelin/contracts/token/ERC20/ERC20.sol\":7909:7913  from */\n      dup7\n        /* \"@openzeppelin/contracts/token/ERC20/ERC20.sol\":7899:7914  _balances[from] */\n      0xffffffffffffffffffffffffffffffffffffffff\n      and\n      0xffffffffffffffffffffffffffffffffffffffff\n      and\n      dup2\n      mstore\n      0x20\n      add\n      swap1\n      dup2\n      mstore\n      0x20\n      add\n      0x00\n      keccak256\n        /* \"@openzeppelin/contracts/token/ERC20/ERC20.sol\":7899:7937  _balances[from] = fromBalance - amount */\n      dup2\n      swap1\n      sstore\n      pop\n        /* \"@openzeppelin/contracts/token/ERC20/ERC20.sol\":8131:8137  amount */\n      dup2\n        /* \"@openzeppelin/contracts/token/ERC20/ERC20.sol\":8114:8123  _balances */\n      0x00\n        /* \"@openzeppelin/contracts/token/ERC20/ERC20.sol\":8114:8127  _balances[to] */\n      dup1\n        /* \"@openzeppelin/contracts/token/ERC20/ERC20.sol\":8124:8126  to */\n      dup6\n        /* \"@openzeppelin/contracts/token/ERC20/ERC20.sol\":8114:8127  _balances[to] */\n      0xffffffffffffffffffffffffffffffffffffffff\n      and\n      0xffffffffffffffffffffffffffffffffffffffff\n      and\n      dup2\n      mstore\n      0x20\n      add\n      swap1\n      dup2\n      mstore\n      0x20\n      add\n      0x00\n      keccak256\n      0x00\n        /* \"@openzeppelin/contracts/token/ERC20/ERC20.sol\":8114:8137  _balances[to] += amount */\n      dup3\n      dup3\n      sload\n      add\n      swap3\n      pop\n      pop\n      dup2\n      swap1\n      sstore\n      pop\n        /* \"@openzeppelin/contracts/token/ERC20/ERC20.sol\":8178:8180  to */\n      dup3\n        /* \"@openzeppelin/contracts/token/ERC20/ERC20.sol\":8163:8189  Transfer(from, to, amount) */\n      0xffffffffffffffffffffffffffffffffffffffff\n      and\n        /* \"@openzeppelin/contracts/token/ERC20/ERC20.sol\":8172:8176  from */\n      dup5\n        /* \"@openzeppelin/contracts/token/ERC20/ERC20.sol\":8163:8189  Transfer(from, to, amount) */\n      0xffffffffffffffffffffffffffffffffffffffff\n      and\n      0xddf252ad1be2c89b69c2b068fc378daa952ba7f163c4a11628f55a4df523b3ef\n        /* \"@openzeppelin/contracts/token/ERC20/ERC20.sol\":8182:8188  amount */\n      dup5\n        /* \"@openzeppelin/contracts/token/ERC20/ERC20.sol\":8163:8189  Transfer(from, to, amount) */\n      mload(0x40)\n      tag_145\n      swap2\n      swap1\n      tag_31\n      jump\t// in\n    tag_145:\n      mload(0x40)\n      dup1\n      swap2\n      sub\n      swap1\n      log3\n        /* \"@openzeppelin/contracts/token/ERC20/ERC20.sol\":8200:8237  _afterTokenTransfer(from, to, amount) */\n      tag_146\n        /* \"@openzeppelin/contracts/token/ERC20/ERC20.sol\":8220:8224  from */\n      dup5\n        /* \"@openzeppelin/contracts/token/ERC20/ERC20.sol\":8226:8228  to */\n      dup5\n        /* \"@openzeppelin/contracts/token/ERC20/ERC20.sol\":8230:8236  amount */\n      dup5\n        /* \"@openzeppelin/contracts/token/ERC20/ERC20.sol\":8200:8219  _afterTokenTransfer */\n      tag_147\n        /* \"@openzeppelin/contracts/token/ERC20/ERC20.sol\":8200:8237  _afterTokenTransfer(from, to, amount) */\n      jump\t// in\n    tag_146:\n        /* \"@openzeppelin/contracts/token/ERC20/ERC20.sol\":7534:8244  {... */\n      pop\n        /* \"@openzeppelin/contracts/token/ERC20/ERC20.sol\":7456:8244  function _transfer(address from, address to, uint256 amount) internal virtual {... */\n      pop\n      pop\n      pop\n      jump\t// out\n        /* \"@openzeppelin/contracts/token/ERC20/ERC20.sol\":12073:12164  function _beforeTokenTransfer(address from, address to, uint256 amount) internal virtual {} */\n    tag_141:\n      pop\n      pop\n      pop\n      jump\t// out\n        /* \"@openzeppelin/contracts/token/ERC20/ERC20.sol\":12752:12842  function _afterTokenTransfer(address from, address to, uint256 amount) internal virtual {} */\n    tag_147:\n      pop\n      pop\n      pop\n      jump\t// out\n        /* \"#utility.yul\":7:106   */\n    tag_150:\n        /* \"#utility.yul\":59:65   */\n      0x00\n        /* \"#utility.yul\":93:98   */\n      dup2\n        /* \"#utility.yul\":87:99   */\n      mload\n        /* \"#utility.yul\":77:99   */\n      swap1\n      pop\n        /* \"#utility.yul\":7:106   */\n      swap2\n      swap1\n      pop\n      jump\t// out\n        /* \"#utility.yul\":112:281   */\n    tag_151:\n        /* \"#utility.yul\":196:207   */\n      0x00\n        /* \"#utility.yul\":230:236   */\n      dup3\n        /* \"#utility.yul\":225:228   */\n      dup3\n        /* \"#utility.yul\":218:237   */\n      mstore\n        /* \"#utility.yul\":270:274   */\n      0x20\n        /* \"#utility.yul\":265:268   */\n      dup3\n        /* \"#utility.yul\":261:275   */\n      add\n        /* \"#utility.yul\":246:275   */\n      swap1\n      pop\n        /* \"#utility.yul\":112:281   */\n      swap3\n      swap2\n      pop\n      pop\n      jump\t// out\n        /* \"#utility.yul\":287:594   */\n    tag_152:\n        /* \"#utility.yul\":355:356   */\n      0x00\n        /* \"#utility.yul\":365:478   */\n    tag_191:\n        /* \"#utility.yul\":379:385   */\n      dup4\n        /* \"#utility.yul\":376:377   */\n      dup2\n        /* \"#utility.yul\":373:386   */\n      lt\n        /* \"#utility.yul\":365:478   */\n      iszero\n      tag_193\n      jumpi\n        /* \"#utility.yul\":464:465   */\n      dup1\n        /* \"#utility.yul\":459:462   */\n      dup3\n        /* \"#utility.yul\":455:466   */\n      add\n        /* \"#utility.yul\":449:467   */\n      mload\n        /* \"#utility.yul\":445:446   */\n      dup2\n        /* \"#utility.yul\":440:443   */\n      dup5\n        /* \"#utility.yul\":436:447   */\n      add\n        /* \"#utility.yul\":429:468   */\n      mstore\n        /* \"#utility.yul\":401:403   */\n      0x20\n        /* \"#utility.yul\":398:399   */\n      dup2\n        /* \"#utility.yul\":394:404   */\n      add\n        /* \"#utility.yul\":389:404   */\n      swap1\n      pop\n        /* \"#utility.yul\":365:478   */\n      jump(tag_191)\n    tag_193:\n        /* \"#utility.yul\":496:502   */\n      dup4\n        /* \"#utility.yul\":493:494   */\n      dup2\n        /* \"#utility.yul\":490:503   */\n      gt\n        /* \"#utility.yul\":487:588   */\n      iszero\n      tag_194\n      jumpi\n        /* \"#utility.yul\":576:577   */\n      0x00\n        /* \"#utility.yul\":567:573   */\n      dup5\n        /* \"#utility.yul\":562:565   */\n      dup5\n        /* \"#utility.yul\":558:574   */\n      add\n        /* \"#utility.yul\":551:578   */\n      mstore\n        /* \"#utility.yul\":487:588   */\n    tag_194:\n        /* \"#utility.yul\":336:594   */\n      pop\n        /* \"#utility.yul\":287:594   */\n      pop\n      pop\n      pop\n      jump\t// out\n        /* \"#utility.yul\":600:702   */\n    tag_153:\n        /* \"#utility.yul\":641:647   */\n      0x00\n        /* \"#utility.yul\":692:694   */\n      0x1f\n        /* \"#utility.yul\":688:695   */\n      not\n        /* \"#utility.yul\":683:685   */\n      0x1f\n        /* \"#utility.yul\":676:681   */\n      dup4\n        /* \"#utility.yul\":672:686   */\n      add\n        /* \"#utility.yul\":668:696   */\n      and\n        /* \"#utility.yul\":658:696   */\n      swap1\n      pop\n        /* \"#utility.yul\":600:702   */\n      swap2\n      swap1\n      pop\n      jump\t// out\n        /* \"#utility.yul\":708:1072   */\n    tag_154:\n        /* \"#utility.yul\":796:799   */\n      0x00\n        /* \"#utility.yul\":824:863   */\n      tag_197\n        /* \"#utility.yul\":857:862   */\n      dup3\n        /* \"#utility.yul\":824:863   */\n      tag_150\n      jump\t// in\n    tag_197:\n        /* \"#utility.yul\":879:950   */\n      tag_198\n        /* \"#utility.yul\":943:949   */\n      dup2\n        /* \"#utility.yul\":938:941   */\n      dup6\n        /* \"#utility.yul\":879:950   */\n      tag_151\n      jump\t// in\n    tag_198:\n        /* \"#utility.yul\":872:950   */\n      swap4\n      pop\n        /* \"#utility.yul\":959:1011   */\n      tag_199\n        /* \"#utility.yul\":1004:1010   */\n      dup2\n        /* \"#utility.yul\":999:1002   */\n      dup6\n        /* \"#utility.yul\":992:996   */\n      0x20\n        /* \"#utility.yul\":985:990   */\n      dup7\n        /* \"#utility.yul\":981:997   */\n      add\n        /* \"#utility.yul\":959:1011   */\n      tag_152\n      jump\t// in\n    tag_199:\n        /* \"#utility.yul\":1036:1065   */\n      tag_200\n        /* \"#utility.yul\":1058:1064   */\n      dup2\n        /* \"#utility.yul\":1036:1065   */\n      tag_153\n      jump\t// in\n    tag_200:\n        /* \"#utility.yul\":1031:1034   */\n      dup5\n        /* \"#utility.yul\":1027:1066   */\n      add\n        /* \"#utility.yul\":1020:1066   */\n      swap2\n      pop\n        /* \"#utility.yul\":800:1072   */\n      pop\n        /* \"#utility.yul\":708:1072   */\n      swap3\n      swap2\n      pop\n      pop\n      jump\t// out\n        /* \"#utility.yul\":1078:1391   */\n    tag_21:\n        /* \"#utility.yul\":1191:1195   */\n      0x00\n        /* \"#utility.yul\":1229:1231   */\n      0x20\n        /* \"#utility.yul\":1218:1227   */\n      dup3\n        /* \"#utility.yul\":1214:1232   */\n      add\n        /* \"#utility.yul\":1206:1232   */\n      swap1\n      pop\n        /* \"#utility.yul\":1278:1287   */\n      dup2\n        /* \"#utility.yul\":1272:1276   */\n      dup2\n        /* \"#utility.yul\":1268:1288   */\n      sub\n        /* \"#utility.yul\":1264:1265   */\n      0x00\n        /* \"#utility.yul\":1253:1262   */\n      dup4\n        /* \"#utility.yul\":1249:1266   */\n      add\n        /* \"#utility.yul\":1242:1289   */\n      mstore\n        /* \"#utility.yul\":1306:1384   */\n      tag_202\n        /* \"#utility.yul\":1379:1383   */\n      dup2\n        /* \"#utility.yul\":1370:1376   */\n      dup5\n        /* \"#utility.yul\":1306:1384   */\n      tag_154\n      jump\t// in\n    tag_202:\n        /* \"#utility.yul\":1298:1384   */\n      swap1\n      pop\n        /* \"#utility.yul\":1078:1391   */\n      swap3\n      swap2\n      pop\n      pop\n      jump\t// out\n        /* \"#utility.yul\":1478:1595   */\n    tag_156:\n        /* \"#utility.yul\":1587:1588   */\n      0x00\n        /* \"#utility.yul\":1584:1585   */\n      dup1\n        /* \"#utility.yul\":1577:1589   */\n      revert\n        /* \"#utility.yul\":1724:1850   */\n    tag_158:\n        /* \"#utility.yul\":1761:1768   */\n      0x00\n        /* \"#utility.yul\":1801:1843   */\n      0xffffffffffffffffffffffffffffffffffffffff\n        /* \"#utility.yul\":1794:1799   */\n      dup3\n        /* \"#utility.yul\":1790:1844   */\n      and\n        /* \"#utility.yul\":1779:1844   */\n      swap1\n      pop\n        /* \"#utility.yul\":1724:1850   */\n      swap2\n      swap1\n      pop\n      jump\t// out\n        /* \"#utility.yul\":1856:1952   */\n    tag_159:\n        /* \"#utility.yul\":1893:1900   */\n      0x00\n        /* \"#utility.yul\":1922:1946   */\n      tag_208\n        /* \"#utility.yul\":1940:1945   */\n      dup3\n        /* \"#utility.yul\":1922:1946   */\n      tag_158\n      jump\t// in\n    tag_208:\n        /* \"#utility.yul\":1911:1946   */\n      swap1\n      pop\n        /* \"#utility.yul\":1856:1952   */\n      swap2\n      swap1\n      pop\n      jump\t// out\n        /* \"#utility.yul\":1958:2080   */\n    tag_160:\n        /* \"#utility.yul\":2031:2055   */\n      tag_210\n        /* \"#utility.yul\":2049:2054   */\n      dup2\n        /* \"#utility.yul\":2031:2055   */\n      tag_159\n      jump\t// in\n    tag_210:\n        /* \"#utility.yul\":2024:2029   */\n      dup2\n        /* \"#utility.yul\":2021:2056   */\n      eq\n        /* \"#utility.yul\":2011:2074   */\n      tag_211\n      jumpi\n        /* \"#utility.yul\":2070:2071   */\n      0x00\n        /* \"#utility.yul\":2067:2068   */\n      dup1\n        /* \"#utility.yul\":2060:2072   */\n      revert\n        /* \"#utility.yul\":2011:2074   */\n    tag_211:\n        /* \"#utility.yul\":1958:2080   */\n      pop\n      jump\t// out\n        /* \"#utility.yul\":2086:2225   */\n    tag_161:\n        /* \"#utility.yul\":2132:2137   */\n      0x00\n        /* \"#utility.yul\":2170:2176   */\n      dup2\n        /* \"#utility.yul\":2157:2177   */\n      calldataload\n        /* \"#utility.yul\":2148:2177   */\n      swap1\n      pop\n        /* \"#utility.yul\":2186:2219   */\n      tag_213\n        /* \"#utility.yul\":2213:2218   */\n      dup2\n        /* \"#utility.yul\":2186:2219   */\n      tag_160\n      jump\t// in\n    tag_213:\n        /* \"#utility.yul\":2086:2225   */\n      swap3\n      swap2\n      pop\n      pop\n      jump\t// out\n        /* \"#utility.yul\":2231:2308   */\n    tag_162:\n        /* \"#utility.yul\":2268:2275   */\n      0x00\n        /* \"#utility.yul\":2297:2302   */\n      dup2\n        /* \"#utility.yul\":2286:2302   */\n      swap1\n      pop\n        /* \"#utility.yul\":2231:2308   */\n      swap2\n      swap1\n      pop\n      jump\t// out\n        /* \"#utility.yul\":2314:2436   */\n    tag_163:\n        /* \"#utility.yul\":2387:2411   */\n      tag_216\n        /* \"#utility.yul\":2405:2410   */\n      dup2\n        /* \"#utility.yul\":2387:2411   */\n      tag_162\n      jump\t// in\n    tag_216:\n        /* \"#utility.yul\":2380:2385   */\n      dup2\n        /* \"#utility.yul\":2377:2412   */\n      eq\n        /* \"#utility.yul\":2367:2430   */\n      tag_217\n      jumpi\n        /* \"#utility.yul\":2426:2427   */\n      0x00\n        /* \"#utility.yul\":2423:2424   */\n      dup1\n        /* \"#utility.yul\":2416:2428   */\n      revert\n        /* \"#utility.yul\":2367:2430   */\n    tag_217:\n        /* \"#utility.yul\":2314:2436   */\n      pop\n      jump\t// out\n        /* \"#utility.yul\":2442:2581   */\n    tag_164:\n        /* \"#utility.yul\":2488:2493   */\n      0x00\n        /* \"#utility.yul\":2526:2532   */\n      dup2\n        /* \"#utility.yul\":2513:2533   */\n      calldataload\n        /* \"#utility.yul\":2504:2533   */\n      swap1\n      pop\n        /* \"#utility.yul\":2542:2575   */\n      tag_219\n        /* \"#utility.yul\":2569:2574   */\n      dup2\n        /* \"#utility.yul\":2542:2575   */\n      tag_163\n      jump\t// in\n    tag_219:\n        /* \"#utility.yul\":2442:2581   */\n      swap3\n      swap2\n      pop\n      pop\n      jump\t// out\n        /* \"#utility.yul\":2587:3061   */\n    tag_24:\n        /* \"#utility.yul\":2655:2661   */\n      0x00\n        /* \"#utility.yul\":2663:2669   */\n      dup1\n        /* \"#utility.yul\":2712:2714   */\n      0x40\n        /* \"#utility.yul\":2700:2709   */\n      dup4\n        /* \"#utility.yul\":2691:2698   */\n      dup6\n        /* \"#utility.yul\":2687:2710   */\n      sub\n        /* \"#utility.yul\":2683:2715   */\n      slt\n        /* \"#utility.yul\":2680:2799   */\n      iszero\n      tag_221\n      jumpi\n        /* \"#utility.yul\":2718:2797   */\n      tag_222\n      tag_156\n      jump\t// in\n    tag_222:\n        /* \"#utility.yul\":2680:2799   */\n    tag_221:\n        /* \"#utility.yul\":2838:2839   */\n      0x00\n        /* \"#utility.yul\":2863:2916   */\n      tag_223\n        /* \"#utility.yul\":2908:2915   */\n      dup6\n        /* \"#utility.yul\":2899:2905   */\n      dup3\n        /* \"#utility.yul\":2888:2897   */\n      dup7\n        /* \"#utility.yul\":2884:2906   */\n      add\n        /* \"#utility.yul\":2863:2916   */\n      tag_161\n      jump\t// in\n    tag_223:\n        /* \"#utility.yul\":2853:2916   */\n      swap3\n      pop\n        /* \"#utility.yul\":2809:2926   */\n      pop\n        /* \"#utility.yul\":2965:2967   */\n      0x20\n        /* \"#utility.yul\":2991:3044   */\n      tag_224\n        /* \"#utility.yul\":3036:3043   */\n      dup6\n        /* \"#utility.yul\":3027:3033   */\n      dup3\n        /* \"#utility.yul\":3016:3025   */\n      dup7\n        /* \"#utility.yul\":3012:3034   */\n      add\n        /* \"#utility.yul\":2991:3044   */\n      tag_164\n      jump\t// in\n    tag_224:\n        /* \"#utility.yul\":2981:3044   */\n      swap2\n      pop\n        /* \"#utility.yul\":2936:3054   */\n      pop\n        /* \"#utility.yul\":2587:3061   */\n      swap3\n      pop\n      swap3\n      swap1\n      pop\n      jump\t// out\n        /* \"#utility.yul\":3067:3157   */\n    tag_165:\n        /* \"#utility.yul\":3101:3108   */\n      0x00\n        /* \"#utility.yul\":3144:3149   */\n      dup2\n        /* \"#utility.yul\":3137:3150   */\n      iszero\n        /* \"#utility.yul\":3130:3151   */\n      iszero\n        /* \"#utility.yul\":3119:3151   */\n      swap1\n      pop\n        /* \"#utility.yul\":3067:3157   */\n      swap2\n      swap1\n      pop\n      jump\t// out\n        /* \"#utility.yul\":3163:3272   */\n    tag_166:\n        /* \"#utility.yul\":3244:3265   */\n      tag_227\n        /* \"#utility.yul\":3259:3264   */\n      dup2\n        /* \"#utility.yul\":3244:3265   */\n      tag_165\n      jump\t// in\n    tag_227:\n        /* \"#utility.yul\":3239:3242   */\n      dup3\n        /* \"#utility.yul\":3232:3266   */\n      mstore\n        /* \"#utility.yul\":3163:3272   */\n      pop\n      pop\n      jump\t// out\n        /* \"#utility.yul\":3278:3488   */\n    tag_27:\n        /* \"#utility.yul\":3365:3369   */\n      0x00\n        /* \"#utility.yul\":3403:3405   */\n      0x20\n        /* \"#utility.yul\":3392:3401   */\n      dup3\n        /* \"#utility.yul\":3388:3406   */\n      add\n        /* \"#utility.yul\":3380:3406   */\n      swap1\n      pop\n        /* \"#utility.yul\":3416:3481   */\n      tag_229\n        /* \"#utility.yul\":3478:3479   */\n      0x00\n        /* \"#utility.yul\":3467:3476   */\n      dup4\n        /* \"#utility.yul\":3463:3480   */\n      add\n        /* \"#utility.yul\":3454:3460   */\n      dup5\n        /* \"#utility.yul\":3416:3481   */\n      tag_166\n      jump\t// in\n    tag_229:\n        /* \"#utility.yul\":3278:3488   */\n      swap3\n      swap2\n      pop\n      pop\n      jump\t// out\n        /* \"#utility.yul\":3494:3612   */\n    tag_167:\n        /* \"#utility.yul\":3581:3605   */\n      tag_231\n        /* \"#utility.yul\":3599:3604   */\n      dup2\n        /* \"#utility.yul\":3581:3605   */\n      tag_162\n      jump\t// in\n    tag_231:\n        /* \"#utility.yul\":3576:3579   */\n      dup3\n        /* \"#utility.yul\":3569:3606   */\n      mstore\n        /* \"#utility.yul\":3494:3612   */\n      pop\n      pop\n      jump\t// out\n        /* \"#utility.yul\":3618:3840   */\n    tag_31:\n        /* \"#utility.yul\":3711:3715   */\n      0x00\n        /* \"#utility.yul\":3749:3751   */\n      0x20\n        /* \"#utility.yul\":3738:3747   */\n      dup3\n        /* \"#utility.yul\":3734:3752   */\n      add\n        /* \"#utility.yul\":3726:3752   */\n      swap1\n      pop\n        /* \"#utility.yul\":3762:3833   */\n      tag_233\n        /* \"#utility.yul\":3830:3831   */\n      0x00\n        /* \"#utility.yul\":3819:3828   */\n      dup4\n        /* \"#utility.yul\":3815:3832   */\n      add\n        /* \"#utility.yul\":3806:3812   */\n      dup5\n        /* \"#utility.yul\":3762:3833   */\n      tag_167\n      jump\t// in\n    tag_233:\n        /* \"#utility.yul\":3618:3840   */\n      swap3\n      swap2\n      pop\n      pop\n      jump\t// out\n        /* \"#utility.yul\":3846:4465   */\n    tag_34:\n        /* \"#utility.yul\":3923:3929   */\n      0x00\n        /* \"#utility.yul\":3931:3937   */\n      dup1\n        /* \"#utility.yul\":3939:3945   */\n      0x00\n        /* \"#utility.yul\":3988:3990   */\n      0x60\n        /* \"#utility.yul\":3976:3985   */\n      dup5\n        /* \"#utility.yul\":3967:3974   */\n      dup7\n        /* \"#utility.yul\":3963:3986   */\n      sub\n        /* \"#utility.yul\":3959:3991   */\n      slt\n        /* \"#utility.yul\":3956:4075   */\n      iszero\n      tag_235\n      jumpi\n        /* \"#utility.yul\":3994:4073   */\n      tag_236\n      tag_156\n      jump\t// in\n    tag_236:\n        /* \"#utility.yul\":3956:4075   */\n    tag_235:\n        /* \"#utility.yul\":4114:4115   */\n      0x00\n        /* \"#utility.yul\":4139:4192   */\n      tag_237\n        /* \"#utility.yul\":4184:4191   */\n      dup7\n        /* \"#utility.yul\":4175:4181   */\n      dup3\n        /* \"#utility.yul\":4164:4173   */\n      dup8\n        /* \"#utility.yul\":4160:4182   */\n      add\n        /* \"#utility.yul\":4139:4192   */\n      tag_161\n      jump\t// in\n    tag_237:\n        /* \"#utility.yul\":4129:4192   */\n      swap4\n      pop\n        /* \"#utility.yul\":4085:4202   */\n      pop\n        /* \"#utility.yul\":4241:4243   */\n      0x20\n        /* \"#utility.yul\":4267:4320   */\n      tag_238\n        /* \"#utility.yul\":4312:4319   */\n      dup7\n        /* \"#utility.yul\":4303:4309   */\n      dup3\n        /* \"#utility.yul\":4292:4301   */\n      dup8\n        /* \"#utility.yul\":4288:4310   */\n      add\n        /* \"#utility.yul\":4267:4320   */\n      tag_161\n      jump\t// in\n    tag_238:\n        /* \"#utility.yul\":4257:4320   */\n      swap3\n      pop\n        /* \"#utility.yul\":4212:4330   */\n      pop\n        /* \"#utility.yul\":4369:4371   */\n      0x40\n        /* \"#utility.yul\":4395:4448   */\n      tag_239\n        /* \"#utility.yul\":4440:4447   */\n      dup7\n        /* \"#utility.yul\":4431:4437   */\n      dup3\n        /* \"#utility.yul\":4420:4429   */\n      dup8\n        /* \"#utility.yul\":4416:4438   */\n      add\n        /* \"#utility.yul\":4395:4448   */\n      tag_164\n      jump\t// in\n    tag_239:\n        /* \"#utility.yul\":4385:4448   */\n      swap2\n      pop\n        /* \"#utility.yul\":4340:4458   */\n      pop\n        /* \"#utility.yul\":3846:4465   */\n      swap3\n      pop\n      swap3\n      pop\n      swap3\n      jump\t// out\n        /* \"#utility.yul\":4471:4557   */\n    tag_168:\n        /* \"#utility.yul\":4506:4513   */\n      0x00\n        /* \"#utility.yul\":4546:4550   */\n      0xff\n        /* \"#utility.yul\":4539:4544   */\n      dup3\n        /* \"#utility.yul\":4535:4551   */\n      and\n        /* \"#utility.yul\":4524:4551   */\n      swap1\n      pop\n        /* \"#utility.yul\":4471:4557   */\n      swap2\n      swap1\n      pop\n      jump\t// out\n        /* \"#utility.yul\":4563:4675   */\n    tag_169:\n        /* \"#utility.yul\":4646:4668   */\n      tag_242\n        /* \"#utility.yul\":4662:4667   */\n      dup2\n        /* \"#utility.yul\":4646:4668   */\n      tag_168\n      jump\t// in\n    tag_242:\n        /* \"#utility.yul\":4641:4644   */\n      dup3\n        /* \"#utility.yul\":4634:4669   */\n      mstore\n        /* \"#utility.yul\":4563:4675   */\n      pop\n      pop\n      jump\t// out\n        /* \"#utility.yul\":4681:4895   */\n    tag_40:\n        /* \"#utility.yul\":4770:4774   */\n      0x00\n        /* \"#utility.yul\":4808:4810   */\n      0x20\n        /* \"#utility.yul\":4797:4806   */\n      dup3\n        /* \"#utility.yul\":4793:4811   */\n      add\n        /* \"#utility.yul\":4785:4811   */\n      swap1\n      pop\n        /* \"#utility.yul\":4821:4888   */\n      tag_244\n        /* \"#utility.yul\":4885:4886   */\n      0x00\n        /* \"#utility.yul\":4874:4883   */\n      dup4\n        /* \"#utility.yul\":4870:4887   */\n      add\n        /* \"#utility.yul\":4861:4867   */\n      dup5\n        /* \"#utility.yul\":4821:4888   */\n      tag_169\n      jump\t// in\n    tag_244:\n        /* \"#utility.yul\":4681:4895   */\n      swap3\n      swap2\n      pop\n      pop\n      jump\t// out\n        /* \"#utility.yul\":4901:5019   */\n    tag_170:\n        /* \"#utility.yul\":4988:5012   */\n      tag_246\n        /* \"#utility.yul\":5006:5011   */\n      dup2\n        /* \"#utility.yul\":4988:5012   */\n      tag_159\n      jump\t// in\n    tag_246:\n        /* \"#utility.yul\":4983:4986   */\n      dup3\n        /* \"#utility.yul\":4976:5013   */\n      mstore\n        /* \"#utility.yul\":4901:5019   */\n      pop\n      pop\n      jump\t// out\n        /* \"#utility.yul\":5025:5247   */\n    tag_48:\n        /* \"#utility.yul\":5118:5122   */\n      0x00\n        /* \"#utility.yul\":5156:5158   */\n      0x20\n        /* \"#utility.yul\":5145:5154   */\n      dup3\n        /* \"#utility.yul\":5141:5159   */\n      add\n        /* \"#utility.yul\":5133:5159   */\n      swap1\n      pop\n        /* \"#utility.yul\":5169:5240   */\n      tag_248\n        /* \"#utility.yul\":5237:5238   */\n      0x00\n        /* \"#utility.yul\":5226:5235   */\n      dup4\n        /* \"#utility.yul\":5222:5239   */\n      add\n        /* \"#utility.yul\":5213:5219   */\n      dup5\n        /* \"#utility.yul\":5169:5240   */\n      tag_170\n      jump\t// in\n    tag_248:\n        /* \"#utility.yul\":5025:5247   */\n      swap3\n      swap2\n      pop\n      pop\n      jump\t// out\n        /* \"#utility.yul\":5253:5582   */\n    tag_51:\n        /* \"#utility.yul\":5312:5318   */\n      0x00\n        /* \"#utility.yul\":5361:5363   */\n      0x20\n        /* \"#utility.yul\":5349:5358   */\n      dup3\n        /* \"#utility.yul\":5340:5347   */\n      dup5\n        /* \"#utility.yul\":5336:5359   */\n      sub\n        /* \"#utility.yul\":5332:5364   */\n      slt\n        /* \"#utility.yul\":5329:5448   */\n      iszero\n      tag_250\n      jumpi\n        /* \"#utility.yul\":5367:5446   */\n      tag_251\n      tag_156\n      jump\t// in\n    tag_251:\n        /* \"#utility.yul\":5329:5448   */\n    tag_250:\n        /* \"#utility.yul\":5487:5488   */\n      0x00\n        /* \"#utility.yul\":5512:5565   */\n      tag_252\n        /* \"#utility.yul\":5557:5564   */\n      dup5\n        /* \"#utility.yul\":5548:5554   */\n      dup3\n        /* \"#utility.yul\":5537:5546   */\n      dup6\n        /* \"#utility.yul\":5533:5555   */\n      add\n        /* \"#utility.yul\":5512:5565   */\n      tag_161\n      jump\t// in\n    tag_252:\n        /* \"#utility.yul\":5502:5565   */\n      swap2\n      pop\n        /* \"#utility.yul\":5458:5575   */\n      pop\n        /* \"#utility.yul\":5253:5582   */\n      swap3\n      swap2\n      pop\n      pop\n      jump\t// out\n        /* \"#utility.yul\":5588:6062   */\n    tag_70:\n        /* \"#utility.yul\":5656:5662   */\n      0x00\n        /* \"#utility.yul\":5664:5670   */\n      dup1\n        /* \"#utility.yul\":5713:5715   */\n      0x40\n        /* \"#utility.yul\":5701:5710   */\n      dup4\n        /* \"#utility.yul\":5692:5699   */\n      dup6\n        /* \"#utility.yul\":5688:5711   */\n      sub\n        /* \"#utility.yul\":5684:5716   */\n      slt\n        /* \"#utility.yul\":5681:5800   */\n      iszero\n      tag_254\n      jumpi\n        /* \"#utility.yul\":5719:5798   */\n      tag_255\n      tag_156\n      jump\t// in\n    tag_255:\n        /* \"#utility.yul\":5681:5800   */\n    tag_254:\n        /* \"#utility.yul\":5839:5840   */\n      0x00\n        /* \"#utility.yul\":5864:5917   */\n      tag_256\n        /* \"#utility.yul\":5909:5916   */\n      dup6\n        /* \"#utility.yul\":5900:5906   */\n      dup3\n        /* \"#utility.yul\":5889:5898   */\n      dup7\n        /* \"#utility.yul\":5885:5907   */\n      add\n        /* \"#utility.yul\":5864:5917   */\n      tag_161\n      jump\t// in\n    tag_256:\n        /* \"#utility.yul\":5854:5917   */\n      swap3\n      pop\n        /* \"#utility.yul\":5810:5927   */\n      pop\n        /* \"#utility.yul\":5966:5968   */\n      0x20\n        /* \"#utility.yul\":5992:6045   */\n      tag_257\n        /* \"#utility.yul\":6037:6044   */\n      dup6\n        /* \"#utility.yul\":6028:6034   */\n      dup3\n        /* \"#utility.yul\":6017:6026   */\n      dup7\n        /* \"#utility.yul\":6013:6035   */\n      add\n        /* \"#utility.yul\":5992:6045   */\n      tag_161\n      jump\t// in\n    tag_257:\n        /* \"#utility.yul\":5982:6045   */\n      swap2\n      pop\n        /* \"#utility.yul\":5937:6055   */\n      pop\n        /* \"#utility.yul\":5588:6062   */\n      swap3\n      pop\n      swap3\n      swap1\n      pop\n      jump\t// out\n        /* \"#utility.yul\":6068:6248   */\n    tag_171:\n        /* \"#utility.yul\":6116:6193   */\n      0x4e487b7100000000000000000000000000000000000000000000000000000000\n        /* \"#utility.yul\":6113:6114   */\n      0x00\n        /* \"#utility.yul\":6106:6194   */\n      mstore\n        /* \"#utility.yul\":6213:6217   */\n      0x22\n        /* \"#utility.yul\":6210:6211   */\n      0x04\n        /* \"#utility.yul\":6203:6218   */\n      mstore\n        /* \"#utility.yul\":6237:6241   */\n      0x24\n        /* \"#utility.yul\":6234:6235   */\n      0x00\n        /* \"#utility.yul\":6227:6242   */\n      revert\n        /* \"#utility.yul\":6254:6574   */\n    tag_75:\n        /* \"#utility.yul\":6298:6304   */\n      0x00\n        /* \"#utility.yul\":6335:6336   */\n      0x02\n        /* \"#utility.yul\":6329:6333   */\n      dup3\n        /* \"#utility.yul\":6325:6337   */\n      div\n        /* \"#utility.yul\":6315:6337   */\n      swap1\n      pop\n        /* \"#utility.yul\":6382:6383   */\n      0x01\n        /* \"#utility.yul\":6376:6380   */\n      dup3\n        /* \"#utility.yul\":6372:6384   */\n      and\n        /* \"#utility.yul\":6403:6421   */\n      dup1\n        /* \"#utility.yul\":6393:6474   */\n      tag_260\n      jumpi\n        /* \"#utility.yul\":6459:6463   */\n      0x7f\n        /* \"#utility.yul\":6451:6457   */\n      dup3\n        /* \"#utility.yul\":6447:6464   */\n      and\n        /* \"#utility.yul\":6437:6464   */\n      swap2\n      pop\n        /* \"#utility.yul\":6393:6474   */\n    tag_260:\n        /* \"#utility.yul\":6521:6523   */\n      0x20\n        /* \"#utility.yul\":6513:6519   */\n      dup3\n        /* \"#utility.yul\":6510:6524   */\n      lt\n        /* \"#utility.yul\":6490:6508   */\n      dup2\n        /* \"#utility.yul\":6487:6525   */\n      sub\n        /* \"#utility.yul\":6484:6568   */\n      tag_261\n      jumpi\n        /* \"#utility.yul\":6540:6558   */\n      tag_262\n      tag_171\n      jump\t// in\n    tag_262:\n        /* \"#utility.yul\":6484:6568   */\n    tag_261:\n        /* \"#utility.yul\":6305:6574   */\n      pop\n        /* \"#utility.yul\":6254:6574   */\n      swap2\n      swap1\n      pop\n      jump\t// out\n        /* \"#utility.yul\":6580:6760   */\n    tag_172:\n        /* \"#utility.yul\":6628:6705   */\n      0x4e487b7100000000000000000000000000000000000000000000000000000000\n        /* \"#utility.yul\":6625:6626   */\n      0x00\n        /* \"#utility.yul\":6618:6706   */\n      mstore\n        /* \"#utility.yul\":6725:6729   */\n      0x11\n        /* \"#utility.yul\":6722:6723   */\n      0x04\n        /* \"#utility.yul\":6715:6730   */\n      mstore\n        /* \"#utility.yul\":6749:6753   */\n      0x24\n        /* \"#utility.yul\":6746:6747   */\n      0x00\n        /* \"#utility.yul\":6739:6754   */\n      revert\n        /* \"#utility.yul\":6766:7071   */\n    tag_98:\n        /* \"#utility.yul\":6806:6809   */\n      0x00\n        /* \"#utility.yul\":6825:6845   */\n      tag_265\n        /* \"#utility.yul\":6843:6844   */\n      dup3\n        /* \"#utility.yul\":6825:6845   */\n      tag_162\n      jump\t// in\n    tag_265:\n        /* \"#utility.yul\":6820:6845   */\n      swap2\n      pop\n        /* \"#utility.yul\":6859:6879   */\n      tag_266\n        /* \"#utility.yul\":6877:6878   */\n      dup4\n        /* \"#utility.yul\":6859:6879   */\n      tag_162\n      jump\t// in\n    tag_266:\n        /* \"#utility.yul\":6854:6879   */\n      swap3\n      pop\n        /* \"#utility.yul\":7013:7014   */\n      dup3\n        /* \"#utility.yul\":6945:7011   */\n      0xffffffffffffffffffffffffffffffffffffffffffffffffffffffffffffffff\n        /* \"#utility.yul\":6941:7015   */\n      sub\n        /* \"#utility.yul\":6938:6939   */\n      dup3\n        /* \"#utility.yul\":6935:7016   */\n      gt\n        /* \"#utility.yul\":6932:7039   */\n      iszero\n      tag_267\n      jumpi\n        /* \"#utility.yul\":7019:7037   */\n      tag_268\n      tag_172\n      jump\t// in\n    tag_268:\n        /* \"#utility.yul\":6932:7039   */\n    tag_267:\n        /* \"#utility.yul\":7063:7064   */\n      dup3\n        /* \"#utility.yul\":7060:7061   */\n      dup3\n        /* \"#utility.yul\":7056:7065   */\n      add\n        /* \"#utility.yul\":7049:7065   */\n      swap1\n      pop\n        /* \"#utility.yul\":6766:7071   */\n      swap3\n      swap2\n      pop\n      pop\n      jump\t// out\n        /* \"#utility.yul\":7077:7301   */\n    tag_173:\n        /* \"#utility.yul\":7217:7251   */\n      0x45524332303a2064656372656173656420616c6c6f77616e63652062656c6f77\n        /* \"#utility.yul\":7213:7214   */\n      0x00\n        /* \"#utility.yul\":7205:7211   */\n      dup3\n        /* \"#utility.yul\":7201:7215   */\n      add\n        /* \"#utility.yul\":7194:7252   */\n      mstore\n        /* \"#utility.yul\":7286:7293   */\n      0x207a65726f000000000000000000000000000000000000000000000000000000\n        /* \"#utility.yul\":7281:7283   */\n      0x20\n        /* \"#utility.yul\":7273:7279   */\n      dup3\n        /* \"#utility.yul\":7269:7284   */\n      add\n        /* \"#utility.yul\":7262:7294   */\n      mstore\n        /* \"#utility.yul\":7077:7301   */\n      pop\n      jump\t// out\n        /* \"#utility.yul\":7307:7673   */\n    tag_174:\n        /* \"#utility.yul\":7449:7452   */\n      0x00\n        /* \"#utility.yul\":7470:7537   */\n      tag_271\n        /* \"#utility.yul\":7534:7536   */\n      0x25\n        /* \"#utility.yul\":7529:7532   */\n      dup4\n        /* \"#utility.yul\":7470:7537   */\n      tag_151\n      jump\t// in\n    tag_271:\n        /* \"#utility.yul\":7463:7537   */\n      swap2\n      pop\n        /* \"#utility.yul\":7546:7639   */\n      tag_272\n        /* \"#utility.yul\":7635:7638   */\n      dup3\n        /* \"#utility.yul\":7546:7639   */\n      tag_173\n      jump\t// in\n    tag_272:\n        /* \"#utility.yul\":7664:7666   */\n      0x40\n        /* \"#utility.yul\":7659:7662   */\n      dup3\n        /* \"#utility.yul\":7655:7667   */\n      add\n        /* \"#utility.yul\":7648:7667   */\n      swap1\n      pop\n        /* \"#utility.yul\":7307:7673   */\n      swap2\n      swap1\n      pop\n      jump\t// out\n        /* \"#utility.yul\":7679:8098   */\n    tag_111:\n        /* \"#utility.yul\":7845:7849   */\n      0x00\n        /* \"#utility.yul\":7883:7885   */\n      0x20\n        /* \"#utility.yul\":7872:7881   */\n      dup3\n        /* \"#utility.yul\":7868:7886   */\n      add\n        /* \"#utility.yul\":7860:7886   */\n      swap1\n      pop\n        /* \"#utility.yul\":7932:7941   */\n      dup2\n        /* \"#utility.yul\":7926:7930   */\n      dup2\n        /* \"#utility.yul\":7922:7942   */\n      sub\n        /* \"#utility.yul\":7918:7919   */\n      0x00\n        /* \"#utility.yul\":7907:7916   */\n      dup4\n        /* \"#utility.yul\":7903:7920   */\n      add\n        /* \"#utility.yul\":7896:7943   */\n      mstore\n        /* \"#utility.yul\":7960:8091   */\n      tag_274\n        /* \"#utility.yul\":8086:8090   */\n      dup2\n        /* \"#utility.yul\":7960:8091   */\n      tag_174\n      jump\t// in\n    tag_274:\n        /* \"#utility.yul\":7952:8091   */\n      swap1\n      pop\n        /* \"#utility.yul\":7679:8098   */\n      swap2\n      swap1\n      pop\n      jump\t// out\n        /* \"#utility.yul\":8104:8327   */\n    tag_175:\n        /* \"#utility.yul\":8244:8278   */\n      0x45524332303a20617070726f76652066726f6d20746865207a65726f20616464\n        /* \"#utility.yul\":8240:8241   */\n      0x00\n        /* \"#utility.yul\":8232:8238   */\n      dup3\n        /* \"#utility.yul\":8228:8242   */\n      add\n        /* \"#utility.yul\":8221:8279   */\n      mstore\n        /* \"#utility.yul\":8313:8319   */\n      0x7265737300000000000000000000000000000000000000000000000000000000\n        /* \"#utility.yul\":8308:8310   */\n      0x20\n        /* \"#utility.yul\":8300:8306   */\n      dup3\n        /* \"#utility.yul\":8296:8311   */\n      add\n        /* \"#utility.yul\":8289:8320   */\n      mstore\n        /* \"#utility.yul\":8104:8327   */\n      pop\n      jump\t// out\n        /* \"#utility.yul\":8333:8699   */\n    tag_176:\n        /* \"#utility.yul\":8475:8478   */\n      0x00\n        /* \"#utility.yul\":8496:8563   */\n      tag_277\n        /* \"#utility.yul\":8560:8562   */\n      0x24\n        /* \"#utility.yul\":8555:8558   */\n      dup4\n        /* \"#utility.yul\":8496:8563   */\n      tag_151\n      jump\t// in\n    tag_277:\n        /* \"#utility.yul\":8489:8563   */\n      swap2\n      pop\n        /* \"#utility.yul\":8572:8665   */\n      tag_278\n        /* \"#utility.yul\":8661:8664   */\n      dup3\n        /* \"#utility.yul\":8572:8665   */\n      tag_175\n      jump\t// in\n    tag_278:\n        /* \"#utility.yul\":8690:8692   */\n      0x40\n        /* \"#utility.yul\":8685:8688   */\n      dup3\n        /* \"#utility.yul\":8681:8693   */\n      add\n        /* \"#utility.yul\":8674:8693   */\n      swap1\n      pop\n        /* \"#utility.yul\":8333:8699   */\n      swap2\n      swap1\n      pop\n      jump\t// out\n        /* \"#utility.yul\":8705:9124   */\n    tag_121:\n        /* \"#utility.yul\":8871:8875   */\n      0x00\n        /* \"#utility.yul\":8909:8911   */\n      0x20\n        /* \"#utility.yul\":8898:8907   */\n      dup3\n        /* \"#utility.yul\":8894:8912   */\n      add\n        /* \"#utility.yul\":8886:8912   */\n      swap1\n      pop\n        /* \"#utility.yul\":8958:8967   */\n      dup2\n        /* \"#utility.yul\":8952:8956   */\n      dup2\n        /* \"#utility.yul\":8948:8968   */\n      sub\n        /* \"#utility.yul\":8944:8945   */\n      0x00\n        /* \"#utility.yul\":8933:8942   */\n      dup4\n        /* \"#utility.yul\":8929:8946   */\n      add\n        /* \"#utility.yul\":8922:8969   */\n      mstore\n        /* \"#utility.yul\":8986:9117   */\n      tag_280\n        /* \"#utility.yul\":9112:9116   */\n      dup2\n        /* \"#utility.yul\":8986:9117   */\n      tag_176\n      jump\t// in\n    tag_280:\n        /* \"#utility.yul\":8978:9117   */\n      swap1\n      pop\n        /* \"#utility.yul\":8705:9124   */\n      swap2\n      swap1\n      pop\n      jump\t// out\n        /* \"#utility.yul\":9130:9351   */\n    tag_177:\n        /* \"#utility.yul\":9270:9304   */\n      0x45524332303a20617070726f766520746f20746865207a65726f206164647265\n        /* \"#utility.yul\":9266:9267   */\n      0x00\n        /* \"#utility.yul\":9258:9264   */\n      dup3\n        /* \"#utility.yul\":9254:9268   */\n      add\n        /* \"#utility.yul\":9247:9305   */\n      mstore\n        /* \"#utility.yul\":9339:9343   */\n      0x7373000000000000000000000000000000000000000000000000000000000000\n        /* \"#utility.yul\":9334:9336   */\n      0x20\n        /* \"#utility.yul\":9326:9332   */\n      dup3\n        /* \"#utility.yul\":9322:9337   */\n      add\n        /* \"#utility.yul\":9315:9344   */\n      mstore\n        /* \"#utility.yul\":9130:9351   */\n      pop\n      jump\t// out\n        /* \"#utility.yul\":9357:9723   */\n    tag_178:\n        /* \"#utility.yul\":9499:9502   */\n      0x00\n        /* \"#utility.yul\":9520:9587   */\n      tag_283\n        /* \"#utility.yul\":9584:9586   */\n      0x22\n        /* \"#utility.yul\":9579:9582   */\n      dup4\n        /* \"#utility.yul\":9520:9587   */\n      tag_151\n      jump\t// in\n    tag_283:\n        /* \"#utility.yul\":9513:9587   */\n      swap2\n      pop\n        /* \"#utility.yul\":9596:9689   */\n      tag_284\n        /* \"#utility.yul\":9685:9688   */\n      dup3\n        /* \"#utility.yul\":9596:9689   */\n      tag_177\n      jump\t// in\n    tag_284:\n        /* \"#utility.yul\":9714:9716   */\n      0x40\n        /* \"#utility.yul\":9709:9712   */\n      dup3\n        /* \"#utility.yul\":9705:9717   */\n      add\n        /* \"#utility.yul\":9698:9717   */\n      swap1\n      pop\n        /* \"#utility.yul\":9357:9723   */\n      swap2\n      swap1\n      pop\n      jump\t// out\n        /* \"#utility.yul\":9729:10148   */\n    tag_124:\n        /* \"#utility.yul\":9895:9899   */\n      0x00\n        /* \"#utility.yul\":9933:9935   */\n      0x20\n        /* \"#utility.yul\":9922:9931   */\n      dup3\n        /* \"#utility.yul\":9918:9936   */\n      add\n        /* \"#utility.yul\":9910:9936   */\n      swap1\n      pop\n        /* \"#utility.yul\":9982:9991   */\n      dup2\n        /* \"#utility.yul\":9976:9980   */\n      dup2\n        /* \"#utility.yul\":9972:9992   */\n      sub\n        /* \"#utility.yul\":9968:9969   */\n      0x00\n        /* \"#utility.yul\":9957:9966   */\n      dup4\n        /* \"#utility.yul\":9953:9970   */\n      add\n        /* \"#utility.yul\":9946:9993   */\n      mstore\n        /* \"#utility.yul\":10010:10141   */\n      tag_286\n        /* \"#utility.yul\":10136:10140   */\n      dup2\n        /* \"#utility.yul\":10010:10141   */\n      tag_178\n      jump\t// in\n    tag_286:\n        /* \"#utility.yul\":10002:10141   */\n      swap1\n      pop\n        /* \"#utility.yul\":9729:10148   */\n      swap2\n      swap1\n      pop\n      jump\t// out\n        /* \"#utility.yul\":10154:10333   */\n    tag_179:\n        /* \"#utility.yul\":10294:10325   */\n      0x45524332303a20696e73756666696369656e7420616c6c6f77616e6365000000\n        /* \"#utility.yul\":10290:10291   */\n      0x00\n        /* \"#utility.yul\":10282:10288   */\n      dup3\n        /* \"#utility.yul\":10278:10292   */\n      add\n        /* \"#utility.yul\":10271:10326   */\n      mstore\n        /* \"#utility.yul\":10154:10333   */\n      pop\n      jump\t// out\n        /* \"#utility.yul\":10339:10705   */\n    tag_180:\n        /* \"#utility.yul\":10481:10484   */\n      0x00\n        /* \"#utility.yul\":10502:10569   */\n      tag_289\n        /* \"#utility.yul\":10566:10568   */\n      0x1d\n        /* \"#utility.yul\":10561:10564   */\n      dup4\n        /* \"#utility.yul\":10502:10569   */\n      tag_151\n      jump\t// in\n    tag_289:\n        /* \"#utility.yul\":10495:10569   */\n      swap2\n      pop\n        /* \"#utility.yul\":10578:10671   */\n      tag_290\n        /* \"#utility.yul\":10667:10670   */\n      dup3\n        /* \"#utility.yul\":10578:10671   */\n      tag_179\n      jump\t// in\n    tag_290:\n        /* \"#utility.yul\":10696:10698   */\n      0x20\n        /* \"#utility.yul\":10691:10694   */\n      dup3\n        /* \"#utility.yul\":10687:10699   */\n      add\n        /* \"#utility.yul\":10680:10699   */\n      swap1\n      pop\n        /* \"#utility.yul\":10339:10705   */\n      swap2\n      swap1\n      pop\n      jump\t// out\n        /* \"#utility.yul\":10711:11130   */\n    tag_131:\n        /* \"#utility.yul\":10877:10881   */\n      0x00\n        /* \"#utility.yul\":10915:10917   */\n      0x20\n        /* \"#utility.yul\":10904:10913   */\n      dup3\n        /* \"#utility.yul\":10900:10918   */\n      add\n        /* \"#utility.yul\":10892:10918   */\n      swap1\n      pop\n        /* \"#utility.yul\":10964:10973   */\n      dup2\n        /* \"#utility.yul\":10958:10962   */\n      dup2\n        /* \"#utility.yul\":10954:10974   */\n      sub\n        /* \"#utility.yul\":10950:10951   */\n      0x00\n        /* \"#utility.yul\":10939:10948   */\n      dup4\n        /* \"#utility.yul\":10935:10952   */\n      add\n        /* \"#utility.yul\":10928:10975   */\n      mstore\n        /* \"#utility.yul\":10992:11123   */\n      tag_292\n        /* \"#utility.yul\":11118:11122   */\n      dup2\n        /* \"#utility.yul\":10992:11123   */\n      tag_180\n      jump\t// in\n    tag_292:\n        /* \"#utility.yul\":10984:11123   */\n      swap1\n      pop\n        /* \"#utility.yul\":10711:11130   */\n      swap2\n      swap1\n      pop\n      jump\t// out\n        /* \"#utility.yul\":11136:11360   */\n    tag_181:\n        /* \"#utility.yul\":11276:11310   */\n      0x45524332303a207472616e736665722066726f6d20746865207a65726f206164\n        /* \"#utility.yul\":11272:11273   */\n      0x00\n        /* \"#utility.yul\":11264:11270   */\n      dup3\n        /* \"#utility.yul\":11260:11274   */\n      add\n        /* \"#utility.yul\":11253:11311   */\n      mstore\n        /* \"#utility.yul\":11345:11352   */\n      0x6472657373000000000000000000000000000000000000000000000000000000\n        /* \"#utility.yul\":11340:11342   */\n      0x20\n        /* \"#utility.yul\":11332:11338   */\n      dup3\n        /* \"#utility.yul\":11328:11343   */\n      add\n        /* \"#utility.yul\":11321:11353   */\n      mstore\n        /* \"#utility.yul\":11136:11360   */\n      pop\n      jump\t// out\n        /* \"#utility.yul\":11366:11732   */\n    tag_182:\n        /* \"#utility.yul\":11508:11511   */\n      0x00\n        /* \"#utility.yul\":11529:11596   */\n      tag_295\n        /* \"#utility.yul\":11593:11595   */\n      0x25\n        /* \"#utility.yul\":11588:11591   */\n      dup4\n        /* \"#utility.yul\":11529:11596   */\n      tag_151\n      jump\t// in\n    tag_295:\n        /* \"#utility.yul\":11522:11596   */\n      swap2\n      pop\n        /* \"#utility.yul\":11605:11698   */\n      tag_296\n        /* \"#utility.yul\":11694:11697   */\n      dup3\n        /* \"#utility.yul\":11605:11698   */\n      tag_181\n      jump\t// in\n    tag_296:\n        /* \"#utility.yul\":11723:11725   */\n      0x40\n        /* \"#utility.yul\":11718:11721   */\n      dup3\n        /* \"#utility.yul\":11714:11726   */\n      add\n        /* \"#utility.yul\":11707:11726   */\n      swap1\n      pop\n        /* \"#utility.yul\":11366:11732   */\n      swap2\n      swap1\n      pop\n      jump\t// out\n        /* \"#utility.yul\":11738:12157   */\n    tag_136:\n        /* \"#utility.yul\":11904:11908   */\n      0x00\n        /* \"#utility.yul\":11942:11944   */\n      0x20\n        /* \"#utility.yul\":11931:11940   */\n      dup3\n        /* \"#utility.yul\":11927:11945   */\n      add\n        /* \"#utility.yul\":11919:11945   */\n      swap1\n      pop\n        /* \"#utility.yul\":11991:12000   */\n      dup2\n        /* \"#utility.yul\":11985:11989   */\n      dup2\n        /* \"#utility.yul\":11981:12001   */\n      sub\n        /* \"#utility.yul\":11977:11978   */\n      0x00\n        /* \"#utility.yul\":11966:11975   */\n      dup4\n        /* \"#utility.yul\":11962:11979   */\n      add\n        /* \"#utility.yul\":11955:12002   */\n      mstore\n        /* \"#utility.yul\":12019:12150   */\n      tag_298\n        /* \"#utility.yul\":12145:12149   */\n      dup2\n        /* \"#utility.yul\":12019:12150   */\n      tag_182\n      jump\t// in\n    tag_298:\n        /* \"#utility.yul\":12011:12150   */\n      swap1\n      pop\n        /* \"#utility.yul\":11738:12157   */\n      swap2\n      swap1\n      pop\n      jump\t// out\n        /* \"#utility.yul\":12163:12385   */\n    tag_183:\n        /* \"#utility.yul\":12303:12337   */\n      0x45524332303a207472616e7366657220746f20746865207a65726f2061646472\n        /* \"#utility.yul\":12299:12300   */\n      0x00\n        /* \"#utility.yul\":12291:12297   */\n      dup3\n        /* \"#utility.yul\":12287:12301   */\n      add\n        /* \"#utility.yul\":12280:12338   */\n      mstore\n        /* \"#utility.yul\":12372:12377   */\n      0x6573730000000000000000000000000000000000000000000000000000000000\n        /* \"#utility.yul\":12367:12369   */\n      0x20\n        /* \"#utility.yul\":12359:12365   */\n      dup3\n        /* \"#utility.yul\":12355:12370   */\n      add\n        /* \"#utility.yul\":12348:12378   */\n      mstore\n        /* \"#utility.yul\":12163:12385   */\n      pop\n      jump\t// out\n        /* \"#utility.yul\":12391:12757   */\n    tag_184:\n        /* \"#utility.yul\":12533:12536   */\n      0x00\n        /* \"#utility.yul\":12554:12621   */\n      tag_301\n        /* \"#utility.yul\":12618:12620   */\n      0x23\n        /* \"#utility.yul\":12613:12616   */\n      dup4\n        /* \"#utility.yul\":12554:12621   */\n      tag_151\n      jump\t// in\n    tag_301:\n        /* \"#utility.yul\":12547:12621   */\n      swap2\n      pop\n        /* \"#utility.yul\":12630:12723   */\n      tag_302\n        /* \"#utility.yul\":12719:12722   */\n      dup3\n        /* \"#utility.yul\":12630:12723   */\n      tag_183\n      jump\t// in\n    tag_302:\n        /* \"#utility.yul\":12748:12750   */\n      0x40\n        /* \"#utility.yul\":12743:12746   */\n      dup3\n        /* \"#utility.yul\":12739:12751   */\n      add\n        /* \"#utility.yul\":12732:12751   */\n      swap1\n      pop\n        /* \"#utility.yul\":12391:12757   */\n      swap2\n      swap1\n      pop\n      jump\t// out\n        /* \"#utility.yul\":12763:13182   */\n    tag_139:\n        /* \"#utility.yul\":12929:12933   */\n      0x00\n        /* \"#utility.yul\":12967:12969   */\n      0x20\n        /* \"#utility.yul\":12956:12965   */\n      dup3\n        /* \"#utility.yul\":12952:12970   */\n      add\n        /* \"#utility.yul\":12944:12970   */\n      swap1\n      pop\n        /* \"#utility.yul\":13016:13025   */\n      dup2\n        /* \"#utility.yul\":13010:13014   */\n      dup2\n        /* \"#utility.yul\":13006:13026   */\n      sub\n        /* \"#utility.yul\":13002:13003   */\n      0x00\n        /* \"#utility.yul\":12991:13000   */\n      dup4\n        /* \"#utility.yul\":12987:13004   */\n      add\n        /* \"#utility.yul\":12980:13027   */\n      mstore\n        /* \"#utility.yul\":13044:13175   */\n      tag_304\n        /* \"#utility.yul\":13170:13174   */\n      dup2\n        /* \"#utility.yul\":13044:13175   */\n      tag_184\n      jump\t// in\n    tag_304:\n        /* \"#utility.yul\":13036:13175   */\n      swap1\n      pop\n        /* \"#utility.yul\":12763:13182   */\n      swap2\n      swap1\n      pop\n      jump\t// out\n        /* \"#utility.yul\":13188:13413   */\n    tag_185:\n        /* \"#utility.yul\":13328:13362   */\n      0x45524332303a207472616e7366657220616d6f756e7420657863656564732062\n        /* \"#utility.yul\":13324:13325   */\n      0x00\n        /* \"#utility.yul\":13316:13322   */\n      dup3\n        /* \"#utility.yul\":13312:13326   */\n      add\n        /* \"#utility.yul\":13305:13363   */\n      mstore\n        /* \"#utility.yul\":13397:13405   */\n      0x616c616e63650000000000000000000000000000000000000000000000000000\n        /* \"#utility.yul\":13392:13394   */\n      0x20\n        /* \"#utility.yul\":13384:13390   */\n      dup3\n        /* \"#utility.yul\":13380:13395   */\n      add\n        /* \"#utility.yul\":13373:13406   */\n      mstore\n        /* \"#utility.yul\":13188:13413   */\n      pop\n      jump\t// out\n        /* \"#utility.yul\":13419:13785   */\n    tag_186:\n        /* \"#utility.yul\":13561:13564   */\n      0x00\n        /* \"#utility.yul\":13582:13649   */\n      tag_307\n        /* \"#utility.yul\":13646:13648   */\n      0x26\n        /* \"#utility.yul\":13641:13644   */\n      dup4\n        /* \"#utility.yul\":13582:13649   */\n      tag_151\n      jump\t// in\n    tag_307:\n        /* \"#utility.yul\":13575:13649   */\n      swap2\n      pop\n        /* \"#utility.yul\":13658:13751   */\n      tag_308\n        /* \"#utility.yul\":13747:13750   */\n      dup3\n        /* \"#utility.yul\":13658:13751   */\n      tag_185\n      jump\t// in\n    tag_308:\n        /* \"#utility.yul\":13776:13778   */\n      0x40\n        /* \"#utility.yul\":13771:13774   */\n      dup3\n        /* \"#utility.yul\":13767:13779   */\n      add\n        /* \"#utility.yul\":13760:13779   */\n      swap1\n      pop\n        /* \"#utility.yul\":13419:13785   */\n      swap2\n      swap1\n      pop\n      jump\t// out\n        /* \"#utility.yul\":13791:14210   */\n    tag_144:\n        /* \"#utility.yul\":13957:13961   */\n      0x00\n        /* \"#utility.yul\":13995:13997   */\n      0x20\n        /* \"#utility.yul\":13984:13993   */\n      dup3\n        /* \"#utility.yul\":13980:13998   */\n      add\n        /* \"#utility.yul\":13972:13998   */\n      swap1\n      pop\n        /* \"#utility.yul\":14044:14053   */\n      dup2\n        /* \"#utility.yul\":14038:14042   */\n      dup2\n        /* \"#utility.yul\":14034:14054   */\n      sub\n        /* \"#utility.yul\":14030:14031   */\n      0x00\n        /* \"#utility.yul\":14019:14028   */\n      dup4\n        /* \"#utility.yul\":14015:14032   */\n      add\n        /* \"#utility.yul\":14008:14055   */\n      mstore\n        /* \"#utility.yul\":14072:14203   */\n      tag_310\n        /* \"#utility.yul\":14198:14202   */\n      dup2\n        /* \"#utility.yul\":14072:14203   */\n      tag_186\n      jump\t// in\n    tag_310:\n        /* \"#utility.yul\":14064:14203   */\n      swap1\n      pop\n        /* \"#utility.yul\":13791:14210   */\n      swap2\n      swap1\n      pop\n      jump\t// out\n\n    auxdata: 0xa2646970667358221220075a75b211e418bec5644458f485f12c6e35a11118acacb6844b7f12ddd2d6ca64736f6c634300080e0033\n}\n\nsub_1: assembly {\n        /* \"contracts/ICO.sol\":140:1266  contract Ico {... */\n      mstore(0x40, 0x80)\n        /* \"contracts/ICO.sol\":355:360  false */\n      0x00\n        /* \"contracts/ICO.sol\":332:360  bool public isPublic = false */\n      0x01\n      exp(0x0100, 0x14)\n      dup2\n      sload\n      dup2\n      0xff\n      mul\n      not\n      and\n      swap1\n      dup4\n      iszero\n      iszero\n      mul\n      or\n      swap1\n      sstore\n      pop\n        /* \"contracts/ICO.sol\":422:553  constructor(address _owner, NolanCoin _nolanCoin) {... */\n      callvalue\n      dup1\n      iszero\n      tag_1\n      jumpi\n      0x00\n      dup1\n      revert\n    tag_1:\n      pop\n      mload(0x40)\n      sub(codesize, bytecodeSize)\n      dup1\n      bytecodeSize\n      dup4\n      codecopy\n      dup2\n      dup2\n      add\n      0x40\n      mstore\n      dup2\n      add\n      swap1\n      tag_2\n      swap2\n      swap1\n      tag_3\n      jump\t// in\n    tag_2:\n        /* \"contracts/ICO.sol\":490:496  _owner */\n      dup2\n        /* \"contracts/ICO.sol\":482:487  owner */\n      0x00\n      dup1\n        /* \"contracts/ICO.sol\":482:496  owner = _owner */\n      0x0100\n      exp\n      dup2\n      sload\n      dup2\n      0xffffffffffffffffffffffffffffffffffffffff\n      mul\n      not\n      and\n      swap1\n      dup4\n      0xffffffffffffffffffffffffffffffffffffffff\n      and\n      mul\n      or\n      swap1\n      sstore\n      pop\n        /* \"contracts/ICO.sol\":518:528  _nolanCoin */\n      dup1\n        /* \"contracts/ICO.sol\":506:515  nolanCoin */\n      0x01\n      0x00\n        /* \"contracts/ICO.sol\":506:528  nolanCoin = _nolanCoin */\n      0x0100\n      exp\n      dup2\n      sload\n      dup2\n      0xffffffffffffffffffffffffffffffffffffffff\n      mul\n      not\n      and\n      swap1\n      dup4\n      0xffffffffffffffffffffffffffffffffffffffff\n      and\n      mul\n      or\n      swap1\n      sstore\n      pop\n        /* \"contracts/ICO.sol\":422:553  constructor(address _owner, NolanCoin _nolanCoin) {... */\n      pop\n      pop\n        /* \"contracts/ICO.sol\":140:1266  contract Ico {... */\n      jump(tag_6)\n        /* \"#utility.yul\":88:205   */\n    tag_8:\n        /* \"#utility.yul\":197:198   */\n      0x00\n        /* \"#utility.yul\":194:195   */\n      dup1\n        /* \"#utility.yul\":187:199   */\n      revert\n        /* \"#utility.yul\":334:460   */\n    tag_10:\n        /* \"#utility.yul\":371:378   */\n      0x00\n        /* \"#utility.yul\":411:453   */\n      0xffffffffffffffffffffffffffffffffffffffff\n        /* \"#utility.yul\":404:409   */\n      dup3\n        /* \"#utility.yul\":400:454   */\n      and\n        /* \"#utility.yul\":389:454   */\n      swap1\n      pop\n        /* \"#utility.yul\":334:460   */\n      swap2\n      swap1\n      pop\n      jump\t// out\n        /* \"#utility.yul\":466:562   */\n    tag_11:\n        /* \"#utility.yul\":503:510   */\n      0x00\n        /* \"#utility.yul\":532:556   */\n      tag_23\n        /* \"#utility.yul\":550:555   */\n      dup3\n        /* \"#utility.yul\":532:556   */\n      tag_10\n      jump\t// in\n    tag_23:\n        /* \"#utility.yul\":521:556   */\n      swap1\n      pop\n        /* \"#utility.yul\":466:562   */\n      swap2\n      swap1\n      pop\n      jump\t// out\n        /* \"#utility.yul\":568:690   */\n    tag_12:\n        /* \"#utility.yul\":641:665   */\n      tag_25\n        /* \"#utility.yul\":659:664   */\n      dup2\n        /* \"#utility.yul\":641:665   */\n      tag_11\n      jump\t// in\n    tag_25:\n        /* \"#utility.yul\":634:639   */\n      dup2\n        /* \"#utility.yul\":631:666   */\n      eq\n        /* \"#utility.yul\":621:684   */\n      tag_26\n      jumpi\n        /* \"#utility.yul\":680:681   */\n      0x00\n        /* \"#utility.yul\":677:678   */\n      dup1\n        /* \"#utility.yul\":670:682   */\n      revert\n        /* \"#utility.yul\":621:684   */\n    tag_26:\n        /* \"#utility.yul\":568:690   */\n      pop\n      jump\t// out\n        /* \"#utility.yul\":696:839   */\n    tag_13:\n        /* \"#utility.yul\":753:758   */\n      0x00\n        /* \"#utility.yul\":784:790   */\n      dup2\n        /* \"#utility.yul\":778:791   */\n      mload\n        /* \"#utility.yul\":769:791   */\n      swap1\n      pop\n        /* \"#utility.yul\":800:833   */\n      tag_28\n        /* \"#utility.yul\":827:832   */\n      dup2\n        /* \"#utility.yul\":800:833   */\n      tag_12\n      jump\t// in\n    tag_28:\n        /* \"#utility.yul\":696:839   */\n      swap3\n      swap2\n      pop\n      pop\n      jump\t// out\n        /* \"#utility.yul\":845:958   */\n    tag_14:\n        /* \"#utility.yul\":899:906   */\n      0x00\n        /* \"#utility.yul\":928:952   */\n      tag_30\n        /* \"#utility.yul\":946:951   */\n      dup3\n        /* \"#utility.yul\":928:952   */\n      tag_11\n      jump\t// in\n    tag_30:\n        /* \"#utility.yul\":917:952   */\n      swap1\n      pop\n        /* \"#utility.yul\":845:958   */\n      swap2\n      swap1\n      pop\n      jump\t// out\n        /* \"#utility.yul\":964:1120   */\n    tag_15:\n        /* \"#utility.yul\":1054:1095   */\n      tag_32\n        /* \"#utility.yul\":1089:1094   */\n      dup2\n        /* \"#utility.yul\":1054:1095   */\n      tag_14\n      jump\t// in\n    tag_32:\n        /* \"#utility.yul\":1047:1052   */\n      dup2\n        /* \"#utility.yul\":1044:1096   */\n      eq\n        /* \"#utility.yul\":1034:1114   */\n      tag_33\n      jumpi\n        /* \"#utility.yul\":1110:1111   */\n      0x00\n        /* \"#utility.yul\":1107:1108   */\n      dup1\n        /* \"#utility.yul\":1100:1112   */\n      revert\n        /* \"#utility.yul\":1034:1114   */\n    tag_33:\n        /* \"#utility.yul\":964:1120   */\n      pop\n      jump\t// out\n        /* \"#utility.yul\":1126:1303   */\n    tag_16:\n        /* \"#utility.yul\":1200:1205   */\n      0x00\n        /* \"#utility.yul\":1231:1237   */\n      dup2\n        /* \"#utility.yul\":1225:1238   */\n      mload\n        /* \"#utility.yul\":1216:1238   */\n      swap1\n      pop\n        /* \"#utility.yul\":1247:1297   */\n      tag_35\n        /* \"#utility.yul\":1291:1296   */\n      dup2\n        /* \"#utility.yul\":1247:1297   */\n      tag_15\n      jump\t// in\n    tag_35:\n        /* \"#utility.yul\":1126:1303   */\n      swap3\n      swap2\n      pop\n      pop\n      jump\t// out\n        /* \"#utility.yul\":1309:1850   */\n    tag_3:\n        /* \"#utility.yul\":1405:1411   */\n      0x00\n        /* \"#utility.yul\":1413:1419   */\n      dup1\n        /* \"#utility.yul\":1462:1464   */\n      0x40\n        /* \"#utility.yul\":1450:1459   */\n      dup4\n        /* \"#utility.yul\":1441:1448   */\n      dup6\n        /* \"#utility.yul\":1437:1460   */\n      sub\n        /* \"#utility.yul\":1433:1465   */\n      slt\n        /* \"#utility.yul\":1430:1549   */\n      iszero\n      tag_37\n      jumpi\n        /* \"#utility.yul\":1468:1547   */\n      tag_38\n      tag_8\n      jump\t// in\n    tag_38:\n        /* \"#utility.yul\":1430:1549   */\n    tag_37:\n        /* \"#utility.yul\":1588:1589   */\n      0x00\n        /* \"#utility.yul\":1613:1677   */\n      tag_39\n        /* \"#utility.yul\":1669:1676   */\n      dup6\n        /* \"#utility.yul\":1660:1666   */\n      dup3\n        /* \"#utility.yul\":1649:1658   */\n      dup7\n        /* \"#utility.yul\":1645:1667   */\n      add\n        /* \"#utility.yul\":1613:1677   */\n      tag_13\n      jump\t// in\n    tag_39:\n        /* \"#utility.yul\":1603:1677   */\n      swap3\n      pop\n        /* \"#utility.yul\":1559:1687   */\n      pop\n        /* \"#utility.yul\":1726:1728   */\n      0x20\n        /* \"#utility.yul\":1752:1833   */\n      tag_40\n        /* \"#utility.yul\":1825:1832   */\n      dup6\n        /* \"#utility.yul\":1816:1822   */\n      dup3\n        /* \"#utility.yul\":1805:1814   */\n      dup7\n        /* \"#utility.yul\":1801:1823   */\n      add\n        /* \"#utility.yul\":1752:1833   */\n      tag_16\n      jump\t// in\n    tag_40:\n        /* \"#utility.yul\":1742:1833   */\n      swap2\n      pop\n        /* \"#utility.yul\":1697:1843   */\n      pop\n        /* \"#utility.yul\":1309:1850   */\n      swap3\n      pop\n      swap3\n      swap1\n      pop\n      jump\t// out\n        /* \"contracts/ICO.sol\":140:1266  contract Ico {... */\n    tag_6:\n      dataSize(sub_0)\n      dup1\n      dataOffset(sub_0)\n      0x00\n      codecopy\n      0x00\n      return\n    stop\n\n    sub_0: assembly {\n            /* \"contracts/ICO.sol\":140:1266  contract Ico {... */\n          mstore(0x40, 0x80)\n          jumpi(tag_1, lt(calldatasize, 0x04))\n          shr(0xe0, calldataload(0x00))\n          dup1\n          0x83ae0e9c\n          gt\n          tag_11\n          jumpi\n          dup1\n          0x83ae0e9c\n          eq\n          tag_6\n          jumpi\n          dup1\n          0x8da5cb5b\n          eq\n          tag_7\n          jumpi\n          dup1\n          0x95dda98e\n          eq\n          tag_8\n          jumpi\n          dup1\n          0xb02f376f\n          eq\n          tag_9\n          jumpi\n          dup1\n          0xdc9a1535\n          eq\n          tag_10\n          jumpi\n          jump(tag_1)\n        tag_11:\n          dup1\n          0x148a69\n          eq\n          tag_2\n          jumpi\n          dup1\n          0x0e21f59f\n          eq\n          tag_3\n          jumpi\n          dup1\n          0x12f265ef\n          eq\n          tag_4\n          jumpi\n          dup1\n          0x2848aeaf\n          eq\n          tag_5\n          jumpi\n        tag_1:\n          0x00\n          dup1\n          revert\n            /* \"contracts/ICO.sol\":160:205  uint256 public constant ICO_EXCHANGE_RATE = 5 */\n        tag_2:\n          callvalue\n          dup1\n          iszero\n          tag_12\n          jumpi\n          0x00\n          dup1\n          revert\n        tag_12:\n          pop\n          tag_13\n          tag_14\n          jump\t// in\n        tag_13:\n          mload(0x40)\n          tag_15\n          swap2\n          swap1\n          tag_16\n          jump\t// in\n        tag_15:\n          mload(0x40)\n          dup1\n          swap2\n          sub\n          swap1\n          return\n            /* \"contracts/ICO.sol\":655:749  function togglePublic(bool  toggle) external onlyOwner {... */\n        tag_3:\n          callvalue\n          dup1\n          iszero\n          tag_17\n          jumpi\n          0x00\n          dup1\n          revert\n        tag_17:\n          pop\n          tag_18\n          0x04\n          dup1\n          calldatasize\n          sub\n          dup2\n          add\n          swap1\n          tag_19\n          swap2\n          swap1\n          tag_20\n          jump\t// in\n        tag_19:\n          tag_21\n          jump\t// in\n        tag_18:\n          stop\n            /* \"contracts/ICO.sol\":299:325  NolanCoin public nolanCoin */\n        tag_4:\n          callvalue\n          dup1\n          iszero\n          tag_22\n          jumpi\n          0x00\n          dup1\n          revert\n        tag_22:\n          pop\n          tag_23\n          tag_24\n          jump\t// in\n        tag_23:\n          mload(0x40)\n          tag_25\n          swap2\n          swap1\n          tag_26\n          jump\t// in\n        tag_25:\n          mload(0x40)\n          dup1\n          swap2\n          sub\n          swap1\n          return\n            /* \"contracts/ICO.sol\":367:409  mapping (address => bool) public allowList */\n        tag_5:\n          callvalue\n          dup1\n          iszero\n          tag_27\n          jumpi\n          0x00\n          dup1\n          revert\n        tag_27:\n          pop\n          tag_28\n          0x04\n          dup1\n          calldatasize\n          sub\n          dup2\n          add\n          swap1\n          tag_29\n          swap2\n          swap1\n          tag_30\n          jump\t// in\n        tag_29:\n          tag_31\n          jump\t// in\n        tag_28:\n          mload(0x40)\n          tag_32\n          swap2\n          swap1\n          tag_33\n          jump\t// in\n        tag_32:\n          mload(0x40)\n          dup1\n          swap2\n          sub\n          swap1\n          return\n            /* \"contracts/ICO.sol\":833:1039  function addToAllowList (address[] calldata addresses ,bool toggle) external  onlyOwner {... */\n        tag_6:\n          callvalue\n          dup1\n          iszero\n          tag_34\n          jumpi\n          0x00\n          dup1\n          revert\n        tag_34:\n          pop\n          tag_35\n          0x04\n          dup1\n          calldatasize\n          sub\n          dup2\n          add\n          swap1\n          tag_36\n          swap2\n          swap1\n          tag_37\n          jump\t// in\n        tag_36:\n          tag_38\n          jump\t// in\n        tag_35:\n          stop\n            /* \"contracts/ICO.sol\":273:293  address public owner */\n        tag_7:\n          callvalue\n          dup1\n          iszero\n          tag_39\n          jumpi\n          0x00\n          dup1\n          revert\n        tag_39:\n          pop\n          tag_40\n          tag_41\n          jump\t// in\n        tag_40:\n          mload(0x40)\n          tag_42\n          swap2\n          swap1\n          tag_43\n          jump\t// in\n        tag_42:\n          mload(0x40)\n          dup1\n          swap2\n          sub\n          swap1\n          return\n            /* \"contracts/ICO.sol\":1053:1264  function constribute    ()  external  payable {... */\n        tag_8:\n          tag_44\n          tag_45\n          jump\t// in\n        tag_44:\n          stop\n            /* \"contracts/ICO.sol\":211:266  uint256 public constant CONTRIBUTION_LIMIT  = 100 ether */\n        tag_9:\n          callvalue\n          dup1\n          iszero\n          tag_46\n          jumpi\n          0x00\n          dup1\n          revert\n        tag_46:\n          pop\n          tag_47\n          tag_48\n          jump\t// in\n        tag_47:\n          mload(0x40)\n          tag_49\n          swap2\n          swap1\n          tag_16\n          jump\t// in\n        tag_49:\n          mload(0x40)\n          dup1\n          swap2\n          sub\n          swap1\n          return\n            /* \"contracts/ICO.sol\":332:360  bool public isPublic = false */\n        tag_10:\n          callvalue\n          dup1\n          iszero\n          tag_50\n          jumpi\n          0x00\n          dup1\n          revert\n        tag_50:\n          pop\n          tag_51\n          tag_52\n          jump\t// in\n        tag_51:\n          mload(0x40)\n          tag_53\n          swap2\n          swap1\n          tag_33\n          jump\t// in\n        tag_53:\n          mload(0x40)\n          dup1\n          swap2\n          sub\n          swap1\n          return\n            /* \"contracts/ICO.sol\":160:205  uint256 public constant ICO_EXCHANGE_RATE = 5 */\n        tag_14:\n            /* \"contracts/ICO.sol\":204:205  5 */\n          0x05\n            /* \"contracts/ICO.sol\":160:205  uint256 public constant ICO_EXCHANGE_RATE = 5 */\n          dup2\n          jump\t// out\n            /* \"contracts/ICO.sol\":655:749  function togglePublic(bool  toggle) external onlyOwner {... */\n        tag_21:\n            /* \"contracts/ICO.sol\":610:615  owner */\n          0x00\n          dup1\n          sload\n          swap1\n          0x0100\n          exp\n          swap1\n          div\n          0xffffffffffffffffffffffffffffffffffffffff\n          and\n            /* \"contracts/ICO.sol\":596:615  msg.sender == owner */\n          0xffffffffffffffffffffffffffffffffffffffff\n          and\n            /* \"contracts/ICO.sol\":596:606  msg.sender */\n          caller\n            /* \"contracts/ICO.sol\":596:615  msg.sender == owner */\n          0xffffffffffffffffffffffffffffffffffffffff\n          and\n          eq\n            /* \"contracts/ICO.sol\":588:629  require(msg.sender == owner, \"Not a Own\") */\n          tag_55\n          jumpi\n          mload(0x40)\n          0x08c379a000000000000000000000000000000000000000000000000000000000\n          dup2\n          mstore\n          0x04\n          add\n          tag_56\n          swap1\n          tag_57\n          jump\t// in\n        tag_56:\n          mload(0x40)\n          dup1\n          swap2\n          sub\n          swap1\n          revert\n        tag_55:\n            /* \"contracts/ICO.sol\":732:738  toggle */\n          dup1\n            /* \"contracts/ICO.sol\":721:729  isPublic */\n          0x01\n          0x14\n            /* \"contracts/ICO.sol\":721:738  isPublic = toggle */\n          0x0100\n          exp\n          dup2\n          sload\n          dup2\n          0xff\n          mul\n          not\n          and\n          swap1\n          dup4\n          iszero\n          iszero\n          mul\n          or\n          swap1\n          sstore\n          pop\n            /* \"contracts/ICO.sol\":655:749  function togglePublic(bool  toggle) external onlyOwner {... */\n          pop\n          jump\t// out\n            /* \"contracts/ICO.sol\":299:325  NolanCoin public nolanCoin */\n        tag_24:\n          0x01\n          0x00\n          swap1\n          sload\n          swap1\n          0x0100\n          exp\n          swap1\n          div\n          0xffffffffffffffffffffffffffffffffffffffff\n          and\n          dup2\n          jump\t// out\n            /* \"contracts/ICO.sol\":367:409  mapping (address => bool) public allowList */\n        tag_31:\n          mstore(0x20, 0x02)\n          dup1\n          0x00\n          mstore\n          keccak256(0x00, 0x40)\n          0x00\n          swap2\n          pop\n          sload\n          swap1\n          0x0100\n          exp\n          swap1\n          div\n          0xff\n          and\n          dup2\n          jump\t// out\n            /* \"contracts/ICO.sol\":833:1039  function addToAllowList (address[] calldata addresses ,bool toggle) external  onlyOwner {... */\n        tag_38:\n            /* \"contracts/ICO.sol\":610:615  owner */\n          0x00\n          dup1\n          sload\n          swap1\n          0x0100\n          exp\n          swap1\n          div\n          0xffffffffffffffffffffffffffffffffffffffff\n          and\n            /* \"contracts/ICO.sol\":596:615  msg.sender == owner */\n          0xffffffffffffffffffffffffffffffffffffffff\n          and\n            /* \"contracts/ICO.sol\":596:606  msg.sender */\n          caller\n            /* \"contracts/ICO.sol\":596:615  msg.sender == owner */\n          0xffffffffffffffffffffffffffffffffffffffff\n          and\n          eq\n            /* \"contracts/ICO.sol\":588:629  require(msg.sender == owner, \"Not a Own\") */\n          tag_60\n          jumpi\n          mload(0x40)\n          0x08c379a000000000000000000000000000000000000000000000000000000000\n          dup2\n          mstore\n          0x04\n          add\n          tag_61\n          swap1\n          tag_57\n          jump\t// in\n        tag_61:\n          mload(0x40)\n          dup1\n          swap2\n          sub\n          swap1\n          revert\n        tag_60:\n            /* \"contracts/ICO.sol\":936:945  uint256 i */\n          0x00\n            /* \"contracts/ICO.sol\":931:1032  for (uint256 i=0; i<addresses.length; i++) {... */\n        tag_63:\n            /* \"contracts/ICO.sol\":951:960  addresses */\n          dup4\n          dup4\n            /* \"contracts/ICO.sol\":951:967  addresses.length */\n          swap1\n          pop\n            /* \"contracts/ICO.sol\":949:950  i */\n          dup2\n            /* \"contracts/ICO.sol\":949:967  i<addresses.length */\n          lt\n            /* \"contracts/ICO.sol\":931:1032  for (uint256 i=0; i<addresses.length; i++) {... */\n          iszero\n          tag_64\n          jumpi\n            /* \"contracts/ICO.sol\":1015:1021  toggle */\n          dup2\n            /* \"contracts/ICO.sol\":989:998  allowList */\n          0x02\n            /* \"contracts/ICO.sol\":989:1012  allowList[addresses[i]] */\n          0x00\n            /* \"contracts/ICO.sol\":999:1008  addresses */\n          dup7\n          dup7\n            /* \"contracts/ICO.sol\":1009:1010  i */\n          dup6\n            /* \"contracts/ICO.sol\":999:1011  addresses[i] */\n          dup2\n          dup2\n          lt\n          tag_66\n          jumpi\n          tag_67\n          tag_68\n          jump\t// in\n        tag_67:\n        tag_66:\n          swap1\n          pop\n          0x20\n          mul\n          add\n          0x20\n          dup2\n          add\n          swap1\n          tag_69\n          swap2\n          swap1\n          tag_30\n          jump\t// in\n        tag_69:\n            /* \"contracts/ICO.sol\":989:1012  allowList[addresses[i]] */\n          0xffffffffffffffffffffffffffffffffffffffff\n          and\n          0xffffffffffffffffffffffffffffffffffffffff\n          and\n          dup2\n          mstore\n          0x20\n          add\n          swap1\n          dup2\n          mstore\n          0x20\n          add\n          0x00\n          keccak256\n          0x00\n            /* \"contracts/ICO.sol\":989:1021  allowList[addresses[i]] = toggle */\n          0x0100\n          exp\n          dup2\n          sload\n          dup2\n          0xff\n          mul\n          not\n          and\n          swap1\n          dup4\n          iszero\n          iszero\n          mul\n          or\n          swap1\n          sstore\n          pop\n            /* \"contracts/ICO.sol\":969:972  i++ */\n          dup1\n          dup1\n          tag_70\n          swap1\n          tag_71\n          jump\t// in\n        tag_70:\n          swap2\n          pop\n          pop\n            /* \"contracts/ICO.sol\":931:1032  for (uint256 i=0; i<addresses.length; i++) {... */\n          jump(tag_63)\n        tag_64:\n          pop\n            /* \"contracts/ICO.sol\":833:1039  function addToAllowList (address[] calldata addresses ,bool toggle) external  onlyOwner {... */\n          pop\n          pop\n          pop\n          jump\t// out\n            /* \"contracts/ICO.sol\":273:293  address public owner */\n        tag_41:\n          0x00\n          dup1\n          sload\n          swap1\n          0x0100\n          exp\n          swap1\n          div\n          0xffffffffffffffffffffffffffffffffffffffff\n          and\n          dup2\n          jump\t// out\n            /* \"contracts/ICO.sol\":1053:1264  function constribute    ()  external  payable {... */\n        tag_45:\n            /* \"contracts/ICO.sol\":1124:1129  false */\n          0x00\n            /* \"contracts/ICO.sol\":1112:1129  isPublic == false */\n          iszero\n          iszero\n            /* \"contracts/ICO.sol\":1112:1120  isPublic */\n          0x01\n          0x14\n          swap1\n          sload\n          swap1\n          0x0100\n          exp\n          swap1\n          div\n          0xff\n          and\n            /* \"contracts/ICO.sol\":1112:1129  isPublic == false */\n          iszero\n          iszero\n          sub\n            /* \"contracts/ICO.sol\":1109:1249  if(isPublic == false) {... */\n          tag_73\n          jumpi\n            /* \"contracts/ICO.sol\":1150:1159  allowList */\n          0x02\n            /* \"contracts/ICO.sol\":1150:1171  allowList[msg.sender] */\n          0x00\n            /* \"contracts/ICO.sol\":1160:1170  msg.sender */\n          caller\n            /* \"contracts/ICO.sol\":1150:1171  allowList[msg.sender] */\n          0xffffffffffffffffffffffffffffffffffffffff\n          and\n          0xffffffffffffffffffffffffffffffffffffffff\n          and\n          dup2\n          mstore\n          0x20\n          add\n          swap1\n          dup2\n          mstore\n          0x20\n          add\n          0x00\n          keccak256\n          0x00\n          swap1\n          sload\n          swap1\n          0x0100\n          exp\n          swap1\n          div\n          0xff\n          and\n            /* \"contracts/ICO.sol\":1146:1237  if(!allowList[msg.sender]) revert Unauthorized(\"Sorry you are not allowed to  contribute \") */\n          tag_74\n          jumpi\n            /* \"contracts/ICO.sol\":1180:1237  Unauthorized(\"Sorry you are not allowed to  contribute \") */\n          mload(0x40)\n          0x973d02cb00000000000000000000000000000000000000000000000000000000\n          dup2\n          mstore\n          0x04\n          add\n          tag_75\n          swap1\n          tag_76\n          jump\t// in\n        tag_75:\n          mload(0x40)\n          dup1\n          swap2\n          sub\n          swap1\n          revert\n            /* \"contracts/ICO.sol\":1146:1237  if(!allowList[msg.sender]) revert Unauthorized(\"Sorry you are not allowed to  contribute \") */\n        tag_74:\n            /* \"contracts/ICO.sol\":1109:1249  if(isPublic == false) {... */\n        tag_73:\n            /* \"contracts/ICO.sol\":1053:1264  function constribute    ()  external  payable {... */\n          jump\t// out\n            /* \"contracts/ICO.sol\":211:266  uint256 public constant CONTRIBUTION_LIMIT  = 100 ether */\n        tag_48:\n            /* \"contracts/ICO.sol\":257:266  100 ether */\n          0x056bc75e2d63100000\n            /* \"contracts/ICO.sol\":211:266  uint256 public constant CONTRIBUTION_LIMIT  = 100 ether */\n          dup2\n          jump\t// out\n            /* \"contracts/ICO.sol\":332:360  bool public isPublic = false */\n        tag_52:\n          0x01\n          0x14\n          swap1\n          sload\n          swap1\n          0x0100\n          exp\n          swap1\n          div\n          0xff\n          and\n          dup2\n          jump\t// out\n            /* \"#utility.yul\":7:84   */\n        tag_77:\n            /* \"#utility.yul\":44:51   */\n          0x00\n            /* \"#utility.yul\":73:78   */\n          dup2\n            /* \"#utility.yul\":62:78   */\n          swap1\n          pop\n            /* \"#utility.yul\":7:84   */\n          swap2\n          swap1\n          pop\n          jump\t// out\n            /* \"#utility.yul\":90:208   */\n        tag_78:\n            /* \"#utility.yul\":177:201   */\n          tag_109\n            /* \"#utility.yul\":195:200   */\n          dup2\n            /* \"#utility.yul\":177:201   */\n          tag_77\n          jump\t// in\n        tag_109:\n            /* \"#utility.yul\":172:175   */\n          dup3\n            /* \"#utility.yul\":165:202   */\n          mstore\n            /* \"#utility.yul\":90:208   */\n          pop\n          pop\n          jump\t// out\n            /* \"#utility.yul\":214:436   */\n        tag_16:\n            /* \"#utility.yul\":307:311   */\n          0x00\n            /* \"#utility.yul\":345:347   */\n          0x20\n            /* \"#utility.yul\":334:343   */\n          dup3\n            /* \"#utility.yul\":330:348   */\n          add\n            /* \"#utility.yul\":322:348   */\n          swap1\n          pop\n            /* \"#utility.yul\":358:429   */\n          tag_111\n            /* \"#utility.yul\":426:427   */\n          0x00\n            /* \"#utility.yul\":415:424   */\n          dup4\n            /* \"#utility.yul\":411:428   */\n          add\n            /* \"#utility.yul\":402:408   */\n          dup5\n            /* \"#utility.yul\":358:429   */\n          tag_78\n          jump\t// in\n        tag_111:\n            /* \"#utility.yul\":214:436   */\n          swap3\n          swap2\n          pop\n          pop\n          jump\t// out\n            /* \"#utility.yul\":523:640   */\n        tag_80:\n            /* \"#utility.yul\":632:633   */\n          0x00\n            /* \"#utility.yul\":629:630   */\n          dup1\n            /* \"#utility.yul\":622:634   */\n          revert\n            /* \"#utility.yul\":646:763   */\n        tag_81:\n            /* \"#utility.yul\":755:756   */\n          0x00\n            /* \"#utility.yul\":752:753   */\n          dup1\n            /* \"#utility.yul\":745:757   */\n          revert\n            /* \"#utility.yul\":769:859   */\n        tag_82:\n            /* \"#utility.yul\":803:810   */\n          0x00\n            /* \"#utility.yul\":846:851   */\n          dup2\n            /* \"#utility.yul\":839:852   */\n          iszero\n            /* \"#utility.yul\":832:853   */\n          iszero\n            /* \"#utility.yul\":821:853   */\n          swap1\n          pop\n            /* \"#utility.yul\":769:859   */\n          swap2\n          swap1\n          pop\n          jump\t// out\n            /* \"#utility.yul\":865:981   */\n        tag_83:\n            /* \"#utility.yul\":935:956   */\n          tag_117\n            /* \"#utility.yul\":950:955   */\n          dup2\n            /* \"#utility.yul\":935:956   */\n          tag_82\n          jump\t// in\n        tag_117:\n            /* \"#utility.yul\":928:933   */\n          dup2\n            /* \"#utility.yul\":925:957   */\n          eq\n            /* \"#utility.yul\":915:975   */\n          tag_118\n          jumpi\n            /* \"#utility.yul\":971:972   */\n          0x00\n            /* \"#utility.yul\":968:969   */\n          dup1\n            /* \"#utility.yul\":961:973   */\n          revert\n            /* \"#utility.yul\":915:975   */\n        tag_118:\n            /* \"#utility.yul\":865:981   */\n          pop\n          jump\t// out\n            /* \"#utility.yul\":987:1120   */\n        tag_84:\n            /* \"#utility.yul\":1030:1035   */\n          0x00\n            /* \"#utility.yul\":1068:1074   */\n          dup2\n            /* \"#utility.yul\":1055:1075   */\n          calldataload\n            /* \"#utility.yul\":1046:1075   */\n          swap1\n          pop\n            /* \"#utility.yul\":1084:1114   */\n          tag_120\n            /* \"#utility.yul\":1108:1113   */\n          dup2\n            /* \"#utility.yul\":1084:1114   */\n          tag_83\n          jump\t// in\n        tag_120:\n            /* \"#utility.yul\":987:1120   */\n          swap3\n          swap2\n          pop\n          pop\n          jump\t// out\n            /* \"#utility.yul\":1126:1449   */\n        tag_20:\n            /* \"#utility.yul\":1182:1188   */\n          0x00\n            /* \"#utility.yul\":1231:1233   */\n          0x20\n            /* \"#utility.yul\":1219:1228   */\n          dup3\n            /* \"#utility.yul\":1210:1217   */\n          dup5\n            /* \"#utility.yul\":1206:1229   */\n          sub\n            /* \"#utility.yul\":1202:1234   */\n          slt\n            /* \"#utility.yul\":1199:1318   */\n          iszero\n          tag_122\n          jumpi\n            /* \"#utility.yul\":1237:1316   */\n          tag_123\n          tag_80\n          jump\t// in\n        tag_123:\n            /* \"#utility.yul\":1199:1318   */\n        tag_122:\n            /* \"#utility.yul\":1357:1358   */\n          0x00\n            /* \"#utility.yul\":1382:1432   */\n          tag_124\n            /* \"#utility.yul\":1424:1431   */\n          dup5\n            /* \"#utility.yul\":1415:1421   */\n          dup3\n            /* \"#utility.yul\":1404:1413   */\n          dup6\n            /* \"#utility.yul\":1400:1422   */\n          add\n            /* \"#utility.yul\":1382:1432   */\n          tag_84\n          jump\t// in\n        tag_124:\n            /* \"#utility.yul\":1372:1432   */\n          swap2\n          pop\n            /* \"#utility.yul\":1328:1442   */\n          pop\n            /* \"#utility.yul\":1126:1449   */\n          swap3\n          swap2\n          pop\n          pop\n          jump\t// out\n            /* \"#utility.yul\":1455:1581   */\n        tag_85:\n            /* \"#utility.yul\":1492:1499   */\n          0x00\n            /* \"#utility.yul\":1532:1574   */\n          0xffffffffffffffffffffffffffffffffffffffff\n            /* \"#utility.yul\":1525:1530   */\n          dup3\n            /* \"#utility.yul\":1521:1575   */\n          and\n            /* \"#utility.yul\":1510:1575   */\n          swap1\n          pop\n            /* \"#utility.yul\":1455:1581   */\n          swap2\n          swap1\n          pop\n          jump\t// out\n            /* \"#utility.yul\":1587:1647   */\n        tag_86:\n            /* \"#utility.yul\":1615:1618   */\n          0x00\n            /* \"#utility.yul\":1636:1641   */\n          dup2\n            /* \"#utility.yul\":1629:1641   */\n          swap1\n          pop\n            /* \"#utility.yul\":1587:1647   */\n          swap2\n          swap1\n          pop\n          jump\t// out\n            /* \"#utility.yul\":1653:1795   */\n        tag_87:\n            /* \"#utility.yul\":1703:1712   */\n          0x00\n            /* \"#utility.yul\":1736:1789   */\n          tag_128\n            /* \"#utility.yul\":1754:1788   */\n          tag_129\n            /* \"#utility.yul\":1763:1787   */\n          tag_130\n            /* \"#utility.yul\":1781:1786   */\n          dup5\n            /* \"#utility.yul\":1763:1787   */\n          tag_85\n          jump\t// in\n        tag_130:\n            /* \"#utility.yul\":1754:1788   */\n          tag_86\n          jump\t// in\n        tag_129:\n            /* \"#utility.yul\":1736:1789   */\n          tag_85\n          jump\t// in\n        tag_128:\n            /* \"#utility.yul\":1723:1789   */\n          swap1\n          pop\n            /* \"#utility.yul\":1653:1795   */\n          swap2\n          swap1\n          pop\n          jump\t// out\n            /* \"#utility.yul\":1801:1927   */\n        tag_88:\n            /* \"#utility.yul\":1851:1860   */\n          0x00\n            /* \"#utility.yul\":1884:1921   */\n          tag_132\n            /* \"#utility.yul\":1915:1920   */\n          dup3\n            /* \"#utility.yul\":1884:1921   */\n          tag_87\n          jump\t// in\n        tag_132:\n            /* \"#utility.yul\":1871:1921   */\n          swap1\n          pop\n            /* \"#utility.yul\":1801:1927   */\n          swap2\n          swap1\n          pop\n          jump\t// out\n            /* \"#utility.yul\":1933:2076   */\n        tag_89:\n            /* \"#utility.yul\":2000:2009   */\n          0x00\n            /* \"#utility.yul\":2033:2070   */\n          tag_134\n            /* \"#utility.yul\":2064:2069   */\n          dup3\n            /* \"#utility.yul\":2033:2070   */\n          tag_88\n          jump\t// in\n        tag_134:\n            /* \"#utility.yul\":2020:2070   */\n          swap1\n          pop\n            /* \"#utility.yul\":1933:2076   */\n          swap2\n          swap1\n          pop\n          jump\t// out\n            /* \"#utility.yul\":2082:2247   */\n        tag_90:\n            /* \"#utility.yul\":2186:2240   */\n          tag_136\n            /* \"#utility.yul\":2234:2239   */\n          dup2\n            /* \"#utility.yul\":2186:2240   */\n          tag_89\n          jump\t// in\n        tag_136:\n            /* \"#utility.yul\":2181:2184   */\n          dup3\n            /* \"#utility.yul\":2174:2241   */\n          mstore\n            /* \"#utility.yul\":2082:2247   */\n          pop\n          pop\n          jump\t// out\n            /* \"#utility.yul\":2253:2509   */\n        tag_26:\n            /* \"#utility.yul\":2363:2367   */\n          0x00\n            /* \"#utility.yul\":2401:2403   */\n          0x20\n            /* \"#utility.yul\":2390:2399   */\n          dup3\n            /* \"#utility.yul\":2386:2404   */\n          add\n            /* \"#utility.yul\":2378:2404   */\n          swap1\n          pop\n            /* \"#utility.yul\":2414:2502   */\n          tag_138\n            /* \"#utility.yul\":2499:2500   */\n          0x00\n            /* \"#utility.yul\":2488:2497   */\n          dup4\n            /* \"#utility.yul\":2484:2501   */\n          add\n            /* \"#utility.yul\":2475:2481   */\n          dup5\n            /* \"#utility.yul\":2414:2502   */\n          tag_90\n          jump\t// in\n        tag_138:\n            /* \"#utility.yul\":2253:2509   */\n          swap3\n          swap2\n          pop\n          pop\n          jump\t// out\n            /* \"#utility.yul\":2515:2611   */\n        tag_91:\n            /* \"#utility.yul\":2552:2559   */\n          0x00\n            /* \"#utility.yul\":2581:2605   */\n          tag_140\n            /* \"#utility.yul\":2599:2604   */\n          dup3\n            /* \"#utility.yul\":2581:2605   */\n          tag_85\n          jump\t// in\n        tag_140:\n            /* \"#utility.yul\":2570:2605   */\n          swap1\n          pop\n            /* \"#utility.yul\":2515:2611   */\n          swap2\n          swap1\n          pop\n          jump\t// out\n            /* \"#utility.yul\":2617:2739   */\n        tag_92:\n            /* \"#utility.yul\":2690:2714   */\n          tag_142\n            /* \"#utility.yul\":2708:2713   */\n          dup2\n            /* \"#utility.yul\":2690:2714   */\n          tag_91\n          jump\t// in\n        tag_142:\n            /* \"#utility.yul\":2683:2688   */\n          dup2\n            /* \"#utility.yul\":2680:2715   */\n          eq\n            /* \"#utility.yul\":2670:2733   */\n          tag_143\n          jumpi\n            /* \"#utility.yul\":2729:2730   */\n          0x00\n            /* \"#utility.yul\":2726:2727   */\n          dup1\n            /* \"#utility.yul\":2719:2731   */\n          revert\n            /* \"#utility.yul\":2670:2733   */\n        tag_143:\n            /* \"#utility.yul\":2617:2739   */\n          pop\n          jump\t// out\n            /* \"#utility.yul\":2745:2884   */\n        tag_93:\n            /* \"#utility.yul\":2791:2796   */\n          0x00\n            /* \"#utility.yul\":2829:2835   */\n          dup2\n            /* \"#utility.yul\":2816:2836   */\n          calldataload\n            /* \"#utility.yul\":2807:2836   */\n          swap1\n          pop\n            /* \"#utility.yul\":2845:2878   */\n          tag_145\n            /* \"#utility.yul\":2872:2877   */\n          dup2\n            /* \"#utility.yul\":2845:2878   */\n          tag_92\n          jump\t// in\n        tag_145:\n            /* \"#utility.yul\":2745:2884   */\n          swap3\n          swap2\n          pop\n          pop\n          jump\t// out\n            /* \"#utility.yul\":2890:3219   */\n        tag_30:\n            /* \"#utility.yul\":2949:2955   */\n          0x00\n            /* \"#utility.yul\":2998:3000   */\n          0x20\n            /* \"#utility.yul\":2986:2995   */\n          dup3\n            /* \"#utility.yul\":2977:2984   */\n          dup5\n            /* \"#utility.yul\":2973:2996   */\n          sub\n            /* \"#utility.yul\":2969:3001   */\n          slt\n            /* \"#utility.yul\":2966:3085   */\n          iszero\n          tag_147\n          jumpi\n            /* \"#utility.yul\":3004:3083   */\n          tag_148\n          tag_80\n          jump\t// in\n        tag_148:\n            /* \"#utility.yul\":2966:3085   */\n        tag_147:\n            /* \"#utility.yul\":3124:3125   */\n          0x00\n            /* \"#utility.yul\":3149:3202   */\n          tag_149\n            /* \"#utility.yul\":3194:3201   */\n          dup5\n            /* \"#utility.yul\":3185:3191   */\n          dup3\n            /* \"#utility.yul\":3174:3183   */\n          dup6\n            /* \"#utility.yul\":3170:3192   */\n          add\n            /* \"#utility.yul\":3149:3202   */\n          tag_93\n          jump\t// in\n        tag_149:\n            /* \"#utility.yul\":3139:3202   */\n          swap2\n          pop\n            /* \"#utility.yul\":3095:3212   */\n          pop\n            /* \"#utility.yul\":2890:3219   */\n          swap3\n          swap2\n          pop\n          pop\n          jump\t// out\n            /* \"#utility.yul\":3225:3334   */\n        tag_94:\n            /* \"#utility.yul\":3306:3327   */\n          tag_151\n            /* \"#utility.yul\":3321:3326   */\n          dup2\n            /* \"#utility.yul\":3306:3327   */\n          tag_82\n          jump\t// in\n        tag_151:\n            /* \"#utility.yul\":3301:3304   */\n          dup3\n            /* \"#utility.yul\":3294:3328   */\n          mstore\n            /* \"#utility.yul\":3225:3334   */\n          pop\n          pop\n          jump\t// out\n            /* \"#utility.yul\":3340:3550   */\n        tag_33:\n            /* \"#utility.yul\":3427:3431   */\n          0x00\n            /* \"#utility.yul\":3465:3467   */\n          0x20\n            /* \"#utility.yul\":3454:3463   */\n          dup3\n            /* \"#utility.yul\":3450:3468   */\n          add\n            /* \"#utility.yul\":3442:3468   */\n          swap1\n          pop\n            /* \"#utility.yul\":3478:3543   */\n          tag_153\n            /* \"#utility.yul\":3540:3541   */\n          0x00\n            /* \"#utility.yul\":3529:3538   */\n          dup4\n            /* \"#utility.yul\":3525:3542   */\n          add\n            /* \"#utility.yul\":3516:3522   */\n          dup5\n            /* \"#utility.yul\":3478:3543   */\n          tag_94\n          jump\t// in\n        tag_153:\n            /* \"#utility.yul\":3340:3550   */\n          swap3\n          swap2\n          pop\n          pop\n          jump\t// out\n            /* \"#utility.yul\":3556:3673   */\n        tag_95:\n            /* \"#utility.yul\":3665:3666   */\n          0x00\n            /* \"#utility.yul\":3662:3663   */\n          dup1\n            /* \"#utility.yul\":3655:3667   */\n          revert\n            /* \"#utility.yul\":3679:3796   */\n        tag_96:\n            /* \"#utility.yul\":3788:3789   */\n          0x00\n            /* \"#utility.yul\":3785:3786   */\n          dup1\n            /* \"#utility.yul\":3778:3790   */\n          revert\n            /* \"#utility.yul\":3802:3919   */\n        tag_97:\n            /* \"#utility.yul\":3911:3912   */\n          0x00\n            /* \"#utility.yul\":3908:3909   */\n          dup1\n            /* \"#utility.yul\":3901:3913   */\n          revert\n            /* \"#utility.yul\":3942:4510   */\n        tag_98:\n            /* \"#utility.yul\":4015:4023   */\n          0x00\n            /* \"#utility.yul\":4025:4031   */\n          dup1\n            /* \"#utility.yul\":4075:4078   */\n          dup4\n            /* \"#utility.yul\":4068:4072   */\n          0x1f\n            /* \"#utility.yul\":4060:4066   */\n          dup5\n            /* \"#utility.yul\":4056:4073   */\n          add\n            /* \"#utility.yul\":4052:4079   */\n          slt\n            /* \"#utility.yul\":4042:4164   */\n          tag_158\n          jumpi\n            /* \"#utility.yul\":4083:4162   */\n          tag_159\n          tag_95\n          jump\t// in\n        tag_159:\n            /* \"#utility.yul\":4042:4164   */\n        tag_158:\n            /* \"#utility.yul\":4196:4202   */\n          dup3\n            /* \"#utility.yul\":4183:4203   */\n          calldataload\n            /* \"#utility.yul\":4173:4203   */\n          swap1\n          pop\n            /* \"#utility.yul\":4226:4244   */\n          0xffffffffffffffff\n            /* \"#utility.yul\":4218:4224   */\n          dup2\n            /* \"#utility.yul\":4215:4245   */\n          gt\n            /* \"#utility.yul\":4212:4329   */\n          iszero\n          tag_160\n          jumpi\n            /* \"#utility.yul\":4248:4327   */\n          tag_161\n          tag_96\n          jump\t// in\n        tag_161:\n            /* \"#utility.yul\":4212:4329   */\n        tag_160:\n            /* \"#utility.yul\":4362:4366   */\n          0x20\n            /* \"#utility.yul\":4354:4360   */\n          dup4\n            /* \"#utility.yul\":4350:4367   */\n          add\n            /* \"#utility.yul\":4338:4367   */\n          swap2\n          pop\n            /* \"#utility.yul\":4416:4419   */\n          dup4\n            /* \"#utility.yul\":4408:4412   */\n          0x20\n            /* \"#utility.yul\":4400:4406   */\n          dup3\n            /* \"#utility.yul\":4396:4413   */\n          mul\n            /* \"#utility.yul\":4386:4394   */\n          dup4\n            /* \"#utility.yul\":4382:4414   */\n          add\n            /* \"#utility.yul\":4379:4420   */\n          gt\n            /* \"#utility.yul\":4376:4504   */\n          iszero\n          tag_162\n          jumpi\n            /* \"#utility.yul\":4423:4502   */\n          tag_163\n          tag_97\n          jump\t// in\n        tag_163:\n            /* \"#utility.yul\":4376:4504   */\n        tag_162:\n            /* \"#utility.yul\":3942:4510   */\n          swap3\n          pop\n          swap3\n          swap1\n          pop\n          jump\t// out\n            /* \"#utility.yul\":4516:5214   */\n        tag_37:\n            /* \"#utility.yul\":4608:4614   */\n          0x00\n            /* \"#utility.yul\":4616:4622   */\n          dup1\n            /* \"#utility.yul\":4624:4630   */\n          0x00\n            /* \"#utility.yul\":4673:4675   */\n          0x40\n            /* \"#utility.yul\":4661:4670   */\n          dup5\n            /* \"#utility.yul\":4652:4659   */\n          dup7\n            /* \"#utility.yul\":4648:4671   */\n          sub\n            /* \"#utility.yul\":4644:4676   */\n          slt\n            /* \"#utility.yul\":4641:4760   */\n          iszero\n          tag_165\n          jumpi\n            /* \"#utility.yul\":4679:4758   */\n          tag_166\n          tag_80\n          jump\t// in\n        tag_166:\n            /* \"#utility.yul\":4641:4760   */\n        tag_165:\n            /* \"#utility.yul\":4827:4828   */\n          0x00\n            /* \"#utility.yul\":4816:4825   */\n          dup5\n            /* \"#utility.yul\":4812:4829   */\n          add\n            /* \"#utility.yul\":4799:4830   */\n          calldataload\n            /* \"#utility.yul\":4857:4875   */\n          0xffffffffffffffff\n            /* \"#utility.yul\":4849:4855   */\n          dup2\n            /* \"#utility.yul\":4846:4876   */\n          gt\n            /* \"#utility.yul\":4843:4960   */\n          iszero\n          tag_167\n          jumpi\n            /* \"#utility.yul\":4879:4958   */\n          tag_168\n          tag_81\n          jump\t// in\n        tag_168:\n            /* \"#utility.yul\":4843:4960   */\n        tag_167:\n            /* \"#utility.yul\":4992:5072   */\n          tag_169\n            /* \"#utility.yul\":5064:5071   */\n          dup7\n            /* \"#utility.yul\":5055:5061   */\n          dup3\n            /* \"#utility.yul\":5044:5053   */\n          dup8\n            /* \"#utility.yul\":5040:5062   */\n          add\n            /* \"#utility.yul\":4992:5072   */\n          tag_98\n          jump\t// in\n        tag_169:\n            /* \"#utility.yul\":4974:5072   */\n          swap4\n          pop\n          swap4\n          pop\n            /* \"#utility.yul\":4770:5082   */\n          pop\n            /* \"#utility.yul\":5121:5123   */\n          0x20\n            /* \"#utility.yul\":5147:5197   */\n          tag_170\n            /* \"#utility.yul\":5189:5196   */\n          dup7\n            /* \"#utility.yul\":5180:5186   */\n          dup3\n            /* \"#utility.yul\":5169:5178   */\n          dup8\n            /* \"#utility.yul\":5165:5187   */\n          add\n            /* \"#utility.yul\":5147:5197   */\n          tag_84\n          jump\t// in\n        tag_170:\n            /* \"#utility.yul\":5137:5197   */\n          swap2\n          pop\n            /* \"#utility.yul\":5092:5207   */\n          pop\n            /* \"#utility.yul\":4516:5214   */\n          swap3\n          pop\n          swap3\n          pop\n          swap3\n          jump\t// out\n            /* \"#utility.yul\":5220:5338   */\n        tag_99:\n            /* \"#utility.yul\":5307:5331   */\n          tag_172\n            /* \"#utility.yul\":5325:5330   */\n          dup2\n            /* \"#utility.yul\":5307:5331   */\n          tag_91\n          jump\t// in\n        tag_172:\n            /* \"#utility.yul\":5302:5305   */\n          dup3\n            /* \"#utility.yul\":5295:5332   */\n          mstore\n            /* \"#utility.yul\":5220:5338   */\n          pop\n          pop\n          jump\t// out\n            /* \"#utility.yul\":5344:5566   */\n        tag_43:\n            /* \"#utility.yul\":5437:5441   */\n          0x00\n            /* \"#utility.yul\":5475:5477   */\n          0x20\n            /* \"#utility.yul\":5464:5473   */\n          dup3\n            /* \"#utility.yul\":5460:5478   */\n          add\n            /* \"#utility.yul\":5452:5478   */\n          swap1\n          pop\n            /* \"#utility.yul\":5488:5559   */\n          tag_174\n            /* \"#utility.yul\":5556:5557   */\n          0x00\n            /* \"#utility.yul\":5545:5554   */\n          dup4\n            /* \"#utility.yul\":5541:5558   */\n          add\n            /* \"#utility.yul\":5532:5538   */\n          dup5\n            /* \"#utility.yul\":5488:5559   */\n          tag_99\n          jump\t// in\n        tag_174:\n            /* \"#utility.yul\":5344:5566   */\n          swap3\n          swap2\n          pop\n          pop\n          jump\t// out\n            /* \"#utility.yul\":5572:5741   */\n        tag_100:\n            /* \"#utility.yul\":5656:5667   */\n          0x00\n            /* \"#utility.yul\":5690:5696   */\n          dup3\n            /* \"#utility.yul\":5685:5688   */\n          dup3\n            /* \"#utility.yul\":5678:5697   */\n          mstore\n            /* \"#utility.yul\":5730:5734   */\n          0x20\n            /* \"#utility.yul\":5725:5728   */\n          dup3\n            /* \"#utility.yul\":5721:5735   */\n          add\n            /* \"#utility.yul\":5706:5735   */\n          swap1\n          pop\n            /* \"#utility.yul\":5572:5741   */\n          swap3\n          swap2\n          pop\n          pop\n          jump\t// out\n            /* \"#utility.yul\":5747:5906   */\n        tag_101:\n            /* \"#utility.yul\":5887:5898   */\n          0x4e6f742061204f776e0000000000000000000000000000000000000000000000\n            /* \"#utility.yul\":5883:5884   */\n          0x00\n            /* \"#utility.yul\":5875:5881   */\n          dup3\n            /* \"#utility.yul\":5871:5885   */\n          add\n            /* \"#utility.yul\":5864:5899   */\n          mstore\n            /* \"#utility.yul\":5747:5906   */\n          pop\n          jump\t// out\n            /* \"#utility.yul\":5912:6277   */\n        tag_102:\n            /* \"#utility.yul\":6054:6057   */\n          0x00\n            /* \"#utility.yul\":6075:6141   */\n          tag_178\n            /* \"#utility.yul\":6139:6140   */\n          0x09\n            /* \"#utility.yul\":6134:6137   */\n          dup4\n            /* \"#utility.yul\":6075:6141   */\n          tag_100\n          jump\t// in\n        tag_178:\n            /* \"#utility.yul\":6068:6141   */\n          swap2\n          pop\n            /* \"#utility.yul\":6150:6243   */\n          tag_179\n            /* \"#utility.yul\":6239:6242   */\n          dup3\n            /* \"#utility.yul\":6150:6243   */\n          tag_101\n          jump\t// in\n        tag_179:\n            /* \"#utility.yul\":6268:6270   */\n          0x20\n            /* \"#utility.yul\":6263:6266   */\n          dup3\n            /* \"#utility.yul\":6259:6271   */\n          add\n            /* \"#utility.yul\":6252:6271   */\n          swap1\n          pop\n            /* \"#utility.yul\":5912:6277   */\n          swap2\n          swap1\n          pop\n          jump\t// out\n            /* \"#utility.yul\":6283:6702   */\n        tag_57:\n            /* \"#utility.yul\":6449:6453   */\n          0x00\n            /* \"#utility.yul\":6487:6489   */\n          0x20\n            /* \"#utility.yul\":6476:6485   */\n          dup3\n            /* \"#utility.yul\":6472:6490   */\n          add\n            /* \"#utility.yul\":6464:6490   */\n          swap1\n          pop\n            /* \"#utility.yul\":6536:6545   */\n          dup2\n            /* \"#utility.yul\":6530:6534   */\n          dup2\n            /* \"#utility.yul\":6526:6546   */\n          sub\n            /* \"#utility.yul\":6522:6523   */\n          0x00\n            /* \"#utility.yul\":6511:6520   */\n          dup4\n            /* \"#utility.yul\":6507:6524   */\n          add\n            /* \"#utility.yul\":6500:6547   */\n          mstore\n            /* \"#utility.yul\":6564:6695   */\n          tag_181\n            /* \"#utility.yul\":6690:6694   */\n          dup2\n            /* \"#utility.yul\":6564:6695   */\n          tag_102\n          jump\t// in\n        tag_181:\n            /* \"#utility.yul\":6556:6695   */\n          swap1\n          pop\n            /* \"#utility.yul\":6283:6702   */\n          swap2\n          swap1\n          pop\n          jump\t// out\n            /* \"#utility.yul\":6708:6888   */\n        tag_68:\n            /* \"#utility.yul\":6756:6833   */\n          0x4e487b7100000000000000000000000000000000000000000000000000000000\n            /* \"#utility.yul\":6753:6754   */\n          0x00\n            /* \"#utility.yul\":6746:6834   */\n          mstore\n            /* \"#utility.yul\":6853:6857   */\n          0x32\n            /* \"#utility.yul\":6850:6851   */\n          0x04\n            /* \"#utility.yul\":6843:6858   */\n          mstore\n            /* \"#utility.yul\":6877:6881   */\n          0x24\n            /* \"#utility.yul\":6874:6875   */\n          0x00\n            /* \"#utility.yul\":6867:6882   */\n          revert\n            /* \"#utility.yul\":6894:7074   */\n        tag_103:\n            /* \"#utility.yul\":6942:7019   */\n          0x4e487b7100000000000000000000000000000000000000000000000000000000\n            /* \"#utility.yul\":6939:6940   */\n          0x00\n            /* \"#utility.yul\":6932:7020   */\n          mstore\n            /* \"#utility.yul\":7039:7043   */\n          0x11\n            /* \"#utility.yul\":7036:7037   */\n          0x04\n            /* \"#utility.yul\":7029:7044   */\n          mstore\n            /* \"#utility.yul\":7063:7067   */\n          0x24\n            /* \"#utility.yul\":7060:7061   */\n          0x00\n            /* \"#utility.yul\":7053:7068   */\n          revert\n            /* \"#utility.yul\":7080:7313   */\n        tag_71:\n            /* \"#utility.yul\":7119:7122   */\n          0x00\n            /* \"#utility.yul\":7142:7166   */\n          tag_185\n            /* \"#utility.yul\":7160:7165   */\n          dup3\n            /* \"#utility.yul\":7142:7166   */\n          tag_77\n          jump\t// in\n        tag_185:\n            /* \"#utility.yul\":7133:7166   */\n          swap2\n          pop\n            /* \"#utility.yul\":7188:7254   */\n          0xffffffffffffffffffffffffffffffffffffffffffffffffffffffffffffffff\n            /* \"#utility.yul\":7181:7186   */\n          dup3\n            /* \"#utility.yul\":7178:7255   */\n          sub\n            /* \"#utility.yul\":7175:7278   */\n          tag_186\n          jumpi\n            /* \"#utility.yul\":7258:7276   */\n          tag_187\n          tag_103\n          jump\t// in\n        tag_187:\n            /* \"#utility.yul\":7175:7278   */\n        tag_186:\n            /* \"#utility.yul\":7305:7306   */\n          0x01\n            /* \"#utility.yul\":7298:7303   */\n          dup3\n            /* \"#utility.yul\":7294:7307   */\n          add\n            /* \"#utility.yul\":7287:7307   */\n          swap1\n          pop\n            /* \"#utility.yul\":7080:7313   */\n          swap2\n          swap1\n          pop\n          jump\t// out\n            /* \"#utility.yul\":7319:7547   */\n        tag_104:\n            /* \"#utility.yul\":7459:7493   */\n          0x536f72727920796f7520617265206e6f7420616c6c6f77656420746f2020636f\n            /* \"#utility.yul\":7455:7456   */\n          0x00\n            /* \"#utility.yul\":7447:7453   */\n          dup3\n            /* \"#utility.yul\":7443:7457   */\n          add\n            /* \"#utility.yul\":7436:7494   */\n          mstore\n            /* \"#utility.yul\":7528:7539   */\n          0x6e74726962757465200000000000000000000000000000000000000000000000\n            /* \"#utility.yul\":7523:7525   */\n          0x20\n            /* \"#utility.yul\":7515:7521   */\n          dup3\n            /* \"#utility.yul\":7511:7526   */\n          add\n            /* \"#utility.yul\":7504:7540   */\n          mstore\n            /* \"#utility.yul\":7319:7547   */\n          pop\n          jump\t// out\n            /* \"#utility.yul\":7553:7919   */\n        tag_105:\n            /* \"#utility.yul\":7695:7698   */\n          0x00\n            /* \"#utility.yul\":7716:7783   */\n          tag_190\n            /* \"#utility.yul\":7780:7782   */\n          0x29\n            /* \"#utility.yul\":7775:7778   */\n          dup4\n            /* \"#utility.yul\":7716:7783   */\n          tag_100\n          jump\t// in\n        tag_190:\n            /* \"#utility.yul\":7709:7783   */\n          swap2\n          pop\n            /* \"#utility.yul\":7792:7885   */\n          tag_191\n            /* \"#utility.yul\":7881:7884   */\n          dup3\n            /* \"#utility.yul\":7792:7885   */\n          tag_104\n          jump\t// in\n        tag_191:\n            /* \"#utility.yul\":7910:7912   */\n          0x40\n            /* \"#utility.yul\":7905:7908   */\n          dup3\n            /* \"#utility.yul\":7901:7913   */\n          add\n            /* \"#utility.yul\":7894:7913   */\n          swap1\n          pop\n            /* \"#utility.yul\":7553:7919   */\n          swap2\n          swap1\n          pop\n          jump\t// out\n            /* \"#utility.yul\":7925:8344   */\n        tag_76:\n            /* \"#utility.yul\":8091:8095   */\n          0x00\n            /* \"#utility.yul\":8129:8131   */\n          0x20\n            /* \"#utility.yul\":8118:8127   */\n          dup3\n            /* \"#utility.yul\":8114:8132   */\n          add\n            /* \"#utility.yul\":8106:8132   */\n          swap1\n          pop\n            /* \"#utility.yul\":8178:8187   */\n          dup2\n            /* \"#utility.yul\":8172:8176   */\n          dup2\n            /* \"#utility.yul\":8168:8188   */\n          sub\n            /* \"#utility.yul\":8164:8165   */\n          0x00\n            /* \"#utility.yul\":8153:8162   */\n          dup4\n            /* \"#utility.yul\":8149:8166   */\n          add\n            /* \"#utility.yul\":8142:8189   */\n          mstore\n            /* \"#utility.yul\":8206:8337   */\n          tag_193\n            /* \"#utility.yul\":8332:8336   */\n          dup2\n            /* \"#utility.yul\":8206:8337   */\n          tag_105\n          jump\t// in\n        tag_193:\n            /* \"#utility.yul\":8198:8337   */\n          swap1\n          pop\n            /* \"#utility.yul\":7925:8344   */\n          swap2\n          swap1\n          pop\n          jump\t// out\n\n        auxdata: 0xa2646970667358221220eddc059901928f1ba51ba5adc11f6a77dad70289e3e1493fc282d8ce9de6ec3f64736f6c634300080e0033\n    }\n}\n",
				"bytecode": {
					"linkReferences": {},
					"object": "60806040523480156200001157600080fd5b506040518060400160405280600a81526020017f4e6f6c616e20436f696e000000000000000000000000000000000000000000008152506040518060400160405280600281526020017f4e6c0000000000000000000000000000000000000000000000000000000000008152508160039080519060200190620000969291906200034b565b508060049080519060200190620000af9291906200034b565b50505033600560006101000a81548173ffffffffffffffffffffffffffffffffffffffff021916908373ffffffffffffffffffffffffffffffffffffffff160217905550600560009054906101000a900473ffffffffffffffffffffffffffffffffffffffff16306040516200012590620003dc565b62000132929190620004b9565b604051809103906000f0801580156200014f573d6000803e3d6000fd5b50600660006101000a81548173ffffffffffffffffffffffffffffffffffffffff021916908373ffffffffffffffffffffffffffffffffffffffff160217905550620001ce600660009054906101000a900473ffffffffffffffffffffffffffffffffffffffff1669152d02c7e14af6800000620001d460201b60201c565b62000691565b600073ffffffffffffffffffffffffffffffffffffffff168273ffffffffffffffffffffffffffffffffffffffff160362000246576040517f08c379a00000000000000000000000000000000000000000000000000000000081526004016200023d9062000547565b60405180910390fd5b6200025a600083836200034160201b60201c565b80600260008282546200026e9190620005a2565b92505081905550806000808473ffffffffffffffffffffffffffffffffffffffff1673ffffffffffffffffffffffffffffffffffffffff168152602001908152602001600020600082825401925050819055508173ffffffffffffffffffffffffffffffffffffffff16600073ffffffffffffffffffffffffffffffffffffffff167fddf252ad1be2c89b69c2b068fc378daa952ba7f163c4a11628f55a4df523b3ef8360405162000321919062000610565b60405180910390a36200033d600083836200034660201b60201c565b5050565b505050565b505050565b82805462000359906200065c565b90600052602060002090601f0160209004810192826200037d5760008555620003c9565b82601f106200039857805160ff1916838001178555620003c9565b82800160010185558215620003c9579182015b82811115620003c8578251825591602001919060010190620003ab565b5b509050620003d89190620003ea565b5090565b610b8580620019d383390190565b5b8082111562000405576000816000905550600101620003eb565b5090565b600073ffffffffffffffffffffffffffffffffffffffff82169050919050565b6000620004368262000409565b9050919050565b620004488162000429565b82525050565b6000819050919050565b600062000479620004736200046d8462000409565b6200044e565b62000409565b9050919050565b60006200048d8262000458565b9050919050565b6000620004a18262000480565b9050919050565b620004b38162000494565b82525050565b6000604082019050620004d060008301856200043d565b620004df6020830184620004a8565b9392505050565b600082825260208201905092915050565b7f45524332303a206d696e7420746f20746865207a65726f206164647265737300600082015250565b60006200052f601f83620004e6565b91506200053c82620004f7565b602082019050919050565b60006020820190508181036000830152620005628162000520565b9050919050565b6000819050919050565b7f4e487b7100000000000000000000000000000000000000000000000000000000600052601160045260246000fd5b6000620005af8262000569565b9150620005bc8362000569565b9250827fffffffffffffffffffffffffffffffffffffffffffffffffffffffffffffffff03821115620005f457620005f362000573565b5b828201905092915050565b6200060a8162000569565b82525050565b6000602082019050620006276000830184620005ff565b92915050565b7f4e487b7100000000000000000000000000000000000000000000000000000000600052602260045260246000fd5b600060028204905060018216806200067557607f821691505b6020821081036200068b576200068a6200062d565b5b50919050565b61133280620006a16000396000f3fe608060405234801561001057600080fd5b50600436106100cf5760003560e01c80635d4522011161008c57806395d89b411161006657806395d89b411461022a578063a457c2d714610248578063a9059cbb14610278578063dd62ed3e146102a8576100cf565b80635d452201146101be57806370a08231146101dc5780638da5cb5b1461020c576100cf565b806306fdde03146100d4578063095ea7b3146100f257806318160ddd1461012257806323b872dd14610140578063313ce56714610170578063395093511461018e575b600080fd5b6100dc6102d8565b6040516100e99190610bc3565b60405180910390f35b61010c60048036038101906101079190610c7e565b61036a565b6040516101199190610cd9565b60405180910390f35b61012a61038d565b6040516101379190610d03565b60405180910390f35b61015a60048036038101906101559190610d1e565b610397565b6040516101679190610cd9565b60405180910390f35b6101786103c6565b6040516101859190610d8d565b60405180910390f35b6101a860048036038101906101a39190610c7e565b6103cf565b6040516101b59190610cd9565b60405180910390f35b6101c6610406565b6040516101d39190610db7565b60405180910390f35b6101f660048036038101906101f19190610dd2565b61042c565b6040516102039190610d03565b60405180910390f35b610214610474565b6040516102219190610db7565b60405180910390f35b61023261049a565b60405161023f9190610bc3565b60405180910390f35b610262600480360381019061025d9190610c7e565b61052c565b60405161026f9190610cd9565b60405180910390f35b610292600480360381019061028d9190610c7e565b6105a3565b60405161029f9190610cd9565b60405180910390f35b6102c260048036038101906102bd9190610dff565b6105c6565b6040516102cf9190610d03565b60405180910390f35b6060600380546102e790610e6e565b80601f016020809104026020016040519081016040528092919081815260200182805461031390610e6e565b80156103605780601f1061033557610100808354040283529160200191610360565b820191906000526020600020905b81548152906001019060200180831161034357829003601f168201915b5050505050905090565b60008061037561064d565b9050610382818585610655565b600191505092915050565b6000600254905090565b6000806103a261064d565b90506103af85828561081e565b6103ba8585856108aa565b60019150509392505050565b60006012905090565b6000806103da61064d565b90506103fb8185856103ec85896105c6565b6103f69190610ece565b610655565b600191505092915050565b600660009054906101000a900473ffffffffffffffffffffffffffffffffffffffff1681565b60008060008373ffffffffffffffffffffffffffffffffffffffff1673ffffffffffffffffffffffffffffffffffffffff168152602001908152602001600020549050919050565b600560009054906101000a900473ffffffffffffffffffffffffffffffffffffffff1681565b6060600480546104a990610e6e565b80601f01602080910402602001604051908101604052809291908181526020018280546104d590610e6e565b80156105225780601f106104f757610100808354040283529160200191610522565b820191906000526020600020905b81548152906001019060200180831161050557829003601f168201915b5050505050905090565b60008061053761064d565b9050600061054582866105c6565b90508381101561058a576040517f08c379a000000000000000000000000000000000000000000000000000000000815260040161058190610f96565b60405180910390fd5b6105978286868403610655565b60019250505092915050565b6000806105ae61064d565b90506105bb8185856108aa565b600191505092915050565b6000600160008473ffffffffffffffffffffffffffffffffffffffff1673ffffffffffffffffffffffffffffffffffffffff16815260200190815260200160002060008373ffffffffffffffffffffffffffffffffffffffff1673ffffffffffffffffffffffffffffffffffffffff16815260200190815260200160002054905092915050565b600033905090565b600073ffffffffffffffffffffffffffffffffffffffff168373ffffffffffffffffffffffffffffffffffffffff16036106c4576040517f08c379a00000000000000000000000000000000000000000000000000000000081526004016106bb90611028565b60405180910390fd5b600073ffffffffffffffffffffffffffffffffffffffff168273ffffffffffffffffffffffffffffffffffffffff1603610733576040517f08c379a000000000000000000000000000000000000000000000000000000000815260040161072a906110ba565b60405180910390fd5b80600160008573ffffffffffffffffffffffffffffffffffffffff1673ffffffffffffffffffffffffffffffffffffffff16815260200190815260200160002060008473ffffffffffffffffffffffffffffffffffffffff1673ffffffffffffffffffffffffffffffffffffffff168152602001908152602001600020819055508173ffffffffffffffffffffffffffffffffffffffff168373ffffffffffffffffffffffffffffffffffffffff167f8c5be1e5ebec7d5bd14f71427d1e84f3dd0314c0f7b2291e5b200ac8c7c3b925836040516108119190610d03565b60405180910390a3505050565b600061082a84846105c6565b90507fffffffffffffffffffffffffffffffffffffffffffffffffffffffffffffffff81146108a45781811015610896576040517f08c379a000000000000000000000000000000000000000000000000000000000815260040161088d90611126565b60405180910390fd5b6108a38484848403610655565b5b50505050565b600073ffffffffffffffffffffffffffffffffffffffff168373ffffffffffffffffffffffffffffffffffffffff1603610919576040517f08c379a0000000000000000000000000000000000000000000000000000000008152600401610910906111b8565b60405180910390fd5b600073ffffffffffffffffffffffffffffffffffffffff168273ffffffffffffffffffffffffffffffffffffffff1603610988576040517f08c379a000000000000000000000000000000000000000000000000000000000815260040161097f9061124a565b60405180910390fd5b610993838383610b20565b60008060008573ffffffffffffffffffffffffffffffffffffffff1673ffffffffffffffffffffffffffffffffffffffff16815260200190815260200160002054905081811015610a19576040517f08c379a0000000000000000000000000000000000000000000000000000000008152600401610a10906112dc565b60405180910390fd5b8181036000808673ffffffffffffffffffffffffffffffffffffffff1673ffffffffffffffffffffffffffffffffffffffff16815260200190815260200160002081905550816000808573ffffffffffffffffffffffffffffffffffffffff1673ffffffffffffffffffffffffffffffffffffffff168152602001908152602001600020600082825401925050819055508273ffffffffffffffffffffffffffffffffffffffff168473ffffffffffffffffffffffffffffffffffffffff167fddf252ad1be2c89b69c2b068fc378daa952ba7f163c4a11628f55a4df523b3ef84604051610b079190610d03565b60405180910390a3610b1a848484610b25565b50505050565b505050565b505050565b600081519050919050565b600082825260208201905092915050565b60005b83811015610b64578082015181840152602081019050610b49565b83811115610b73576000848401525b50505050565b6000601f19601f8301169050919050565b6000610b9582610b2a565b610b9f8185610b35565b9350610baf818560208601610b46565b610bb881610b79565b840191505092915050565b60006020820190508181036000830152610bdd8184610b8a565b905092915050565b600080fd5b600073ffffffffffffffffffffffffffffffffffffffff82169050919050565b6000610c1582610bea565b9050919050565b610c2581610c0a565b8114610c3057600080fd5b50565b600081359050610c4281610c1c565b92915050565b6000819050919050565b610c5b81610c48565b8114610c6657600080fd5b50565b600081359050610c7881610c52565b92915050565b60008060408385031215610c9557610c94610be5565b5b6000610ca385828601610c33565b9250506020610cb485828601610c69565b9150509250929050565b60008115159050919050565b610cd381610cbe565b82525050565b6000602082019050610cee6000830184610cca565b92915050565b610cfd81610c48565b82525050565b6000602082019050610d186000830184610cf4565b92915050565b600080600060608486031215610d3757610d36610be5565b5b6000610d4586828701610c33565b9350506020610d5686828701610c33565b9250506040610d6786828701610c69565b9150509250925092565b600060ff82169050919050565b610d8781610d71565b82525050565b6000602082019050610da26000830184610d7e565b92915050565b610db181610c0a565b82525050565b6000602082019050610dcc6000830184610da8565b92915050565b600060208284031215610de857610de7610be5565b5b6000610df684828501610c33565b91505092915050565b60008060408385031215610e1657610e15610be5565b5b6000610e2485828601610c33565b9250506020610e3585828601610c33565b9150509250929050565b7f4e487b7100000000000000000000000000000000000000000000000000000000600052602260045260246000fd5b60006002820490506001821680610e8657607f821691505b602082108103610e9957610e98610e3f565b5b50919050565b7f4e487b7100000000000000000000000000000000000000000000000000000000600052601160045260246000fd5b6000610ed982610c48565b9150610ee483610c48565b9250827fffffffffffffffffffffffffffffffffffffffffffffffffffffffffffffffff03821115610f1957610f18610e9f565b5b828201905092915050565b7f45524332303a2064656372656173656420616c6c6f77616e63652062656c6f7760008201527f207a65726f000000000000000000000000000000000000000000000000000000602082015250565b6000610f80602583610b35565b9150610f8b82610f24565b604082019050919050565b60006020820190508181036000830152610faf81610f73565b9050919050565b7f45524332303a20617070726f76652066726f6d20746865207a65726f2061646460008201527f7265737300000000000000000000000000000000000000000000000000000000602082015250565b6000611012602483610b35565b915061101d82610fb6565b604082019050919050565b6000602082019050818103600083015261104181611005565b9050919050565b7f45524332303a20617070726f766520746f20746865207a65726f20616464726560008201527f7373000000000000000000000000000000000000000000000000000000000000602082015250565b60006110a4602283610b35565b91506110af82611048565b604082019050919050565b600060208201905081810360008301526110d381611097565b9050919050565b7f45524332303a20696e73756666696369656e7420616c6c6f77616e6365000000600082015250565b6000611110601d83610b35565b915061111b826110da565b602082019050919050565b6000602082019050818103600083015261113f81611103565b9050919050565b7f45524332303a207472616e736665722066726f6d20746865207a65726f20616460008201527f6472657373000000000000000000000000000000000000000000000000000000602082015250565b60006111a2602583610b35565b91506111ad82611146565b604082019050919050565b600060208201905081810360008301526111d181611195565b9050919050565b7f45524332303a207472616e7366657220746f20746865207a65726f206164647260008201527f6573730000000000000000000000000000000000000000000000000000000000602082015250565b6000611234602383610b35565b915061123f826111d8565b604082019050919050565b6000602082019050818103600083015261126381611227565b9050919050565b7f45524332303a207472616e7366657220616d6f756e742065786365656473206260008201527f616c616e63650000000000000000000000000000000000000000000000000000602082015250565b60006112c6602683610b35565b91506112d18261126a565b604082019050919050565b600060208201905081810360008301526112f5816112b9565b905091905056fea2646970667358221220075a75b211e418bec5644458f485f12c6e35a11118acacb6844b7f12ddd2d6ca64736f6c634300080e003360806040526000600160146101000a81548160ff02191690831515021790555034801561002b57600080fd5b5060405162000b8538038062000b85833981810160405281019061004f9190610178565b816000806101000a81548173ffffffffffffffffffffffffffffffffffffffff021916908373ffffffffffffffffffffffffffffffffffffffff16021790555080600160006101000a81548173ffffffffffffffffffffffffffffffffffffffff021916908373ffffffffffffffffffffffffffffffffffffffff16021790555050506101b8565b600080fd5b600073ffffffffffffffffffffffffffffffffffffffff82169050919050565b6000610107826100dc565b9050919050565b610117816100fc565b811461012257600080fd5b50565b6000815190506101348161010e565b92915050565b6000610145826100fc565b9050919050565b6101558161013a565b811461016057600080fd5b50565b6000815190506101728161014c565b92915050565b6000806040838503121561018f5761018e6100d7565b5b600061019d85828601610125565b92505060206101ae85828601610163565b9150509250929050565b6109bd80620001c86000396000f3fe6080604052600436106100855760003560e01c806383ae0e9c1161005957806383ae0e9c146101465780638da5cb5b1461016f57806395dda98e1461019a578063b02f376f146101a4578063dc9a1535146101cf57610085565b8062148a691461008a5780630e21f59f146100b557806312f265ef146100de5780632848aeaf14610109575b600080fd5b34801561009657600080fd5b5061009f6101fa565b6040516100ac919061052a565b60405180910390f35b3480156100c157600080fd5b506100dc60048036038101906100d79190610587565b6101ff565b005b3480156100ea57600080fd5b506100f36102aa565b6040516101009190610633565b60405180910390f35b34801561011557600080fd5b50610130600480360381019061012b919061068c565b6102d0565b60405161013d91906106c8565b60405180910390f35b34801561015257600080fd5b5061016d60048036038101906101689190610748565b6102f0565b005b34801561017b57600080fd5b50610184610423565b60405161019191906107b7565b60405180910390f35b6101a2610447565b005b3480156101b057600080fd5b506101b96104f1565b6040516101c6919061052a565b60405180910390f35b3480156101db57600080fd5b506101e46104fe565b6040516101f191906106c8565b60405180910390f35b600581565b60008054906101000a900473ffffffffffffffffffffffffffffffffffffffff1673ffffffffffffffffffffffffffffffffffffffff163373ffffffffffffffffffffffffffffffffffffffff161461028d576040517f08c379a00000000000000000000000000000000000000000000000000000000081526004016102849061082f565b60405180910390fd5b80600160146101000a81548160ff02191690831515021790555050565b600160009054906101000a900473ffffffffffffffffffffffffffffffffffffffff1681565b60026020528060005260406000206000915054906101000a900460ff1681565b60008054906101000a900473ffffffffffffffffffffffffffffffffffffffff1673ffffffffffffffffffffffffffffffffffffffff163373ffffffffffffffffffffffffffffffffffffffff161461037e576040517f08c379a00000000000000000000000000000000000000000000000000000000081526004016103759061082f565b60405180910390fd5b60005b8383905081101561041d5781600260008686858181106103a4576103a361084f565b5b90506020020160208101906103b9919061068c565b73ffffffffffffffffffffffffffffffffffffffff1673ffffffffffffffffffffffffffffffffffffffff16815260200190815260200160002060006101000a81548160ff0219169083151502179055508080610415906108ad565b915050610381565b50505050565b60008054906101000a900473ffffffffffffffffffffffffffffffffffffffff1681565b60001515600160149054906101000a900460ff161515036104ef57600260003373ffffffffffffffffffffffffffffffffffffffff1673ffffffffffffffffffffffffffffffffffffffff16815260200190815260200160002060009054906101000a900460ff166104ee576040517f973d02cb0000000000000000000000000000000000000000000000000000000081526004016104e590610967565b60405180910390fd5b5b565b68056bc75e2d6310000081565b600160149054906101000a900460ff1681565b6000819050919050565b61052481610511565b82525050565b600060208201905061053f600083018461051b565b92915050565b600080fd5b600080fd5b60008115159050919050565b6105648161054f565b811461056f57600080fd5b50565b6000813590506105818161055b565b92915050565b60006020828403121561059d5761059c610545565b5b60006105ab84828501610572565b91505092915050565b600073ffffffffffffffffffffffffffffffffffffffff82169050919050565b6000819050919050565b60006105f96105f46105ef846105b4565b6105d4565b6105b4565b9050919050565b600061060b826105de565b9050919050565b600061061d82610600565b9050919050565b61062d81610612565b82525050565b60006020820190506106486000830184610624565b92915050565b6000610659826105b4565b9050919050565b6106698161064e565b811461067457600080fd5b50565b60008135905061068681610660565b92915050565b6000602082840312156106a2576106a1610545565b5b60006106b084828501610677565b91505092915050565b6106c28161054f565b82525050565b60006020820190506106dd60008301846106b9565b92915050565b600080fd5b600080fd5b600080fd5b60008083601f840112610708576107076106e3565b5b8235905067ffffffffffffffff811115610725576107246106e8565b5b602083019150836020820283011115610741576107406106ed565b5b9250929050565b60008060006040848603121561076157610760610545565b5b600084013567ffffffffffffffff81111561077f5761077e61054a565b5b61078b868287016106f2565b9350935050602061079e86828701610572565b9150509250925092565b6107b18161064e565b82525050565b60006020820190506107cc60008301846107a8565b92915050565b600082825260208201905092915050565b7f4e6f742061204f776e0000000000000000000000000000000000000000000000600082015250565b60006108196009836107d2565b9150610824826107e3565b602082019050919050565b600060208201905081810360008301526108488161080c565b9050919050565b7f4e487b7100000000000000000000000000000000000000000000000000000000600052603260045260246000fd5b7f4e487b7100000000000000000000000000000000000000000000000000000000600052601160045260246000fd5b60006108b882610511565b91507fffffffffffffffffffffffffffffffffffffffffffffffffffffffffffffffff82036108ea576108e961087e565b5b600182019050919050565b7f536f72727920796f7520617265206e6f7420616c6c6f77656420746f2020636f60008201527f6e74726962757465200000000000000000000000000000000000000000000000602082015250565b60006109516029836107d2565b915061095c826108f5565b604082019050919050565b6000602082019050818103600083015261098081610944565b905091905056fea2646970667358221220eddc059901928f1ba51ba5adc11f6a77dad70289e3e1493fc282d8ce9de6ec3f64736f6c634300080e0033",
					"opcodes": "PUSH1 0x80 PUSH1 0x40 MSTORE CALLVALUE DUP1 ISZERO PUSH3 0x11 JUMPI PUSH1 0x0 DUP1 REVERT JUMPDEST POP PUSH1 0x40 MLOAD DUP1 PUSH1 0x40 ADD PUSH1 0x40 MSTORE DUP1 PUSH1 0xA DUP2 MSTORE PUSH1 0x20 ADD PUSH32 0x4E6F6C616E20436F696E00000000000000000000000000000000000000000000 DUP2 MSTORE POP PUSH1 0x40 MLOAD DUP1 PUSH1 0x40 ADD PUSH1 0x40 MSTORE DUP1 PUSH1 0x2 DUP2 MSTORE PUSH1 0x20 ADD PUSH32 0x4E6C000000000000000000000000000000000000000000000000000000000000 DUP2 MSTORE POP DUP2 PUSH1 0x3 SWAP1 DUP1 MLOAD SWAP1 PUSH1 0x20 ADD SWAP1 PUSH3 0x96 SWAP3 SWAP2 SWAP1 PUSH3 0x34B JUMP JUMPDEST POP DUP1 PUSH1 0x4 SWAP1 DUP1 MLOAD SWAP1 PUSH1 0x20 ADD SWAP1 PUSH3 0xAF SWAP3 SWAP2 SWAP1 PUSH3 0x34B JUMP JUMPDEST POP POP POP CALLER PUSH1 0x5 PUSH1 0x0 PUSH2 0x100 EXP DUP2 SLOAD DUP2 PUSH20 0xFFFFFFFFFFFFFFFFFFFFFFFFFFFFFFFFFFFFFFFF MUL NOT AND SWAP1 DUP4 PUSH20 0xFFFFFFFFFFFFFFFFFFFFFFFFFFFFFFFFFFFFFFFF AND MUL OR SWAP1 SSTORE POP PUSH1 0x5 PUSH1 0x0 SWAP1 SLOAD SWAP1 PUSH2 0x100 EXP SWAP1 DIV PUSH20 0xFFFFFFFFFFFFFFFFFFFFFFFFFFFFFFFFFFFFFFFF AND ADDRESS PUSH1 0x40 MLOAD PUSH3 0x125 SWAP1 PUSH3 0x3DC JUMP JUMPDEST PUSH3 0x132 SWAP3 SWAP2 SWAP1 PUSH3 0x4B9 JUMP JUMPDEST PUSH1 0x40 MLOAD DUP1 SWAP2 SUB SWAP1 PUSH1 0x0 CREATE DUP1 ISZERO DUP1 ISZERO PUSH3 0x14F JUMPI RETURNDATASIZE PUSH1 0x0 DUP1 RETURNDATACOPY RETURNDATASIZE PUSH1 0x0 REVERT JUMPDEST POP PUSH1 0x6 PUSH1 0x0 PUSH2 0x100 EXP DUP2 SLOAD DUP2 PUSH20 0xFFFFFFFFFFFFFFFFFFFFFFFFFFFFFFFFFFFFFFFF MUL NOT AND SWAP1 DUP4 PUSH20 0xFFFFFFFFFFFFFFFFFFFFFFFFFFFFFFFFFFFFFFFF AND MUL OR SWAP1 SSTORE POP PUSH3 0x1CE PUSH1 0x6 PUSH1 0x0 SWAP1 SLOAD SWAP1 PUSH2 0x100 EXP SWAP1 DIV PUSH20 0xFFFFFFFFFFFFFFFFFFFFFFFFFFFFFFFFFFFFFFFF AND PUSH10 0x152D02C7E14AF6800000 PUSH3 0x1D4 PUSH1 0x20 SHL PUSH1 0x20 SHR JUMP JUMPDEST PUSH3 0x691 JUMP JUMPDEST PUSH1 0x0 PUSH20 0xFFFFFFFFFFFFFFFFFFFFFFFFFFFFFFFFFFFFFFFF AND DUP3 PUSH20 0xFFFFFFFFFFFFFFFFFFFFFFFFFFFFFFFFFFFFFFFF AND SUB PUSH3 0x246 JUMPI PUSH1 0x40 MLOAD PUSH32 0x8C379A000000000000000000000000000000000000000000000000000000000 DUP2 MSTORE PUSH1 0x4 ADD PUSH3 0x23D SWAP1 PUSH3 0x547 JUMP JUMPDEST PUSH1 0x40 MLOAD DUP1 SWAP2 SUB SWAP1 REVERT JUMPDEST PUSH3 0x25A PUSH1 0x0 DUP4 DUP4 PUSH3 0x341 PUSH1 0x20 SHL PUSH1 0x20 SHR JUMP JUMPDEST DUP1 PUSH1 0x2 PUSH1 0x0 DUP3 DUP3 SLOAD PUSH3 0x26E SWAP2 SWAP1 PUSH3 0x5A2 JUMP JUMPDEST SWAP3 POP POP DUP2 SWAP1 SSTORE POP DUP1 PUSH1 0x0 DUP1 DUP5 PUSH20 0xFFFFFFFFFFFFFFFFFFFFFFFFFFFFFFFFFFFFFFFF AND PUSH20 0xFFFFFFFFFFFFFFFFFFFFFFFFFFFFFFFFFFFFFFFF AND DUP2 MSTORE PUSH1 0x20 ADD SWAP1 DUP2 MSTORE PUSH1 0x20 ADD PUSH1 0x0 KECCAK256 PUSH1 0x0 DUP3 DUP3 SLOAD ADD SWAP3 POP POP DUP2 SWAP1 SSTORE POP DUP2 PUSH20 0xFFFFFFFFFFFFFFFFFFFFFFFFFFFFFFFFFFFFFFFF AND PUSH1 0x0 PUSH20 0xFFFFFFFFFFFFFFFFFFFFFFFFFFFFFFFFFFFFFFFF AND PUSH32 0xDDF252AD1BE2C89B69C2B068FC378DAA952BA7F163C4A11628F55A4DF523B3EF DUP4 PUSH1 0x40 MLOAD PUSH3 0x321 SWAP2 SWAP1 PUSH3 0x610 JUMP JUMPDEST PUSH1 0x40 MLOAD DUP1 SWAP2 SUB SWAP1 LOG3 PUSH3 0x33D PUSH1 0x0 DUP4 DUP4 PUSH3 0x346 PUSH1 0x20 SHL PUSH1 0x20 SHR JUMP JUMPDEST POP POP JUMP JUMPDEST POP POP POP JUMP JUMPDEST POP POP POP JUMP JUMPDEST DUP3 DUP1 SLOAD PUSH3 0x359 SWAP1 PUSH3 0x65C JUMP JUMPDEST SWAP1 PUSH1 0x0 MSTORE PUSH1 0x20 PUSH1 0x0 KECCAK256 SWAP1 PUSH1 0x1F ADD PUSH1 0x20 SWAP1 DIV DUP2 ADD SWAP3 DUP3 PUSH3 0x37D JUMPI PUSH1 0x0 DUP6 SSTORE PUSH3 0x3C9 JUMP JUMPDEST DUP3 PUSH1 0x1F LT PUSH3 0x398 JUMPI DUP1 MLOAD PUSH1 0xFF NOT AND DUP4 DUP1 ADD OR DUP6 SSTORE PUSH3 0x3C9 JUMP JUMPDEST DUP3 DUP1 ADD PUSH1 0x1 ADD DUP6 SSTORE DUP3 ISZERO PUSH3 0x3C9 JUMPI SWAP2 DUP3 ADD JUMPDEST DUP3 DUP2 GT ISZERO PUSH3 0x3C8 JUMPI DUP3 MLOAD DUP3 SSTORE SWAP2 PUSH1 0x20 ADD SWAP2 SWAP1 PUSH1 0x1 ADD SWAP1 PUSH3 0x3AB JUMP JUMPDEST JUMPDEST POP SWAP1 POP PUSH3 0x3D8 SWAP2 SWAP1 PUSH3 0x3EA JUMP JUMPDEST POP SWAP1 JUMP JUMPDEST PUSH2 0xB85 DUP1 PUSH3 0x19D3 DUP4 CODECOPY ADD SWAP1 JUMP JUMPDEST JUMPDEST DUP1 DUP3 GT ISZERO PUSH3 0x405 JUMPI PUSH1 0x0 DUP2 PUSH1 0x0 SWAP1 SSTORE POP PUSH1 0x1 ADD PUSH3 0x3EB JUMP JUMPDEST POP SWAP1 JUMP JUMPDEST PUSH1 0x0 PUSH20 0xFFFFFFFFFFFFFFFFFFFFFFFFFFFFFFFFFFFFFFFF DUP3 AND SWAP1 POP SWAP2 SWAP1 POP JUMP JUMPDEST PUSH1 0x0 PUSH3 0x436 DUP3 PUSH3 0x409 JUMP JUMPDEST SWAP1 POP SWAP2 SWAP1 POP JUMP JUMPDEST PUSH3 0x448 DUP2 PUSH3 0x429 JUMP JUMPDEST DUP3 MSTORE POP POP JUMP JUMPDEST PUSH1 0x0 DUP2 SWAP1 POP SWAP2 SWAP1 POP JUMP JUMPDEST PUSH1 0x0 PUSH3 0x479 PUSH3 0x473 PUSH3 0x46D DUP5 PUSH3 0x409 JUMP JUMPDEST PUSH3 0x44E JUMP JUMPDEST PUSH3 0x409 JUMP JUMPDEST SWAP1 POP SWAP2 SWAP1 POP JUMP JUMPDEST PUSH1 0x0 PUSH3 0x48D DUP3 PUSH3 0x458 JUMP JUMPDEST SWAP1 POP SWAP2 SWAP1 POP JUMP JUMPDEST PUSH1 0x0 PUSH3 0x4A1 DUP3 PUSH3 0x480 JUMP JUMPDEST SWAP1 POP SWAP2 SWAP1 POP JUMP JUMPDEST PUSH3 0x4B3 DUP2 PUSH3 0x494 JUMP JUMPDEST DUP3 MSTORE POP POP JUMP JUMPDEST PUSH1 0x0 PUSH1 0x40 DUP3 ADD SWAP1 POP PUSH3 0x4D0 PUSH1 0x0 DUP4 ADD DUP6 PUSH3 0x43D JUMP JUMPDEST PUSH3 0x4DF PUSH1 0x20 DUP4 ADD DUP5 PUSH3 0x4A8 JUMP JUMPDEST SWAP4 SWAP3 POP POP POP JUMP JUMPDEST PUSH1 0x0 DUP3 DUP3 MSTORE PUSH1 0x20 DUP3 ADD SWAP1 POP SWAP3 SWAP2 POP POP JUMP JUMPDEST PUSH32 0x45524332303A206D696E7420746F20746865207A65726F206164647265737300 PUSH1 0x0 DUP3 ADD MSTORE POP JUMP JUMPDEST PUSH1 0x0 PUSH3 0x52F PUSH1 0x1F DUP4 PUSH3 0x4E6 JUMP JUMPDEST SWAP2 POP PUSH3 0x53C DUP3 PUSH3 0x4F7 JUMP JUMPDEST PUSH1 0x20 DUP3 ADD SWAP1 POP SWAP2 SWAP1 POP JUMP JUMPDEST PUSH1 0x0 PUSH1 0x20 DUP3 ADD SWAP1 POP DUP2 DUP2 SUB PUSH1 0x0 DUP4 ADD MSTORE PUSH3 0x562 DUP2 PUSH3 0x520 JUMP JUMPDEST SWAP1 POP SWAP2 SWAP1 POP JUMP JUMPDEST PUSH1 0x0 DUP2 SWAP1 POP SWAP2 SWAP1 POP JUMP JUMPDEST PUSH32 0x4E487B7100000000000000000000000000000000000000000000000000000000 PUSH1 0x0 MSTORE PUSH1 0x11 PUSH1 0x4 MSTORE PUSH1 0x24 PUSH1 0x0 REVERT JUMPDEST PUSH1 0x0 PUSH3 0x5AF DUP3 PUSH3 0x569 JUMP JUMPDEST SWAP2 POP PUSH3 0x5BC DUP4 PUSH3 0x569 JUMP JUMPDEST SWAP3 POP DUP3 PUSH32 0xFFFFFFFFFFFFFFFFFFFFFFFFFFFFFFFFFFFFFFFFFFFFFFFFFFFFFFFFFFFFFFFF SUB DUP3 GT ISZERO PUSH3 0x5F4 JUMPI PUSH3 0x5F3 PUSH3 0x573 JUMP JUMPDEST JUMPDEST DUP3 DUP3 ADD SWAP1 POP SWAP3 SWAP2 POP POP JUMP JUMPDEST PUSH3 0x60A DUP2 PUSH3 0x569 JUMP JUMPDEST DUP3 MSTORE POP POP JUMP JUMPDEST PUSH1 0x0 PUSH1 0x20 DUP3 ADD SWAP1 POP PUSH3 0x627 PUSH1 0x0 DUP4 ADD DUP5 PUSH3 0x5FF JUMP JUMPDEST SWAP3 SWAP2 POP POP JUMP JUMPDEST PUSH32 0x4E487B7100000000000000000000000000000000000000000000000000000000 PUSH1 0x0 MSTORE PUSH1 0x22 PUSH1 0x4 MSTORE PUSH1 0x24 PUSH1 0x0 REVERT JUMPDEST PUSH1 0x0 PUSH1 0x2 DUP3 DIV SWAP1 POP PUSH1 0x1 DUP3 AND DUP1 PUSH3 0x675 JUMPI PUSH1 0x7F DUP3 AND SWAP2 POP JUMPDEST PUSH1 0x20 DUP3 LT DUP2 SUB PUSH3 0x68B JUMPI PUSH3 0x68A PUSH3 0x62D JUMP JUMPDEST JUMPDEST POP SWAP2 SWAP1 POP JUMP JUMPDEST PUSH2 0x1332 DUP1 PUSH3 0x6A1 PUSH1 0x0 CODECOPY PUSH1 0x0 RETURN INVALID PUSH1 0x80 PUSH1 0x40 MSTORE CALLVALUE DUP1 ISZERO PUSH2 0x10 JUMPI PUSH1 0x0 DUP1 REVERT JUMPDEST POP PUSH1 0x4 CALLDATASIZE LT PUSH2 0xCF JUMPI PUSH1 0x0 CALLDATALOAD PUSH1 0xE0 SHR DUP1 PUSH4 0x5D452201 GT PUSH2 0x8C JUMPI DUP1 PUSH4 0x95D89B41 GT PUSH2 0x66 JUMPI DUP1 PUSH4 0x95D89B41 EQ PUSH2 0x22A JUMPI DUP1 PUSH4 0xA457C2D7 EQ PUSH2 0x248 JUMPI DUP1 PUSH4 0xA9059CBB EQ PUSH2 0x278 JUMPI DUP1 PUSH4 0xDD62ED3E EQ PUSH2 0x2A8 JUMPI PUSH2 0xCF JUMP JUMPDEST DUP1 PUSH4 0x5D452201 EQ PUSH2 0x1BE JUMPI DUP1 PUSH4 0x70A08231 EQ PUSH2 0x1DC JUMPI DUP1 PUSH4 0x8DA5CB5B EQ PUSH2 0x20C JUMPI PUSH2 0xCF JUMP JUMPDEST DUP1 PUSH4 0x6FDDE03 EQ PUSH2 0xD4 JUMPI DUP1 PUSH4 0x95EA7B3 EQ PUSH2 0xF2 JUMPI DUP1 PUSH4 0x18160DDD EQ PUSH2 0x122 JUMPI DUP1 PUSH4 0x23B872DD EQ PUSH2 0x140 JUMPI DUP1 PUSH4 0x313CE567 EQ PUSH2 0x170 JUMPI DUP1 PUSH4 0x39509351 EQ PUSH2 0x18E JUMPI JUMPDEST PUSH1 0x0 DUP1 REVERT JUMPDEST PUSH2 0xDC PUSH2 0x2D8 JUMP JUMPDEST PUSH1 0x40 MLOAD PUSH2 0xE9 SWAP2 SWAP1 PUSH2 0xBC3 JUMP JUMPDEST PUSH1 0x40 MLOAD DUP1 SWAP2 SUB SWAP1 RETURN JUMPDEST PUSH2 0x10C PUSH1 0x4 DUP1 CALLDATASIZE SUB DUP2 ADD SWAP1 PUSH2 0x107 SWAP2 SWAP1 PUSH2 0xC7E JUMP JUMPDEST PUSH2 0x36A JUMP JUMPDEST PUSH1 0x40 MLOAD PUSH2 0x119 SWAP2 SWAP1 PUSH2 0xCD9 JUMP JUMPDEST PUSH1 0x40 MLOAD DUP1 SWAP2 SUB SWAP1 RETURN JUMPDEST PUSH2 0x12A PUSH2 0x38D JUMP JUMPDEST PUSH1 0x40 MLOAD PUSH2 0x137 SWAP2 SWAP1 PUSH2 0xD03 JUMP JUMPDEST PUSH1 0x40 MLOAD DUP1 SWAP2 SUB SWAP1 RETURN JUMPDEST PUSH2 0x15A PUSH1 0x4 DUP1 CALLDATASIZE SUB DUP2 ADD SWAP1 PUSH2 0x155 SWAP2 SWAP1 PUSH2 0xD1E JUMP JUMPDEST PUSH2 0x397 JUMP JUMPDEST PUSH1 0x40 MLOAD PUSH2 0x167 SWAP2 SWAP1 PUSH2 0xCD9 JUMP JUMPDEST PUSH1 0x40 MLOAD DUP1 SWAP2 SUB SWAP1 RETURN JUMPDEST PUSH2 0x178 PUSH2 0x3C6 JUMP JUMPDEST PUSH1 0x40 MLOAD PUSH2 0x185 SWAP2 SWAP1 PUSH2 0xD8D JUMP JUMPDEST PUSH1 0x40 MLOAD DUP1 SWAP2 SUB SWAP1 RETURN JUMPDEST PUSH2 0x1A8 PUSH1 0x4 DUP1 CALLDATASIZE SUB DUP2 ADD SWAP1 PUSH2 0x1A3 SWAP2 SWAP1 PUSH2 0xC7E JUMP JUMPDEST PUSH2 0x3CF JUMP JUMPDEST PUSH1 0x40 MLOAD PUSH2 0x1B5 SWAP2 SWAP1 PUSH2 0xCD9 JUMP JUMPDEST PUSH1 0x40 MLOAD DUP1 SWAP2 SUB SWAP1 RETURN JUMPDEST PUSH2 0x1C6 PUSH2 0x406 JUMP JUMPDEST PUSH1 0x40 MLOAD PUSH2 0x1D3 SWAP2 SWAP1 PUSH2 0xDB7 JUMP JUMPDEST PUSH1 0x40 MLOAD DUP1 SWAP2 SUB SWAP1 RETURN JUMPDEST PUSH2 0x1F6 PUSH1 0x4 DUP1 CALLDATASIZE SUB DUP2 ADD SWAP1 PUSH2 0x1F1 SWAP2 SWAP1 PUSH2 0xDD2 JUMP JUMPDEST PUSH2 0x42C JUMP JUMPDEST PUSH1 0x40 MLOAD PUSH2 0x203 SWAP2 SWAP1 PUSH2 0xD03 JUMP JUMPDEST PUSH1 0x40 MLOAD DUP1 SWAP2 SUB SWAP1 RETURN JUMPDEST PUSH2 0x214 PUSH2 0x474 JUMP JUMPDEST PUSH1 0x40 MLOAD PUSH2 0x221 SWAP2 SWAP1 PUSH2 0xDB7 JUMP JUMPDEST PUSH1 0x40 MLOAD DUP1 SWAP2 SUB SWAP1 RETURN JUMPDEST PUSH2 0x232 PUSH2 0x49A JUMP JUMPDEST PUSH1 0x40 MLOAD PUSH2 0x23F SWAP2 SWAP1 PUSH2 0xBC3 JUMP JUMPDEST PUSH1 0x40 MLOAD DUP1 SWAP2 SUB SWAP1 RETURN JUMPDEST PUSH2 0x262 PUSH1 0x4 DUP1 CALLDATASIZE SUB DUP2 ADD SWAP1 PUSH2 0x25D SWAP2 SWAP1 PUSH2 0xC7E JUMP JUMPDEST PUSH2 0x52C JUMP JUMPDEST PUSH1 0x40 MLOAD PUSH2 0x26F SWAP2 SWAP1 PUSH2 0xCD9 JUMP JUMPDEST PUSH1 0x40 MLOAD DUP1 SWAP2 SUB SWAP1 RETURN JUMPDEST PUSH2 0x292 PUSH1 0x4 DUP1 CALLDATASIZE SUB DUP2 ADD SWAP1 PUSH2 0x28D SWAP2 SWAP1 PUSH2 0xC7E JUMP JUMPDEST PUSH2 0x5A3 JUMP JUMPDEST PUSH1 0x40 MLOAD PUSH2 0x29F SWAP2 SWAP1 PUSH2 0xCD9 JUMP JUMPDEST PUSH1 0x40 MLOAD DUP1 SWAP2 SUB SWAP1 RETURN JUMPDEST PUSH2 0x2C2 PUSH1 0x4 DUP1 CALLDATASIZE SUB DUP2 ADD SWAP1 PUSH2 0x2BD SWAP2 SWAP1 PUSH2 0xDFF JUMP JUMPDEST PUSH2 0x5C6 JUMP JUMPDEST PUSH1 0x40 MLOAD PUSH2 0x2CF SWAP2 SWAP1 PUSH2 0xD03 JUMP JUMPDEST PUSH1 0x40 MLOAD DUP1 SWAP2 SUB SWAP1 RETURN JUMPDEST PUSH1 0x60 PUSH1 0x3 DUP1 SLOAD PUSH2 0x2E7 SWAP1 PUSH2 0xE6E JUMP JUMPDEST DUP1 PUSH1 0x1F ADD PUSH1 0x20 DUP1 SWAP2 DIV MUL PUSH1 0x20 ADD PUSH1 0x40 MLOAD SWAP1 DUP2 ADD PUSH1 0x40 MSTORE DUP1 SWAP3 SWAP2 SWAP1 DUP2 DUP2 MSTORE PUSH1 0x20 ADD DUP3 DUP1 SLOAD PUSH2 0x313 SWAP1 PUSH2 0xE6E JUMP JUMPDEST DUP1 ISZERO PUSH2 0x360 JUMPI DUP1 PUSH1 0x1F LT PUSH2 0x335 JUMPI PUSH2 0x100 DUP1 DUP4 SLOAD DIV MUL DUP4 MSTORE SWAP2 PUSH1 0x20 ADD SWAP2 PUSH2 0x360 JUMP JUMPDEST DUP3 ADD SWAP2 SWAP1 PUSH1 0x0 MSTORE PUSH1 0x20 PUSH1 0x0 KECCAK256 SWAP1 JUMPDEST DUP2 SLOAD DUP2 MSTORE SWAP1 PUSH1 0x1 ADD SWAP1 PUSH1 0x20 ADD DUP1 DUP4 GT PUSH2 0x343 JUMPI DUP3 SWAP1 SUB PUSH1 0x1F AND DUP3 ADD SWAP2 JUMPDEST POP POP POP POP POP SWAP1 POP SWAP1 JUMP JUMPDEST PUSH1 0x0 DUP1 PUSH2 0x375 PUSH2 0x64D JUMP JUMPDEST SWAP1 POP PUSH2 0x382 DUP2 DUP6 DUP6 PUSH2 0x655 JUMP JUMPDEST PUSH1 0x1 SWAP2 POP POP SWAP3 SWAP2 POP POP JUMP JUMPDEST PUSH1 0x0 PUSH1 0x2 SLOAD SWAP1 POP SWAP1 JUMP JUMPDEST PUSH1 0x0 DUP1 PUSH2 0x3A2 PUSH2 0x64D JUMP JUMPDEST SWAP1 POP PUSH2 0x3AF DUP6 DUP3 DUP6 PUSH2 0x81E JUMP JUMPDEST PUSH2 0x3BA DUP6 DUP6 DUP6 PUSH2 0x8AA JUMP JUMPDEST PUSH1 0x1 SWAP2 POP POP SWAP4 SWAP3 POP POP POP JUMP JUMPDEST PUSH1 0x0 PUSH1 0x12 SWAP1 POP SWAP1 JUMP JUMPDEST PUSH1 0x0 DUP1 PUSH2 0x3DA PUSH2 0x64D JUMP JUMPDEST SWAP1 POP PUSH2 0x3FB DUP2 DUP6 DUP6 PUSH2 0x3EC DUP6 DUP10 PUSH2 0x5C6 JUMP JUMPDEST PUSH2 0x3F6 SWAP2 SWAP1 PUSH2 0xECE JUMP JUMPDEST PUSH2 0x655 JUMP JUMPDEST PUSH1 0x1 SWAP2 POP POP SWAP3 SWAP2 POP POP JUMP JUMPDEST PUSH1 0x6 PUSH1 0x0 SWAP1 SLOAD SWAP1 PUSH2 0x100 EXP SWAP1 DIV PUSH20 0xFFFFFFFFFFFFFFFFFFFFFFFFFFFFFFFFFFFFFFFF AND DUP2 JUMP JUMPDEST PUSH1 0x0 DUP1 PUSH1 0x0 DUP4 PUSH20 0xFFFFFFFFFFFFFFFFFFFFFFFFFFFFFFFFFFFFFFFF AND PUSH20 0xFFFFFFFFFFFFFFFFFFFFFFFFFFFFFFFFFFFFFFFF AND DUP2 MSTORE PUSH1 0x20 ADD SWAP1 DUP2 MSTORE PUSH1 0x20 ADD PUSH1 0x0 KECCAK256 SLOAD SWAP1 POP SWAP2 SWAP1 POP JUMP JUMPDEST PUSH1 0x5 PUSH1 0x0 SWAP1 SLOAD SWAP1 PUSH2 0x100 EXP SWAP1 DIV PUSH20 0xFFFFFFFFFFFFFFFFFFFFFFFFFFFFFFFFFFFFFFFF AND DUP2 JUMP JUMPDEST PUSH1 0x60 PUSH1 0x4 DUP1 SLOAD PUSH2 0x4A9 SWAP1 PUSH2 0xE6E JUMP JUMPDEST DUP1 PUSH1 0x1F ADD PUSH1 0x20 DUP1 SWAP2 DIV MUL PUSH1 0x20 ADD PUSH1 0x40 MLOAD SWAP1 DUP2 ADD PUSH1 0x40 MSTORE DUP1 SWAP3 SWAP2 SWAP1 DUP2 DUP2 MSTORE PUSH1 0x20 ADD DUP3 DUP1 SLOAD PUSH2 0x4D5 SWAP1 PUSH2 0xE6E JUMP JUMPDEST DUP1 ISZERO PUSH2 0x522 JUMPI DUP1 PUSH1 0x1F LT PUSH2 0x4F7 JUMPI PUSH2 0x100 DUP1 DUP4 SLOAD DIV MUL DUP4 MSTORE SWAP2 PUSH1 0x20 ADD SWAP2 PUSH2 0x522 JUMP JUMPDEST DUP3 ADD SWAP2 SWAP1 PUSH1 0x0 MSTORE PUSH1 0x20 PUSH1 0x0 KECCAK256 SWAP1 JUMPDEST DUP2 SLOAD DUP2 MSTORE SWAP1 PUSH1 0x1 ADD SWAP1 PUSH1 0x20 ADD DUP1 DUP4 GT PUSH2 0x505 JUMPI DUP3 SWAP1 SUB PUSH1 0x1F AND DUP3 ADD SWAP2 JUMPDEST POP POP POP POP POP SWAP1 POP SWAP1 JUMP JUMPDEST PUSH1 0x0 DUP1 PUSH2 0x537 PUSH2 0x64D JUMP JUMPDEST SWAP1 POP PUSH1 0x0 PUSH2 0x545 DUP3 DUP7 PUSH2 0x5C6 JUMP JUMPDEST SWAP1 POP DUP4 DUP2 LT ISZERO PUSH2 0x58A JUMPI PUSH1 0x40 MLOAD PUSH32 0x8C379A000000000000000000000000000000000000000000000000000000000 DUP2 MSTORE PUSH1 0x4 ADD PUSH2 0x581 SWAP1 PUSH2 0xF96 JUMP JUMPDEST PUSH1 0x40 MLOAD DUP1 SWAP2 SUB SWAP1 REVERT JUMPDEST PUSH2 0x597 DUP3 DUP7 DUP7 DUP5 SUB PUSH2 0x655 JUMP JUMPDEST PUSH1 0x1 SWAP3 POP POP POP SWAP3 SWAP2 POP POP JUMP JUMPDEST PUSH1 0x0 DUP1 PUSH2 0x5AE PUSH2 0x64D JUMP JUMPDEST SWAP1 POP PUSH2 0x5BB DUP2 DUP6 DUP6 PUSH2 0x8AA JUMP JUMPDEST PUSH1 0x1 SWAP2 POP POP SWAP3 SWAP2 POP POP JUMP JUMPDEST PUSH1 0x0 PUSH1 0x1 PUSH1 0x0 DUP5 PUSH20 0xFFFFFFFFFFFFFFFFFFFFFFFFFFFFFFFFFFFFFFFF AND PUSH20 0xFFFFFFFFFFFFFFFFFFFFFFFFFFFFFFFFFFFFFFFF AND DUP2 MSTORE PUSH1 0x20 ADD SWAP1 DUP2 MSTORE PUSH1 0x20 ADD PUSH1 0x0 KECCAK256 PUSH1 0x0 DUP4 PUSH20 0xFFFFFFFFFFFFFFFFFFFFFFFFFFFFFFFFFFFFFFFF AND PUSH20 0xFFFFFFFFFFFFFFFFFFFFFFFFFFFFFFFFFFFFFFFF AND DUP2 MSTORE PUSH1 0x20 ADD SWAP1 DUP2 MSTORE PUSH1 0x20 ADD PUSH1 0x0 KECCAK256 SLOAD SWAP1 POP SWAP3 SWAP2 POP POP JUMP JUMPDEST PUSH1 0x0 CALLER SWAP1 POP SWAP1 JUMP JUMPDEST PUSH1 0x0 PUSH20 0xFFFFFFFFFFFFFFFFFFFFFFFFFFFFFFFFFFFFFFFF AND DUP4 PUSH20 0xFFFFFFFFFFFFFFFFFFFFFFFFFFFFFFFFFFFFFFFF AND SUB PUSH2 0x6C4 JUMPI PUSH1 0x40 MLOAD PUSH32 0x8C379A000000000000000000000000000000000000000000000000000000000 DUP2 MSTORE PUSH1 0x4 ADD PUSH2 0x6BB SWAP1 PUSH2 0x1028 JUMP JUMPDEST PUSH1 0x40 MLOAD DUP1 SWAP2 SUB SWAP1 REVERT JUMPDEST PUSH1 0x0 PUSH20 0xFFFFFFFFFFFFFFFFFFFFFFFFFFFFFFFFFFFFFFFF AND DUP3 PUSH20 0xFFFFFFFFFFFFFFFFFFFFFFFFFFFFFFFFFFFFFFFF AND SUB PUSH2 0x733 JUMPI PUSH1 0x40 MLOAD PUSH32 0x8C379A000000000000000000000000000000000000000000000000000000000 DUP2 MSTORE PUSH1 0x4 ADD PUSH2 0x72A SWAP1 PUSH2 0x10BA JUMP JUMPDEST PUSH1 0x40 MLOAD DUP1 SWAP2 SUB SWAP1 REVERT JUMPDEST DUP1 PUSH1 0x1 PUSH1 0x0 DUP6 PUSH20 0xFFFFFFFFFFFFFFFFFFFFFFFFFFFFFFFFFFFFFFFF AND PUSH20 0xFFFFFFFFFFFFFFFFFFFFFFFFFFFFFFFFFFFFFFFF AND DUP2 MSTORE PUSH1 0x20 ADD SWAP1 DUP2 MSTORE PUSH1 0x20 ADD PUSH1 0x0 KECCAK256 PUSH1 0x0 DUP5 PUSH20 0xFFFFFFFFFFFFFFFFFFFFFFFFFFFFFFFFFFFFFFFF AND PUSH20 0xFFFFFFFFFFFFFFFFFFFFFFFFFFFFFFFFFFFFFFFF AND DUP2 MSTORE PUSH1 0x20 ADD SWAP1 DUP2 MSTORE PUSH1 0x20 ADD PUSH1 0x0 KECCAK256 DUP2 SWAP1 SSTORE POP DUP2 PUSH20 0xFFFFFFFFFFFFFFFFFFFFFFFFFFFFFFFFFFFFFFFF AND DUP4 PUSH20 0xFFFFFFFFFFFFFFFFFFFFFFFFFFFFFFFFFFFFFFFF AND PUSH32 0x8C5BE1E5EBEC7D5BD14F71427D1E84F3DD0314C0F7B2291E5B200AC8C7C3B925 DUP4 PUSH1 0x40 MLOAD PUSH2 0x811 SWAP2 SWAP1 PUSH2 0xD03 JUMP JUMPDEST PUSH1 0x40 MLOAD DUP1 SWAP2 SUB SWAP1 LOG3 POP POP POP JUMP JUMPDEST PUSH1 0x0 PUSH2 0x82A DUP5 DUP5 PUSH2 0x5C6 JUMP JUMPDEST SWAP1 POP PUSH32 0xFFFFFFFFFFFFFFFFFFFFFFFFFFFFFFFFFFFFFFFFFFFFFFFFFFFFFFFFFFFFFFFF DUP2 EQ PUSH2 0x8A4 JUMPI DUP2 DUP2 LT ISZERO PUSH2 0x896 JUMPI PUSH1 0x40 MLOAD PUSH32 0x8C379A000000000000000000000000000000000000000000000000000000000 DUP2 MSTORE PUSH1 0x4 ADD PUSH2 0x88D SWAP1 PUSH2 0x1126 JUMP JUMPDEST PUSH1 0x40 MLOAD DUP1 SWAP2 SUB SWAP1 REVERT JUMPDEST PUSH2 0x8A3 DUP5 DUP5 DUP5 DUP5 SUB PUSH2 0x655 JUMP JUMPDEST JUMPDEST POP POP POP POP JUMP JUMPDEST PUSH1 0x0 PUSH20 0xFFFFFFFFFFFFFFFFFFFFFFFFFFFFFFFFFFFFFFFF AND DUP4 PUSH20 0xFFFFFFFFFFFFFFFFFFFFFFFFFFFFFFFFFFFFFFFF AND SUB PUSH2 0x919 JUMPI PUSH1 0x40 MLOAD PUSH32 0x8C379A000000000000000000000000000000000000000000000000000000000 DUP2 MSTORE PUSH1 0x4 ADD PUSH2 0x910 SWAP1 PUSH2 0x11B8 JUMP JUMPDEST PUSH1 0x40 MLOAD DUP1 SWAP2 SUB SWAP1 REVERT JUMPDEST PUSH1 0x0 PUSH20 0xFFFFFFFFFFFFFFFFFFFFFFFFFFFFFFFFFFFFFFFF AND DUP3 PUSH20 0xFFFFFFFFFFFFFFFFFFFFFFFFFFFFFFFFFFFFFFFF AND SUB PUSH2 0x988 JUMPI PUSH1 0x40 MLOAD PUSH32 0x8C379A000000000000000000000000000000000000000000000000000000000 DUP2 MSTORE PUSH1 0x4 ADD PUSH2 0x97F SWAP1 PUSH2 0x124A JUMP JUMPDEST PUSH1 0x40 MLOAD DUP1 SWAP2 SUB SWAP1 REVERT JUMPDEST PUSH2 0x993 DUP4 DUP4 DUP4 PUSH2 0xB20 JUMP JUMPDEST PUSH1 0x0 DUP1 PUSH1 0x0 DUP6 PUSH20 0xFFFFFFFFFFFFFFFFFFFFFFFFFFFFFFFFFFFFFFFF AND PUSH20 0xFFFFFFFFFFFFFFFFFFFFFFFFFFFFFFFFFFFFFFFF AND DUP2 MSTORE PUSH1 0x20 ADD SWAP1 DUP2 MSTORE PUSH1 0x20 ADD PUSH1 0x0 KECCAK256 SLOAD SWAP1 POP DUP2 DUP2 LT ISZERO PUSH2 0xA19 JUMPI PUSH1 0x40 MLOAD PUSH32 0x8C379A000000000000000000000000000000000000000000000000000000000 DUP2 MSTORE PUSH1 0x4 ADD PUSH2 0xA10 SWAP1 PUSH2 0x12DC JUMP JUMPDEST PUSH1 0x40 MLOAD DUP1 SWAP2 SUB SWAP1 REVERT JUMPDEST DUP2 DUP2 SUB PUSH1 0x0 DUP1 DUP7 PUSH20 0xFFFFFFFFFFFFFFFFFFFFFFFFFFFFFFFFFFFFFFFF AND PUSH20 0xFFFFFFFFFFFFFFFFFFFFFFFFFFFFFFFFFFFFFFFF AND DUP2 MSTORE PUSH1 0x20 ADD SWAP1 DUP2 MSTORE PUSH1 0x20 ADD PUSH1 0x0 KECCAK256 DUP2 SWAP1 SSTORE POP DUP2 PUSH1 0x0 DUP1 DUP6 PUSH20 0xFFFFFFFFFFFFFFFFFFFFFFFFFFFFFFFFFFFFFFFF AND PUSH20 0xFFFFFFFFFFFFFFFFFFFFFFFFFFFFFFFFFFFFFFFF AND DUP2 MSTORE PUSH1 0x20 ADD SWAP1 DUP2 MSTORE PUSH1 0x20 ADD PUSH1 0x0 KECCAK256 PUSH1 0x0 DUP3 DUP3 SLOAD ADD SWAP3 POP POP DUP2 SWAP1 SSTORE POP DUP3 PUSH20 0xFFFFFFFFFFFFFFFFFFFFFFFFFFFFFFFFFFFFFFFF AND DUP5 PUSH20 0xFFFFFFFFFFFFFFFFFFFFFFFFFFFFFFFFFFFFFFFF AND PUSH32 0xDDF252AD1BE2C89B69C2B068FC378DAA952BA7F163C4A11628F55A4DF523B3EF DUP5 PUSH1 0x40 MLOAD PUSH2 0xB07 SWAP2 SWAP1 PUSH2 0xD03 JUMP JUMPDEST PUSH1 0x40 MLOAD DUP1 SWAP2 SUB SWAP1 LOG3 PUSH2 0xB1A DUP5 DUP5 DUP5 PUSH2 0xB25 JUMP JUMPDEST POP POP POP POP JUMP JUMPDEST POP POP POP JUMP JUMPDEST POP POP POP JUMP JUMPDEST PUSH1 0x0 DUP2 MLOAD SWAP1 POP SWAP2 SWAP1 POP JUMP JUMPDEST PUSH1 0x0 DUP3 DUP3 MSTORE PUSH1 0x20 DUP3 ADD SWAP1 POP SWAP3 SWAP2 POP POP JUMP JUMPDEST PUSH1 0x0 JUMPDEST DUP4 DUP2 LT ISZERO PUSH2 0xB64 JUMPI DUP1 DUP3 ADD MLOAD DUP2 DUP5 ADD MSTORE PUSH1 0x20 DUP2 ADD SWAP1 POP PUSH2 0xB49 JUMP JUMPDEST DUP4 DUP2 GT ISZERO PUSH2 0xB73 JUMPI PUSH1 0x0 DUP5 DUP5 ADD MSTORE JUMPDEST POP POP POP POP JUMP JUMPDEST PUSH1 0x0 PUSH1 0x1F NOT PUSH1 0x1F DUP4 ADD AND SWAP1 POP SWAP2 SWAP1 POP JUMP JUMPDEST PUSH1 0x0 PUSH2 0xB95 DUP3 PUSH2 0xB2A JUMP JUMPDEST PUSH2 0xB9F DUP2 DUP6 PUSH2 0xB35 JUMP JUMPDEST SWAP4 POP PUSH2 0xBAF DUP2 DUP6 PUSH1 0x20 DUP7 ADD PUSH2 0xB46 JUMP JUMPDEST PUSH2 0xBB8 DUP2 PUSH2 0xB79 JUMP JUMPDEST DUP5 ADD SWAP2 POP POP SWAP3 SWAP2 POP POP JUMP JUMPDEST PUSH1 0x0 PUSH1 0x20 DUP3 ADD SWAP1 POP DUP2 DUP2 SUB PUSH1 0x0 DUP4 ADD MSTORE PUSH2 0xBDD DUP2 DUP5 PUSH2 0xB8A JUMP JUMPDEST SWAP1 POP SWAP3 SWAP2 POP POP JUMP JUMPDEST PUSH1 0x0 DUP1 REVERT JUMPDEST PUSH1 0x0 PUSH20 0xFFFFFFFFFFFFFFFFFFFFFFFFFFFFFFFFFFFFFFFF DUP3 AND SWAP1 POP SWAP2 SWAP1 POP JUMP JUMPDEST PUSH1 0x0 PUSH2 0xC15 DUP3 PUSH2 0xBEA JUMP JUMPDEST SWAP1 POP SWAP2 SWAP1 POP JUMP JUMPDEST PUSH2 0xC25 DUP2 PUSH2 0xC0A JUMP JUMPDEST DUP2 EQ PUSH2 0xC30 JUMPI PUSH1 0x0 DUP1 REVERT JUMPDEST POP JUMP JUMPDEST PUSH1 0x0 DUP2 CALLDATALOAD SWAP1 POP PUSH2 0xC42 DUP2 PUSH2 0xC1C JUMP JUMPDEST SWAP3 SWAP2 POP POP JUMP JUMPDEST PUSH1 0x0 DUP2 SWAP1 POP SWAP2 SWAP1 POP JUMP JUMPDEST PUSH2 0xC5B DUP2 PUSH2 0xC48 JUMP JUMPDEST DUP2 EQ PUSH2 0xC66 JUMPI PUSH1 0x0 DUP1 REVERT JUMPDEST POP JUMP JUMPDEST PUSH1 0x0 DUP2 CALLDATALOAD SWAP1 POP PUSH2 0xC78 DUP2 PUSH2 0xC52 JUMP JUMPDEST SWAP3 SWAP2 POP POP JUMP JUMPDEST PUSH1 0x0 DUP1 PUSH1 0x40 DUP4 DUP6 SUB SLT ISZERO PUSH2 0xC95 JUMPI PUSH2 0xC94 PUSH2 0xBE5 JUMP JUMPDEST JUMPDEST PUSH1 0x0 PUSH2 0xCA3 DUP6 DUP3 DUP7 ADD PUSH2 0xC33 JUMP JUMPDEST SWAP3 POP POP PUSH1 0x20 PUSH2 0xCB4 DUP6 DUP3 DUP7 ADD PUSH2 0xC69 JUMP JUMPDEST SWAP2 POP POP SWAP3 POP SWAP3 SWAP1 POP JUMP JUMPDEST PUSH1 0x0 DUP2 ISZERO ISZERO SWAP1 POP SWAP2 SWAP1 POP JUMP JUMPDEST PUSH2 0xCD3 DUP2 PUSH2 0xCBE JUMP JUMPDEST DUP3 MSTORE POP POP JUMP JUMPDEST PUSH1 0x0 PUSH1 0x20 DUP3 ADD SWAP1 POP PUSH2 0xCEE PUSH1 0x0 DUP4 ADD DUP5 PUSH2 0xCCA JUMP JUMPDEST SWAP3 SWAP2 POP POP JUMP JUMPDEST PUSH2 0xCFD DUP2 PUSH2 0xC48 JUMP JUMPDEST DUP3 MSTORE POP POP JUMP JUMPDEST PUSH1 0x0 PUSH1 0x20 DUP3 ADD SWAP1 POP PUSH2 0xD18 PUSH1 0x0 DUP4 ADD DUP5 PUSH2 0xCF4 JUMP JUMPDEST SWAP3 SWAP2 POP POP JUMP JUMPDEST PUSH1 0x0 DUP1 PUSH1 0x0 PUSH1 0x60 DUP5 DUP7 SUB SLT ISZERO PUSH2 0xD37 JUMPI PUSH2 0xD36 PUSH2 0xBE5 JUMP JUMPDEST JUMPDEST PUSH1 0x0 PUSH2 0xD45 DUP7 DUP3 DUP8 ADD PUSH2 0xC33 JUMP JUMPDEST SWAP4 POP POP PUSH1 0x20 PUSH2 0xD56 DUP7 DUP3 DUP8 ADD PUSH2 0xC33 JUMP JUMPDEST SWAP3 POP POP PUSH1 0x40 PUSH2 0xD67 DUP7 DUP3 DUP8 ADD PUSH2 0xC69 JUMP JUMPDEST SWAP2 POP POP SWAP3 POP SWAP3 POP SWAP3 JUMP JUMPDEST PUSH1 0x0 PUSH1 0xFF DUP3 AND SWAP1 POP SWAP2 SWAP1 POP JUMP JUMPDEST PUSH2 0xD87 DUP2 PUSH2 0xD71 JUMP JUMPDEST DUP3 MSTORE POP POP JUMP JUMPDEST PUSH1 0x0 PUSH1 0x20 DUP3 ADD SWAP1 POP PUSH2 0xDA2 PUSH1 0x0 DUP4 ADD DUP5 PUSH2 0xD7E JUMP JUMPDEST SWAP3 SWAP2 POP POP JUMP JUMPDEST PUSH2 0xDB1 DUP2 PUSH2 0xC0A JUMP JUMPDEST DUP3 MSTORE POP POP JUMP JUMPDEST PUSH1 0x0 PUSH1 0x20 DUP3 ADD SWAP1 POP PUSH2 0xDCC PUSH1 0x0 DUP4 ADD DUP5 PUSH2 0xDA8 JUMP JUMPDEST SWAP3 SWAP2 POP POP JUMP JUMPDEST PUSH1 0x0 PUSH1 0x20 DUP3 DUP5 SUB SLT ISZERO PUSH2 0xDE8 JUMPI PUSH2 0xDE7 PUSH2 0xBE5 JUMP JUMPDEST JUMPDEST PUSH1 0x0 PUSH2 0xDF6 DUP5 DUP3 DUP6 ADD PUSH2 0xC33 JUMP JUMPDEST SWAP2 POP POP SWAP3 SWAP2 POP POP JUMP JUMPDEST PUSH1 0x0 DUP1 PUSH1 0x40 DUP4 DUP6 SUB SLT ISZERO PUSH2 0xE16 JUMPI PUSH2 0xE15 PUSH2 0xBE5 JUMP JUMPDEST JUMPDEST PUSH1 0x0 PUSH2 0xE24 DUP6 DUP3 DUP7 ADD PUSH2 0xC33 JUMP JUMPDEST SWAP3 POP POP PUSH1 0x20 PUSH2 0xE35 DUP6 DUP3 DUP7 ADD PUSH2 0xC33 JUMP JUMPDEST SWAP2 POP POP SWAP3 POP SWAP3 SWAP1 POP JUMP JUMPDEST PUSH32 0x4E487B7100000000000000000000000000000000000000000000000000000000 PUSH1 0x0 MSTORE PUSH1 0x22 PUSH1 0x4 MSTORE PUSH1 0x24 PUSH1 0x0 REVERT JUMPDEST PUSH1 0x0 PUSH1 0x2 DUP3 DIV SWAP1 POP PUSH1 0x1 DUP3 AND DUP1 PUSH2 0xE86 JUMPI PUSH1 0x7F DUP3 AND SWAP2 POP JUMPDEST PUSH1 0x20 DUP3 LT DUP2 SUB PUSH2 0xE99 JUMPI PUSH2 0xE98 PUSH2 0xE3F JUMP JUMPDEST JUMPDEST POP SWAP2 SWAP1 POP JUMP JUMPDEST PUSH32 0x4E487B7100000000000000000000000000000000000000000000000000000000 PUSH1 0x0 MSTORE PUSH1 0x11 PUSH1 0x4 MSTORE PUSH1 0x24 PUSH1 0x0 REVERT JUMPDEST PUSH1 0x0 PUSH2 0xED9 DUP3 PUSH2 0xC48 JUMP JUMPDEST SWAP2 POP PUSH2 0xEE4 DUP4 PUSH2 0xC48 JUMP JUMPDEST SWAP3 POP DUP3 PUSH32 0xFFFFFFFFFFFFFFFFFFFFFFFFFFFFFFFFFFFFFFFFFFFFFFFFFFFFFFFFFFFFFFFF SUB DUP3 GT ISZERO PUSH2 0xF19 JUMPI PUSH2 0xF18 PUSH2 0xE9F JUMP JUMPDEST JUMPDEST DUP3 DUP3 ADD SWAP1 POP SWAP3 SWAP2 POP POP JUMP JUMPDEST PUSH32 0x45524332303A2064656372656173656420616C6C6F77616E63652062656C6F77 PUSH1 0x0 DUP3 ADD MSTORE PUSH32 0x207A65726F000000000000000000000000000000000000000000000000000000 PUSH1 0x20 DUP3 ADD MSTORE POP JUMP JUMPDEST PUSH1 0x0 PUSH2 0xF80 PUSH1 0x25 DUP4 PUSH2 0xB35 JUMP JUMPDEST SWAP2 POP PUSH2 0xF8B DUP3 PUSH2 0xF24 JUMP JUMPDEST PUSH1 0x40 DUP3 ADD SWAP1 POP SWAP2 SWAP1 POP JUMP JUMPDEST PUSH1 0x0 PUSH1 0x20 DUP3 ADD SWAP1 POP DUP2 DUP2 SUB PUSH1 0x0 DUP4 ADD MSTORE PUSH2 0xFAF DUP2 PUSH2 0xF73 JUMP JUMPDEST SWAP1 POP SWAP2 SWAP1 POP JUMP JUMPDEST PUSH32 0x45524332303A20617070726F76652066726F6D20746865207A65726F20616464 PUSH1 0x0 DUP3 ADD MSTORE PUSH32 0x7265737300000000000000000000000000000000000000000000000000000000 PUSH1 0x20 DUP3 ADD MSTORE POP JUMP JUMPDEST PUSH1 0x0 PUSH2 0x1012 PUSH1 0x24 DUP4 PUSH2 0xB35 JUMP JUMPDEST SWAP2 POP PUSH2 0x101D DUP3 PUSH2 0xFB6 JUMP JUMPDEST PUSH1 0x40 DUP3 ADD SWAP1 POP SWAP2 SWAP1 POP JUMP JUMPDEST PUSH1 0x0 PUSH1 0x20 DUP3 ADD SWAP1 POP DUP2 DUP2 SUB PUSH1 0x0 DUP4 ADD MSTORE PUSH2 0x1041 DUP2 PUSH2 0x1005 JUMP JUMPDEST SWAP1 POP SWAP2 SWAP1 POP JUMP JUMPDEST PUSH32 0x45524332303A20617070726F766520746F20746865207A65726F206164647265 PUSH1 0x0 DUP3 ADD MSTORE PUSH32 0x7373000000000000000000000000000000000000000000000000000000000000 PUSH1 0x20 DUP3 ADD MSTORE POP JUMP JUMPDEST PUSH1 0x0 PUSH2 0x10A4 PUSH1 0x22 DUP4 PUSH2 0xB35 JUMP JUMPDEST SWAP2 POP PUSH2 0x10AF DUP3 PUSH2 0x1048 JUMP JUMPDEST PUSH1 0x40 DUP3 ADD SWAP1 POP SWAP2 SWAP1 POP JUMP JUMPDEST PUSH1 0x0 PUSH1 0x20 DUP3 ADD SWAP1 POP DUP2 DUP2 SUB PUSH1 0x0 DUP4 ADD MSTORE PUSH2 0x10D3 DUP2 PUSH2 0x1097 JUMP JUMPDEST SWAP1 POP SWAP2 SWAP1 POP JUMP JUMPDEST PUSH32 0x45524332303A20696E73756666696369656E7420616C6C6F77616E6365000000 PUSH1 0x0 DUP3 ADD MSTORE POP JUMP JUMPDEST PUSH1 0x0 PUSH2 0x1110 PUSH1 0x1D DUP4 PUSH2 0xB35 JUMP JUMPDEST SWAP2 POP PUSH2 0x111B DUP3 PUSH2 0x10DA JUMP JUMPDEST PUSH1 0x20 DUP3 ADD SWAP1 POP SWAP2 SWAP1 POP JUMP JUMPDEST PUSH1 0x0 PUSH1 0x20 DUP3 ADD SWAP1 POP DUP2 DUP2 SUB PUSH1 0x0 DUP4 ADD MSTORE PUSH2 0x113F DUP2 PUSH2 0x1103 JUMP JUMPDEST SWAP1 POP SWAP2 SWAP1 POP JUMP JUMPDEST PUSH32 0x45524332303A207472616E736665722066726F6D20746865207A65726F206164 PUSH1 0x0 DUP3 ADD MSTORE PUSH32 0x6472657373000000000000000000000000000000000000000000000000000000 PUSH1 0x20 DUP3 ADD MSTORE POP JUMP JUMPDEST PUSH1 0x0 PUSH2 0x11A2 PUSH1 0x25 DUP4 PUSH2 0xB35 JUMP JUMPDEST SWAP2 POP PUSH2 0x11AD DUP3 PUSH2 0x1146 JUMP JUMPDEST PUSH1 0x40 DUP3 ADD SWAP1 POP SWAP2 SWAP1 POP JUMP JUMPDEST PUSH1 0x0 PUSH1 0x20 DUP3 ADD SWAP1 POP DUP2 DUP2 SUB PUSH1 0x0 DUP4 ADD MSTORE PUSH2 0x11D1 DUP2 PUSH2 0x1195 JUMP JUMPDEST SWAP1 POP SWAP2 SWAP1 POP JUMP JUMPDEST PUSH32 0x45524332303A207472616E7366657220746F20746865207A65726F2061646472 PUSH1 0x0 DUP3 ADD MSTORE PUSH32 0x6573730000000000000000000000000000000000000000000000000000000000 PUSH1 0x20 DUP3 ADD MSTORE POP JUMP JUMPDEST PUSH1 0x0 PUSH2 0x1234 PUSH1 0x23 DUP4 PUSH2 0xB35 JUMP JUMPDEST SWAP2 POP PUSH2 0x123F DUP3 PUSH2 0x11D8 JUMP JUMPDEST PUSH1 0x40 DUP3 ADD SWAP1 POP SWAP2 SWAP1 POP JUMP JUMPDEST PUSH1 0x0 PUSH1 0x20 DUP3 ADD SWAP1 POP DUP2 DUP2 SUB PUSH1 0x0 DUP4 ADD MSTORE PUSH2 0x1263 DUP2 PUSH2 0x1227 JUMP JUMPDEST SWAP1 POP SWAP2 SWAP1 POP JUMP JUMPDEST PUSH32 0x45524332303A207472616E7366657220616D6F756E7420657863656564732062 PUSH1 0x0 DUP3 ADD MSTORE PUSH32 0x616C616E63650000000000000000000000000000000000000000000000000000 PUSH1 0x20 DUP3 ADD MSTORE POP JUMP JUMPDEST PUSH1 0x0 PUSH2 0x12C6 PUSH1 0x26 DUP4 PUSH2 0xB35 JUMP JUMPDEST SWAP2 POP PUSH2 0x12D1 DUP3 PUSH2 0x126A JUMP JUMPDEST PUSH1 0x40 DUP3 ADD SWAP1 POP SWAP2 SWAP1 POP JUMP JUMPDEST PUSH1 0x0 PUSH1 0x20 DUP3 ADD SWAP1 POP DUP2 DUP2 SUB PUSH1 0x0 DUP4 ADD MSTORE PUSH2 0x12F5 DUP2 PUSH2 0x12B9 JUMP JUMPDEST SWAP1 POP SWAP2 SWAP1 POP JUMP INVALID LOG2 PUSH5 0x6970667358 0x22 SLT KECCAK256 SMOD GAS PUSH22 0xB211E418BEC5644458F485F12C6E35A11118ACACB684 0x4B PUSH32 0x12DDD2D6CA64736F6C634300080E003360806040526000600160146101000A81 SLOAD DUP2 PUSH1 0xFF MUL NOT AND SWAP1 DUP4 ISZERO ISZERO MUL OR SWAP1 SSTORE POP CALLVALUE DUP1 ISZERO PUSH2 0x2B JUMPI PUSH1 0x0 DUP1 REVERT JUMPDEST POP PUSH1 0x40 MLOAD PUSH3 0xB85 CODESIZE SUB DUP1 PUSH3 0xB85 DUP4 CODECOPY DUP2 DUP2 ADD PUSH1 0x40 MSTORE DUP2 ADD SWAP1 PUSH2 0x4F SWAP2 SWAP1 PUSH2 0x178 JUMP JUMPDEST DUP2 PUSH1 0x0 DUP1 PUSH2 0x100 EXP DUP2 SLOAD DUP2 PUSH20 0xFFFFFFFFFFFFFFFFFFFFFFFFFFFFFFFFFFFFFFFF MUL NOT AND SWAP1 DUP4 PUSH20 0xFFFFFFFFFFFFFFFFFFFFFFFFFFFFFFFFFFFFFFFF AND MUL OR SWAP1 SSTORE POP DUP1 PUSH1 0x1 PUSH1 0x0 PUSH2 0x100 EXP DUP2 SLOAD DUP2 PUSH20 0xFFFFFFFFFFFFFFFFFFFFFFFFFFFFFFFFFFFFFFFF MUL NOT AND SWAP1 DUP4 PUSH20 0xFFFFFFFFFFFFFFFFFFFFFFFFFFFFFFFFFFFFFFFF AND MUL OR SWAP1 SSTORE POP POP POP PUSH2 0x1B8 JUMP JUMPDEST PUSH1 0x0 DUP1 REVERT JUMPDEST PUSH1 0x0 PUSH20 0xFFFFFFFFFFFFFFFFFFFFFFFFFFFFFFFFFFFFFFFF DUP3 AND SWAP1 POP SWAP2 SWAP1 POP JUMP JUMPDEST PUSH1 0x0 PUSH2 0x107 DUP3 PUSH2 0xDC JUMP JUMPDEST SWAP1 POP SWAP2 SWAP1 POP JUMP JUMPDEST PUSH2 0x117 DUP2 PUSH2 0xFC JUMP JUMPDEST DUP2 EQ PUSH2 0x122 JUMPI PUSH1 0x0 DUP1 REVERT JUMPDEST POP JUMP JUMPDEST PUSH1 0x0 DUP2 MLOAD SWAP1 POP PUSH2 0x134 DUP2 PUSH2 0x10E JUMP JUMPDEST SWAP3 SWAP2 POP POP JUMP JUMPDEST PUSH1 0x0 PUSH2 0x145 DUP3 PUSH2 0xFC JUMP JUMPDEST SWAP1 POP SWAP2 SWAP1 POP JUMP JUMPDEST PUSH2 0x155 DUP2 PUSH2 0x13A JUMP JUMPDEST DUP2 EQ PUSH2 0x160 JUMPI PUSH1 0x0 DUP1 REVERT JUMPDEST POP JUMP JUMPDEST PUSH1 0x0 DUP2 MLOAD SWAP1 POP PUSH2 0x172 DUP2 PUSH2 0x14C JUMP JUMPDEST SWAP3 SWAP2 POP POP JUMP JUMPDEST PUSH1 0x0 DUP1 PUSH1 0x40 DUP4 DUP6 SUB SLT ISZERO PUSH2 0x18F JUMPI PUSH2 0x18E PUSH2 0xD7 JUMP JUMPDEST JUMPDEST PUSH1 0x0 PUSH2 0x19D DUP6 DUP3 DUP7 ADD PUSH2 0x125 JUMP JUMPDEST SWAP3 POP POP PUSH1 0x20 PUSH2 0x1AE DUP6 DUP3 DUP7 ADD PUSH2 0x163 JUMP JUMPDEST SWAP2 POP POP SWAP3 POP SWAP3 SWAP1 POP JUMP JUMPDEST PUSH2 0x9BD DUP1 PUSH3 0x1C8 PUSH1 0x0 CODECOPY PUSH1 0x0 RETURN INVALID PUSH1 0x80 PUSH1 0x40 MSTORE PUSH1 0x4 CALLDATASIZE LT PUSH2 0x85 JUMPI PUSH1 0x0 CALLDATALOAD PUSH1 0xE0 SHR DUP1 PUSH4 0x83AE0E9C GT PUSH2 0x59 JUMPI DUP1 PUSH4 0x83AE0E9C EQ PUSH2 0x146 JUMPI DUP1 PUSH4 0x8DA5CB5B EQ PUSH2 0x16F JUMPI DUP1 PUSH4 0x95DDA98E EQ PUSH2 0x19A JUMPI DUP1 PUSH4 0xB02F376F EQ PUSH2 0x1A4 JUMPI DUP1 PUSH4 0xDC9A1535 EQ PUSH2 0x1CF JUMPI PUSH2 0x85 JUMP JUMPDEST DUP1 PUSH3 0x148A69 EQ PUSH2 0x8A JUMPI DUP1 PUSH4 0xE21F59F EQ PUSH2 0xB5 JUMPI DUP1 PUSH4 0x12F265EF EQ PUSH2 0xDE JUMPI DUP1 PUSH4 0x2848AEAF EQ PUSH2 0x109 JUMPI JUMPDEST PUSH1 0x0 DUP1 REVERT JUMPDEST CALLVALUE DUP1 ISZERO PUSH2 0x96 JUMPI PUSH1 0x0 DUP1 REVERT JUMPDEST POP PUSH2 0x9F PUSH2 0x1FA JUMP JUMPDEST PUSH1 0x40 MLOAD PUSH2 0xAC SWAP2 SWAP1 PUSH2 0x52A JUMP JUMPDEST PUSH1 0x40 MLOAD DUP1 SWAP2 SUB SWAP1 RETURN JUMPDEST CALLVALUE DUP1 ISZERO PUSH2 0xC1 JUMPI PUSH1 0x0 DUP1 REVERT JUMPDEST POP PUSH2 0xDC PUSH1 0x4 DUP1 CALLDATASIZE SUB DUP2 ADD SWAP1 PUSH2 0xD7 SWAP2 SWAP1 PUSH2 0x587 JUMP JUMPDEST PUSH2 0x1FF JUMP JUMPDEST STOP JUMPDEST CALLVALUE DUP1 ISZERO PUSH2 0xEA JUMPI PUSH1 0x0 DUP1 REVERT JUMPDEST POP PUSH2 0xF3 PUSH2 0x2AA JUMP JUMPDEST PUSH1 0x40 MLOAD PUSH2 0x100 SWAP2 SWAP1 PUSH2 0x633 JUMP JUMPDEST PUSH1 0x40 MLOAD DUP1 SWAP2 SUB SWAP1 RETURN JUMPDEST CALLVALUE DUP1 ISZERO PUSH2 0x115 JUMPI PUSH1 0x0 DUP1 REVERT JUMPDEST POP PUSH2 0x130 PUSH1 0x4 DUP1 CALLDATASIZE SUB DUP2 ADD SWAP1 PUSH2 0x12B SWAP2 SWAP1 PUSH2 0x68C JUMP JUMPDEST PUSH2 0x2D0 JUMP JUMPDEST PUSH1 0x40 MLOAD PUSH2 0x13D SWAP2 SWAP1 PUSH2 0x6C8 JUMP JUMPDEST PUSH1 0x40 MLOAD DUP1 SWAP2 SUB SWAP1 RETURN JUMPDEST CALLVALUE DUP1 ISZERO PUSH2 0x152 JUMPI PUSH1 0x0 DUP1 REVERT JUMPDEST POP PUSH2 0x16D PUSH1 0x4 DUP1 CALLDATASIZE SUB DUP2 ADD SWAP1 PUSH2 0x168 SWAP2 SWAP1 PUSH2 0x748 JUMP JUMPDEST PUSH2 0x2F0 JUMP JUMPDEST STOP JUMPDEST CALLVALUE DUP1 ISZERO PUSH2 0x17B JUMPI PUSH1 0x0 DUP1 REVERT JUMPDEST POP PUSH2 0x184 PUSH2 0x423 JUMP JUMPDEST PUSH1 0x40 MLOAD PUSH2 0x191 SWAP2 SWAP1 PUSH2 0x7B7 JUMP JUMPDEST PUSH1 0x40 MLOAD DUP1 SWAP2 SUB SWAP1 RETURN JUMPDEST PUSH2 0x1A2 PUSH2 0x447 JUMP JUMPDEST STOP JUMPDEST CALLVALUE DUP1 ISZERO PUSH2 0x1B0 JUMPI PUSH1 0x0 DUP1 REVERT JUMPDEST POP PUSH2 0x1B9 PUSH2 0x4F1 JUMP JUMPDEST PUSH1 0x40 MLOAD PUSH2 0x1C6 SWAP2 SWAP1 PUSH2 0x52A JUMP JUMPDEST PUSH1 0x40 MLOAD DUP1 SWAP2 SUB SWAP1 RETURN JUMPDEST CALLVALUE DUP1 ISZERO PUSH2 0x1DB JUMPI PUSH1 0x0 DUP1 REVERT JUMPDEST POP PUSH2 0x1E4 PUSH2 0x4FE JUMP JUMPDEST PUSH1 0x40 MLOAD PUSH2 0x1F1 SWAP2 SWAP1 PUSH2 0x6C8 JUMP JUMPDEST PUSH1 0x40 MLOAD DUP1 SWAP2 SUB SWAP1 RETURN JUMPDEST PUSH1 0x5 DUP2 JUMP JUMPDEST PUSH1 0x0 DUP1 SLOAD SWAP1 PUSH2 0x100 EXP SWAP1 DIV PUSH20 0xFFFFFFFFFFFFFFFFFFFFFFFFFFFFFFFFFFFFFFFF AND PUSH20 0xFFFFFFFFFFFFFFFFFFFFFFFFFFFFFFFFFFFFFFFF AND CALLER PUSH20 0xFFFFFFFFFFFFFFFFFFFFFFFFFFFFFFFFFFFFFFFF AND EQ PUSH2 0x28D JUMPI PUSH1 0x40 MLOAD PUSH32 0x8C379A000000000000000000000000000000000000000000000000000000000 DUP2 MSTORE PUSH1 0x4 ADD PUSH2 0x284 SWAP1 PUSH2 0x82F JUMP JUMPDEST PUSH1 0x40 MLOAD DUP1 SWAP2 SUB SWAP1 REVERT JUMPDEST DUP1 PUSH1 0x1 PUSH1 0x14 PUSH2 0x100 EXP DUP2 SLOAD DUP2 PUSH1 0xFF MUL NOT AND SWAP1 DUP4 ISZERO ISZERO MUL OR SWAP1 SSTORE POP POP JUMP JUMPDEST PUSH1 0x1 PUSH1 0x0 SWAP1 SLOAD SWAP1 PUSH2 0x100 EXP SWAP1 DIV PUSH20 0xFFFFFFFFFFFFFFFFFFFFFFFFFFFFFFFFFFFFFFFF AND DUP2 JUMP JUMPDEST PUSH1 0x2 PUSH1 0x20 MSTORE DUP1 PUSH1 0x0 MSTORE PUSH1 0x40 PUSH1 0x0 KECCAK256 PUSH1 0x0 SWAP2 POP SLOAD SWAP1 PUSH2 0x100 EXP SWAP1 DIV PUSH1 0xFF AND DUP2 JUMP JUMPDEST PUSH1 0x0 DUP1 SLOAD SWAP1 PUSH2 0x100 EXP SWAP1 DIV PUSH20 0xFFFFFFFFFFFFFFFFFFFFFFFFFFFFFFFFFFFFFFFF AND PUSH20 0xFFFFFFFFFFFFFFFFFFFFFFFFFFFFFFFFFFFFFFFF AND CALLER PUSH20 0xFFFFFFFFFFFFFFFFFFFFFFFFFFFFFFFFFFFFFFFF AND EQ PUSH2 0x37E JUMPI PUSH1 0x40 MLOAD PUSH32 0x8C379A000000000000000000000000000000000000000000000000000000000 DUP2 MSTORE PUSH1 0x4 ADD PUSH2 0x375 SWAP1 PUSH2 0x82F JUMP JUMPDEST PUSH1 0x40 MLOAD DUP1 SWAP2 SUB SWAP1 REVERT JUMPDEST PUSH1 0x0 JUMPDEST DUP4 DUP4 SWAP1 POP DUP2 LT ISZERO PUSH2 0x41D JUMPI DUP2 PUSH1 0x2 PUSH1 0x0 DUP7 DUP7 DUP6 DUP2 DUP2 LT PUSH2 0x3A4 JUMPI PUSH2 0x3A3 PUSH2 0x84F JUMP JUMPDEST JUMPDEST SWAP1 POP PUSH1 0x20 MUL ADD PUSH1 0x20 DUP2 ADD SWAP1 PUSH2 0x3B9 SWAP2 SWAP1 PUSH2 0x68C JUMP JUMPDEST PUSH20 0xFFFFFFFFFFFFFFFFFFFFFFFFFFFFFFFFFFFFFFFF AND PUSH20 0xFFFFFFFFFFFFFFFFFFFFFFFFFFFFFFFFFFFFFFFF AND DUP2 MSTORE PUSH1 0x20 ADD SWAP1 DUP2 MSTORE PUSH1 0x20 ADD PUSH1 0x0 KECCAK256 PUSH1 0x0 PUSH2 0x100 EXP DUP2 SLOAD DUP2 PUSH1 0xFF MUL NOT AND SWAP1 DUP4 ISZERO ISZERO MUL OR SWAP1 SSTORE POP DUP1 DUP1 PUSH2 0x415 SWAP1 PUSH2 0x8AD JUMP JUMPDEST SWAP2 POP POP PUSH2 0x381 JUMP JUMPDEST POP POP POP POP JUMP JUMPDEST PUSH1 0x0 DUP1 SLOAD SWAP1 PUSH2 0x100 EXP SWAP1 DIV PUSH20 0xFFFFFFFFFFFFFFFFFFFFFFFFFFFFFFFFFFFFFFFF AND DUP2 JUMP JUMPDEST PUSH1 0x0 ISZERO ISZERO PUSH1 0x1 PUSH1 0x14 SWAP1 SLOAD SWAP1 PUSH2 0x100 EXP SWAP1 DIV PUSH1 0xFF AND ISZERO ISZERO SUB PUSH2 0x4EF JUMPI PUSH1 0x2 PUSH1 0x0 CALLER PUSH20 0xFFFFFFFFFFFFFFFFFFFFFFFFFFFFFFFFFFFFFFFF AND PUSH20 0xFFFFFFFFFFFFFFFFFFFFFFFFFFFFFFFFFFFFFFFF AND DUP2 MSTORE PUSH1 0x20 ADD SWAP1 DUP2 MSTORE PUSH1 0x20 ADD PUSH1 0x0 KECCAK256 PUSH1 0x0 SWAP1 SLOAD SWAP1 PUSH2 0x100 EXP SWAP1 DIV PUSH1 0xFF AND PUSH2 0x4EE JUMPI PUSH1 0x40 MLOAD PUSH32 0x973D02CB00000000000000000000000000000000000000000000000000000000 DUP2 MSTORE PUSH1 0x4 ADD PUSH2 0x4E5 SWAP1 PUSH2 0x967 JUMP JUMPDEST PUSH1 0x40 MLOAD DUP1 SWAP2 SUB SWAP1 REVERT JUMPDEST JUMPDEST JUMP JUMPDEST PUSH9 0x56BC75E2D63100000 DUP2 JUMP JUMPDEST PUSH1 0x1 PUSH1 0x14 SWAP1 SLOAD SWAP1 PUSH2 0x100 EXP SWAP1 DIV PUSH1 0xFF AND DUP2 JUMP JUMPDEST PUSH1 0x0 DUP2 SWAP1 POP SWAP2 SWAP1 POP JUMP JUMPDEST PUSH2 0x524 DUP2 PUSH2 0x511 JUMP JUMPDEST DUP3 MSTORE POP POP JUMP JUMPDEST PUSH1 0x0 PUSH1 0x20 DUP3 ADD SWAP1 POP PUSH2 0x53F PUSH1 0x0 DUP4 ADD DUP5 PUSH2 0x51B JUMP JUMPDEST SWAP3 SWAP2 POP POP JUMP JUMPDEST PUSH1 0x0 DUP1 REVERT JUMPDEST PUSH1 0x0 DUP1 REVERT JUMPDEST PUSH1 0x0 DUP2 ISZERO ISZERO SWAP1 POP SWAP2 SWAP1 POP JUMP JUMPDEST PUSH2 0x564 DUP2 PUSH2 0x54F JUMP JUMPDEST DUP2 EQ PUSH2 0x56F JUMPI PUSH1 0x0 DUP1 REVERT JUMPDEST POP JUMP JUMPDEST PUSH1 0x0 DUP2 CALLDATALOAD SWAP1 POP PUSH2 0x581 DUP2 PUSH2 0x55B JUMP JUMPDEST SWAP3 SWAP2 POP POP JUMP JUMPDEST PUSH1 0x0 PUSH1 0x20 DUP3 DUP5 SUB SLT ISZERO PUSH2 0x59D JUMPI PUSH2 0x59C PUSH2 0x545 JUMP JUMPDEST JUMPDEST PUSH1 0x0 PUSH2 0x5AB DUP5 DUP3 DUP6 ADD PUSH2 0x572 JUMP JUMPDEST SWAP2 POP POP SWAP3 SWAP2 POP POP JUMP JUMPDEST PUSH1 0x0 PUSH20 0xFFFFFFFFFFFFFFFFFFFFFFFFFFFFFFFFFFFFFFFF DUP3 AND SWAP1 POP SWAP2 SWAP1 POP JUMP JUMPDEST PUSH1 0x0 DUP2 SWAP1 POP SWAP2 SWAP1 POP JUMP JUMPDEST PUSH1 0x0 PUSH2 0x5F9 PUSH2 0x5F4 PUSH2 0x5EF DUP5 PUSH2 0x5B4 JUMP JUMPDEST PUSH2 0x5D4 JUMP JUMPDEST PUSH2 0x5B4 JUMP JUMPDEST SWAP1 POP SWAP2 SWAP1 POP JUMP JUMPDEST PUSH1 0x0 PUSH2 0x60B DUP3 PUSH2 0x5DE JUMP JUMPDEST SWAP1 POP SWAP2 SWAP1 POP JUMP JUMPDEST PUSH1 0x0 PUSH2 0x61D DUP3 PUSH2 0x600 JUMP JUMPDEST SWAP1 POP SWAP2 SWAP1 POP JUMP JUMPDEST PUSH2 0x62D DUP2 PUSH2 0x612 JUMP JUMPDEST DUP3 MSTORE POP POP JUMP JUMPDEST PUSH1 0x0 PUSH1 0x20 DUP3 ADD SWAP1 POP PUSH2 0x648 PUSH1 0x0 DUP4 ADD DUP5 PUSH2 0x624 JUMP JUMPDEST SWAP3 SWAP2 POP POP JUMP JUMPDEST PUSH1 0x0 PUSH2 0x659 DUP3 PUSH2 0x5B4 JUMP JUMPDEST SWAP1 POP SWAP2 SWAP1 POP JUMP JUMPDEST PUSH2 0x669 DUP2 PUSH2 0x64E JUMP JUMPDEST DUP2 EQ PUSH2 0x674 JUMPI PUSH1 0x0 DUP1 REVERT JUMPDEST POP JUMP JUMPDEST PUSH1 0x0 DUP2 CALLDATALOAD SWAP1 POP PUSH2 0x686 DUP2 PUSH2 0x660 JUMP JUMPDEST SWAP3 SWAP2 POP POP JUMP JUMPDEST PUSH1 0x0 PUSH1 0x20 DUP3 DUP5 SUB SLT ISZERO PUSH2 0x6A2 JUMPI PUSH2 0x6A1 PUSH2 0x545 JUMP JUMPDEST JUMPDEST PUSH1 0x0 PUSH2 0x6B0 DUP5 DUP3 DUP6 ADD PUSH2 0x677 JUMP JUMPDEST SWAP2 POP POP SWAP3 SWAP2 POP POP JUMP JUMPDEST PUSH2 0x6C2 DUP2 PUSH2 0x54F JUMP JUMPDEST DUP3 MSTORE POP POP JUMP JUMPDEST PUSH1 0x0 PUSH1 0x20 DUP3 ADD SWAP1 POP PUSH2 0x6DD PUSH1 0x0 DUP4 ADD DUP5 PUSH2 0x6B9 JUMP JUMPDEST SWAP3 SWAP2 POP POP JUMP JUMPDEST PUSH1 0x0 DUP1 REVERT JUMPDEST PUSH1 0x0 DUP1 REVERT JUMPDEST PUSH1 0x0 DUP1 REVERT JUMPDEST PUSH1 0x0 DUP1 DUP4 PUSH1 0x1F DUP5 ADD SLT PUSH2 0x708 JUMPI PUSH2 0x707 PUSH2 0x6E3 JUMP JUMPDEST JUMPDEST DUP3 CALLDATALOAD SWAP1 POP PUSH8 0xFFFFFFFFFFFFFFFF DUP2 GT ISZERO PUSH2 0x725 JUMPI PUSH2 0x724 PUSH2 0x6E8 JUMP JUMPDEST JUMPDEST PUSH1 0x20 DUP4 ADD SWAP2 POP DUP4 PUSH1 0x20 DUP3 MUL DUP4 ADD GT ISZERO PUSH2 0x741 JUMPI PUSH2 0x740 PUSH2 0x6ED JUMP JUMPDEST JUMPDEST SWAP3 POP SWAP3 SWAP1 POP JUMP JUMPDEST PUSH1 0x0 DUP1 PUSH1 0x0 PUSH1 0x40 DUP5 DUP7 SUB SLT ISZERO PUSH2 0x761 JUMPI PUSH2 0x760 PUSH2 0x545 JUMP JUMPDEST JUMPDEST PUSH1 0x0 DUP5 ADD CALLDATALOAD PUSH8 0xFFFFFFFFFFFFFFFF DUP2 GT ISZERO PUSH2 0x77F JUMPI PUSH2 0x77E PUSH2 0x54A JUMP JUMPDEST JUMPDEST PUSH2 0x78B DUP7 DUP3 DUP8 ADD PUSH2 0x6F2 JUMP JUMPDEST SWAP4 POP SWAP4 POP POP PUSH1 0x20 PUSH2 0x79E DUP7 DUP3 DUP8 ADD PUSH2 0x572 JUMP JUMPDEST SWAP2 POP POP SWAP3 POP SWAP3 POP SWAP3 JUMP JUMPDEST PUSH2 0x7B1 DUP2 PUSH2 0x64E JUMP JUMPDEST DUP3 MSTORE POP POP JUMP JUMPDEST PUSH1 0x0 PUSH1 0x20 DUP3 ADD SWAP1 POP PUSH2 0x7CC PUSH1 0x0 DUP4 ADD DUP5 PUSH2 0x7A8 JUMP JUMPDEST SWAP3 SWAP2 POP POP JUMP JUMPDEST PUSH1 0x0 DUP3 DUP3 MSTORE PUSH1 0x20 DUP3 ADD SWAP1 POP SWAP3 SWAP2 POP POP JUMP JUMPDEST PUSH32 0x4E6F742061204F776E0000000000000000000000000000000000000000000000 PUSH1 0x0 DUP3 ADD MSTORE POP JUMP JUMPDEST PUSH1 0x0 PUSH2 0x819 PUSH1 0x9 DUP4 PUSH2 0x7D2 JUMP JUMPDEST SWAP2 POP PUSH2 0x824 DUP3 PUSH2 0x7E3 JUMP JUMPDEST PUSH1 0x20 DUP3 ADD SWAP1 POP SWAP2 SWAP1 POP JUMP JUMPDEST PUSH1 0x0 PUSH1 0x20 DUP3 ADD SWAP1 POP DUP2 DUP2 SUB PUSH1 0x0 DUP4 ADD MSTORE PUSH2 0x848 DUP2 PUSH2 0x80C JUMP JUMPDEST SWAP1 POP SWAP2 SWAP1 POP JUMP JUMPDEST PUSH32 0x4E487B7100000000000000000000000000000000000000000000000000000000 PUSH1 0x0 MSTORE PUSH1 0x32 PUSH1 0x4 MSTORE PUSH1 0x24 PUSH1 0x0 REVERT JUMPDEST PUSH32 0x4E487B7100000000000000000000000000000000000000000000000000000000 PUSH1 0x0 MSTORE PUSH1 0x11 PUSH1 0x4 MSTORE PUSH1 0x24 PUSH1 0x0 REVERT JUMPDEST PUSH1 0x0 PUSH2 0x8B8 DUP3 PUSH2 0x511 JUMP JUMPDEST SWAP2 POP PUSH32 0xFFFFFFFFFFFFFFFFFFFFFFFFFFFFFFFFFFFFFFFFFFFFFFFFFFFFFFFFFFFFFFFF DUP3 SUB PUSH2 0x8EA JUMPI PUSH2 0x8E9 PUSH2 0x87E JUMP JUMPDEST JUMPDEST PUSH1 0x1 DUP3 ADD SWAP1 POP SWAP2 SWAP1 POP JUMP JUMPDEST PUSH32 0x536F72727920796F7520617265206E6F7420616C6C6F77656420746F2020636F PUSH1 0x0 DUP3 ADD MSTORE PUSH32 0x6E74726962757465200000000000000000000000000000000000000000000000 PUSH1 0x20 DUP3 ADD MSTORE POP JUMP JUMPDEST PUSH1 0x0 PUSH2 0x951 PUSH1 0x29 DUP4 PUSH2 0x7D2 JUMP JUMPDEST SWAP2 POP PUSH2 0x95C DUP3 PUSH2 0x8F5 JUMP JUMPDEST PUSH1 0x40 DUP3 ADD SWAP1 POP SWAP2 SWAP1 POP JUMP JUMPDEST PUSH1 0x0 PUSH1 0x20 DUP3 ADD SWAP1 POP DUP2 DUP2 SUB PUSH1 0x0 DUP4 ADD MSTORE PUSH2 0x980 DUP2 PUSH2 0x944 JUMP JUMPDEST SWAP1 POP SWAP2 SWAP1 POP JUMP INVALID LOG2 PUSH5 0x6970667358 0x22 SLT KECCAK256 0xED 0xDC SDIV SWAP10 ADD SWAP3 DUP16 SHL 0xA5 SHL 0xA5 0xAD 0xC1 0x1F PUSH11 0x77DAD70289E3E1493FC282 0xD8 0xCE SWAP14 0xE6 0xEC EXTCODEHASH PUSH5 0x736F6C6343 STOP ADDMOD 0xE STOP CALLER "
				},
				"gasEstimates": {
					"creation": {
						"codeDepositCost": "982800",
						"executionCost": "infinite",
						"totalCost": "infinite"
					},
					"external": {
						"allowance(address,address)": "infinite",
						"approve(address,uint256)": "infinite",
						"balanceOf(address)": "2886",
						"decimals()": "432",
						"decreaseAllowance(address,uint256)": "infinite",
						"ico()": "2537",
						"increaseAllowance(address,uint256)": "infinite",
						"name()": "infinite",
						"owner()": "2581",
						"symbol()": "infinite",
						"totalSupply()": "2482",
						"transfer(address,uint256)": "infinite",
						"transferFrom(address,address,uint256)": "infinite"
					}
				},
				"methodIdentifiers": {
					"allowance(address,address)": "dd62ed3e",
					"approve(address,uint256)": "095ea7b3",
					"balanceOf(address)": "70a08231",
					"decimals()": "313ce567",
					"decreaseAllowance(address,uint256)": "a457c2d7",
					"ico()": "5d452201",
					"increaseAllowance(address,uint256)": "39509351",
					"name()": "06fdde03",
					"owner()": "8da5cb5b",
					"symbol()": "95d89b41",
					"totalSupply()": "18160ddd",
					"transfer(address,uint256)": "a9059cbb",
					"transferFrom(address,address,uint256)": "23b872dd"
				}
			},
			"storageLayout": {
				"storage": [
					{
						"astId": 15,
						"contract": "contracts/NolanCoin.sol:NolanCoin",
						"label": "_balances",
						"offset": 0,
						"slot": "0",
						"type": "t_mapping(t_address,t_uint256)"
					},
					{
						"astId": 21,
						"contract": "contracts/NolanCoin.sol:NolanCoin",
						"label": "_allowances",
						"offset": 0,
						"slot": "1",
						"type": "t_mapping(t_address,t_mapping(t_address,t_uint256))"
					},
					{
						"astId": 23,
						"contract": "contracts/NolanCoin.sol:NolanCoin",
						"label": "_totalSupply",
						"offset": 0,
						"slot": "2",
						"type": "t_uint256"
					},
					{
						"astId": 25,
						"contract": "contracts/NolanCoin.sol:NolanCoin",
						"label": "_name",
						"offset": 0,
						"slot": "3",
						"type": "t_string_storage"
					},
					{
						"astId": 27,
						"contract": "contracts/NolanCoin.sol:NolanCoin",
						"label": "_symbol",
						"offset": 0,
						"slot": "4",
						"type": "t_string_storage"
					},
					{
						"astId": 842,
						"contract": "contracts/NolanCoin.sol:NolanCoin",
						"label": "owner",
						"offset": 0,
						"slot": "5",
						"type": "t_address"
					},
					{
						"astId": 844,
						"contract": "contracts/NolanCoin.sol:NolanCoin",
						"label": "ico",
						"offset": 0,
						"slot": "6",
						"type": "t_address"
					}
				],
				"types": {
					"t_address": {
						"encoding": "inplace",
						"label": "address",
						"numberOfBytes": "20"
					},
					"t_mapping(t_address,t_mapping(t_address,t_uint256))": {
						"encoding": "mapping",
						"key": "t_address",
						"label": "mapping(address => mapping(address => uint256))",
						"numberOfBytes": "32",
						"value": "t_mapping(t_address,t_uint256)"
					},
					"t_mapping(t_address,t_uint256)": {
						"encoding": "mapping",
						"key": "t_address",
						"label": "mapping(address => uint256)",
						"numberOfBytes": "32",
						"value": "t_uint256"
					},
					"t_string_storage": {
						"encoding": "bytes",
						"label": "string",
						"numberOfBytes": "32"
					},
					"t_uint256": {
						"encoding": "inplace",
						"label": "uint256",
						"numberOfBytes": "32"
					}
				}
			},
			"userdoc": {
				"kind": "user",
				"methods": {},
				"version": 1
			}
		}
	}
}